{
  "contractName": "Auth",
  "abi": [
    {
      "anonymous": false,
      "inputs": [
        {
          "indexed": false,
          "internalType": "string",
          "name": "username",
          "type": "string"
        },
        {
          "indexed": false,
          "internalType": "string",
          "name": "email",
          "type": "string"
        },
        {
          "indexed": false,
          "internalType": "string",
          "name": "password",
          "type": "string"
        }
      ],
      "name": "userCreated",
      "type": "event"
    },
    {
      "inputs": [],
      "name": "userCount",
      "outputs": [
        {
          "internalType": "uint256",
          "name": "",
          "type": "uint256"
        }
      ],
      "stateMutability": "view",
      "type": "function",
      "constant": true
    },
    {
      "inputs": [
        {
          "internalType": "string",
          "name": "",
          "type": "string"
        }
      ],
      "name": "usersList",
      "outputs": [
        {
          "internalType": "string",
          "name": "username",
          "type": "string"
        },
        {
          "internalType": "string",
          "name": "email",
          "type": "string"
        },
        {
          "internalType": "string",
          "name": "password",
          "type": "string"
        }
      ],
      "stateMutability": "view",
      "type": "function",
      "constant": true
    },
    {
      "inputs": [
        {
          "internalType": "string",
          "name": "_username",
          "type": "string"
        },
        {
          "internalType": "string",
          "name": "_email",
          "type": "string"
        },
        {
          "internalType": "string",
          "name": "_password",
          "type": "string"
        }
      ],
      "name": "createUser",
      "outputs": [],
      "stateMutability": "nonpayable",
      "type": "function"
    }
  ],
  "bytecode": "0x60806040526000805534801561001457600080fd5b506106e5806100246000396000f3fe608060405234801561001057600080fd5b50600436106100415760003560e01c806307973ccf146100465780634cbce6ac1461006257806359ae069b14610084575b600080fd5b61004f60005481565b6040519081526020015b60405180910390f35b6100756100703660046103cb565b610099565b60405161005993929190610458565b61009761009236600461049b565b61025e565b005b80516020818301810180516001825292820191909301209152805481906100bf90610523565b80601f01602080910402602001604051908101604052809291908181526020018280546100eb90610523565b80156101385780601f1061010d57610100808354040283529160200191610138565b820191906000526020600020905b81548152906001019060200180831161011b57829003601f168201915b50505050509080600101805461014d90610523565b80601f016020809104026020016040519081016040528092919081815260200182805461017990610523565b80156101c65780601f1061019b576101008083540402835291602001916101c6565b820191906000526020600020905b8154815290600101906020018083116101a957829003601f168201915b5050505050908060020180546101db90610523565b80601f016020809104026020016040519081016040528092919081815260200182805461020790610523565b80156102545780601f1061022957610100808354040283529160200191610254565b820191906000526020600020905b81548152906001019060200180831161023757829003601f168201915b5050505050905083565b60008054908061026d8361055d565b919050555060405180606001604052808481526020018381526020018281525060018360405161029d9190610584565b908152604051908190036020019020815181906102ba90826105ef565b50602082015160018201906102cf90826105ef565b50604082015160028201906102e490826105ef565b509050507fc50aadd178489c438b87db1b844b2d3380597c1c38fbcb15977a662c4404672e83838360405161031b93929190610458565b60405180910390a1505050565b634e487b7160e01b600052604160045260246000fd5b600082601f83011261034f57600080fd5b813567ffffffffffffffff8082111561036a5761036a610328565b604051601f8301601f19908116603f0116810190828211818310171561039257610392610328565b816040528381528660208588010111156103ab57600080fd5b836020870160208301376000602085830101528094505050505092915050565b6000602082840312156103dd57600080fd5b813567ffffffffffffffff8111156103f457600080fd5b6104008482850161033e565b949350505050565b60005b8381101561042357818101518382015260200161040b565b50506000910152565b60008151808452610444816020860160208601610408565b601f01601f19169290920160200192915050565b60608152600061046b606083018661042c565b828103602084015261047d818661042c565b90508281036040840152610491818561042c565b9695505050505050565b6000806000606084860312156104b057600080fd5b833567ffffffffffffffff808211156104c857600080fd5b6104d48783880161033e565b945060208601359150808211156104ea57600080fd5b6104f68783880161033e565b9350604086013591508082111561050c57600080fd5b506105198682870161033e565b9150509250925092565b600181811c9082168061053757607f821691505b60208210810361055757634e487b7160e01b600052602260045260246000fd5b50919050565b60006001820161057d57634e487b7160e01b600052601160045260246000fd5b5060010190565b60008251610596818460208701610408565b9190910192915050565b601f8211156105ea57600081815260208120601f850160051c810160208610156105c75750805b601f850160051c820191505b818110156105e6578281556001016105d3565b5050505b505050565b815167ffffffffffffffff81111561060957610609610328565b61061d816106178454610523565b846105a0565b602080601f831160018114610652576000841561063a5750858301515b600019600386901b1c1916600185901b1785556105e6565b600085815260208120601f198616915b8281101561068157888601518255948401946001909101908401610662565b508582101561069f5787850151600019600388901b60f8161c191681555b5050505050600190811b0190555056fea26469706673582212202ea24b357d45e4add1f1606ffa9cf1cf051465a1cd9d0ec8d2a61b6541f4b1ca64736f6c63430008130033",
  "immutableReferences": {},
  "source": "// SPDX-License-Identifier: MIT\r\npragma solidity >=0.4.22 <0.9.0;\r\n \r\ncontract Auth\r\n{   \r\n    uint public userCount = 0;\r\n \r\n    mapping(string => user) public usersList;\r\n \r\n     struct user\r\n     {\r\n       string username;\r\n       string email;\r\n       string password;\r\n     }\r\n \r\n   // events\r\n \r\n   event userCreated(\r\n      string username,\r\n      string email,\r\n      string password\r\n    );\r\n \r\n  function createUser(string memory _username,\r\n                      string memory _email,\r\n                      string memory _password) public\r\n  {     \r\n      userCount++;\r\n      usersList[_email] = user(_username,\r\n                               _email,\r\n                               _password);\r\n      emit userCreated(_username,\r\n                       _email,\r\n                       _password);\r\n    }\r\n}",
  "sourcePath": "D:\\Yugo - Final project\\yugo\\src\\contracts\\Auth.sol",
  "compiler": {
    "name": "solc",
    "version": "0.8.19+commit.7dd6d404.Emscripten.clang"
  },
  "schemaVersion": "3.4.13",
  "updatedAt": "2023-04-28T09:59:10.071Z",
  "networkType": "ethereum",
  "devdoc": {
    "kind": "dev",
    "methods": {},
    "version": 1
  },
  "userdoc": {
    "kind": "user",
    "methods": {},
    "version": 1
  }
}