{
  "contractName": "BookingContract",
  "abi": [
    {
      "anonymous": false,
      "inputs": [
        {
          "indexed": false,
          "internalType": "uint256",
          "name": "rideId",
          "type": "uint256"
        }
      ],
      "name": "NewRide",
      "type": "event"
    },
    {
      "inputs": [],
      "name": "CarbonCredits",
      "outputs": [
        {
          "internalType": "uint256",
          "name": "",
          "type": "uint256"
        }
      ],
      "stateMutability": "view",
      "type": "function",
      "constant": true
    },
    {
      "inputs": [],
      "name": "amountPaid",
      "outputs": [
        {
          "internalType": "uint256",
          "name": "",
          "type": "uint256"
        }
      ],
      "stateMutability": "view",
      "type": "function",
      "constant": true
    },
    {
      "inputs": [
        {
          "internalType": "string",
          "name": "_startLocation",
          "type": "string"
        },
        {
          "internalType": "string",
          "name": "_endLocation",
          "type": "string"
        },
        {
          "internalType": "uint256",
          "name": "_fare",
          "type": "uint256"
        },
        {
          "internalType": "uint256",
          "name": "_date",
          "type": "uint256"
        },
        {
          "internalType": "uint256",
          "name": "_time",
          "type": "uint256"
        },
        {
          "internalType": "uint256",
          "name": "_noofpass",
          "type": "uint256"
        }
      ],
      "name": "createRide",
      "outputs": [],
      "stateMutability": "nonpayable",
      "type": "function"
    },
    {
      "inputs": [
        {
          "internalType": "address",
          "name": "",
          "type": "address"
        }
      ],
      "name": "currentRide",
      "outputs": [
        {
          "internalType": "uint256",
          "name": "id",
          "type": "uint256"
        },
        {
          "internalType": "address",
          "name": "driver",
          "type": "address"
        },
        {
          "internalType": "string",
          "name": "startLocation",
          "type": "string"
        },
        {
          "internalType": "string",
          "name": "endLocation",
          "type": "string"
        },
        {
          "internalType": "uint256",
          "name": "fare",
          "type": "uint256"
        },
        {
          "internalType": "uint256",
          "name": "date",
          "type": "uint256"
        },
        {
          "internalType": "uint256",
          "name": "time",
          "type": "uint256"
        },
        {
          "internalType": "uint256",
          "name": "noofpass",
          "type": "uint256"
        },
        {
          "internalType": "bool",
          "name": "booked",
          "type": "bool"
        },
        {
          "internalType": "enum RideContract.RideStatus",
          "name": "status",
          "type": "uint8"
        }
      ],
      "stateMutability": "view",
      "type": "function",
      "constant": true
    },
    {
      "inputs": [
        {
          "internalType": "uint256",
          "name": "_rideId",
          "type": "uint256"
        }
      ],
      "name": "decrementSeats",
      "outputs": [
        {
          "internalType": "string",
          "name": "",
          "type": "string"
        },
        {
          "internalType": "string",
          "name": "",
          "type": "string"
        },
        {
          "internalType": "uint256",
          "name": "",
          "type": "uint256"
        },
        {
          "internalType": "uint256",
          "name": "",
          "type": "uint256"
        },
        {
          "internalType": "uint256",
          "name": "",
          "type": "uint256"
        },
        {
          "internalType": "uint256",
          "name": "",
          "type": "uint256"
        },
        {
          "internalType": "uint256",
          "name": "",
          "type": "uint256"
        }
      ],
      "stateMutability": "nonpayable",
      "type": "function"
    },
    {
      "inputs": [
        {
          "internalType": "uint256",
          "name": "_rideId",
          "type": "uint256"
        }
      ],
      "name": "deleteRide",
      "outputs": [],
      "stateMutability": "nonpayable",
      "type": "function"
    },
    {
      "inputs": [
        {
          "internalType": "uint256",
          "name": "_id",
          "type": "uint256"
        }
      ],
      "name": "getDetails",
      "outputs": [
        {
          "internalType": "string",
          "name": "",
          "type": "string"
        },
        {
          "internalType": "string",
          "name": "",
          "type": "string"
        },
        {
          "internalType": "uint256",
          "name": "",
          "type": "uint256"
        },
        {
          "internalType": "uint256",
          "name": "",
          "type": "uint256"
        },
        {
          "internalType": "uint256",
          "name": "",
          "type": "uint256"
        },
        {
          "internalType": "uint256",
          "name": "",
          "type": "uint256"
        },
        {
          "internalType": "address",
          "name": "",
          "type": "address"
        }
      ],
      "stateMutability": "view",
      "type": "function",
      "constant": true
    },
    {
      "inputs": [],
      "name": "getLength",
      "outputs": [
        {
          "internalType": "uint256",
          "name": "",
          "type": "uint256"
        }
      ],
      "stateMutability": "view",
      "type": "function",
      "constant": true
    },
    {
      "inputs": [
        {
          "internalType": "uint256",
          "name": "_id",
          "type": "uint256"
        }
      ],
      "name": "getStoredDetails",
      "outputs": [
        {
          "internalType": "string",
          "name": "",
          "type": "string"
        },
        {
          "internalType": "string",
          "name": "",
          "type": "string"
        },
        {
          "internalType": "string",
          "name": "",
          "type": "string"
        },
        {
          "internalType": "uint256",
          "name": "",
          "type": "uint256"
        },
        {
          "internalType": "uint256",
          "name": "",
          "type": "uint256"
        }
      ],
      "stateMutability": "view",
      "type": "function",
      "constant": true
    },
    {
      "inputs": [],
      "name": "numBookedRides",
      "outputs": [
        {
          "internalType": "uint256",
          "name": "",
          "type": "uint256"
        }
      ],
      "stateMutability": "view",
      "type": "function",
      "constant": true
    },
    {
      "inputs": [],
      "name": "numCreatedRides",
      "outputs": [
        {
          "internalType": "uint256",
          "name": "",
          "type": "uint256"
        }
      ],
      "stateMutability": "view",
      "type": "function",
      "constant": true
    },
    {
      "inputs": [],
      "name": "rideDate",
      "outputs": [
        {
          "internalType": "string",
          "name": "",
          "type": "string"
        }
      ],
      "stateMutability": "view",
      "type": "function",
      "constant": true
    },
    {
      "inputs": [
        {
          "internalType": "uint256",
          "name": "",
          "type": "uint256"
        }
      ],
      "name": "rideDetails",
      "outputs": [
        {
          "internalType": "string",
          "name": "rideFrom",
          "type": "string"
        },
        {
          "internalType": "string",
          "name": "rideTo",
          "type": "string"
        },
        {
          "internalType": "string",
          "name": "rideDate",
          "type": "string"
        },
        {
          "internalType": "uint256",
          "name": "rideTime",
          "type": "uint256"
        },
        {
          "internalType": "uint256",
          "name": "amountPaid",
          "type": "uint256"
        }
      ],
      "stateMutability": "view",
      "type": "function",
      "constant": true
    },
    {
      "inputs": [],
      "name": "rideFrom",
      "outputs": [
        {
          "internalType": "string",
          "name": "",
          "type": "string"
        }
      ],
      "stateMutability": "view",
      "type": "function",
      "constant": true
    },
    {
      "inputs": [],
      "name": "rideTime",
      "outputs": [
        {
          "internalType": "string",
          "name": "",
          "type": "string"
        }
      ],
      "stateMutability": "view",
      "type": "function",
      "constant": true
    },
    {
      "inputs": [],
      "name": "rideTo",
      "outputs": [
        {
          "internalType": "string",
          "name": "",
          "type": "string"
        }
      ],
      "stateMutability": "view",
      "type": "function",
      "constant": true
    },
    {
      "inputs": [
        {
          "internalType": "uint256",
          "name": "",
          "type": "uint256"
        }
      ],
      "name": "rides",
      "outputs": [
        {
          "internalType": "uint256",
          "name": "id",
          "type": "uint256"
        },
        {
          "internalType": "address",
          "name": "driver",
          "type": "address"
        },
        {
          "internalType": "string",
          "name": "startLocation",
          "type": "string"
        },
        {
          "internalType": "string",
          "name": "endLocation",
          "type": "string"
        },
        {
          "internalType": "uint256",
          "name": "fare",
          "type": "uint256"
        },
        {
          "internalType": "uint256",
          "name": "date",
          "type": "uint256"
        },
        {
          "internalType": "uint256",
          "name": "time",
          "type": "uint256"
        },
        {
          "internalType": "uint256",
          "name": "noofpass",
          "type": "uint256"
        },
        {
          "internalType": "bool",
          "name": "booked",
          "type": "bool"
        },
        {
          "internalType": "enum RideContract.RideStatus",
          "name": "status",
          "type": "uint8"
        }
      ],
      "stateMutability": "view",
      "type": "function",
      "constant": true
    },
    {
      "inputs": [
        {
          "internalType": "string",
          "name": "_rideFrom",
          "type": "string"
        },
        {
          "internalType": "string",
          "name": "_rideTo",
          "type": "string"
        },
        {
          "internalType": "string",
          "name": "_rideDate",
          "type": "string"
        },
        {
          "internalType": "uint256",
          "name": "_rideTime",
          "type": "uint256"
        },
        {
          "internalType": "uint256",
          "name": "_amountPaid",
          "type": "uint256"
        }
      ],
      "name": "storeRideDetails",
      "outputs": [],
      "stateMutability": "nonpayable",
      "type": "function"
    },
    {
      "inputs": [
        {
          "internalType": "uint256",
          "name": "",
          "type": "uint256"
        }
      ],
      "name": "storedride",
      "outputs": [
        {
          "internalType": "uint256",
          "name": "id",
          "type": "uint256"
        },
        {
          "internalType": "address",
          "name": "driver",
          "type": "address"
        },
        {
          "internalType": "string",
          "name": "startLocation",
          "type": "string"
        },
        {
          "internalType": "string",
          "name": "endLocation",
          "type": "string"
        },
        {
          "internalType": "uint256",
          "name": "fare",
          "type": "uint256"
        },
        {
          "internalType": "uint256",
          "name": "date",
          "type": "uint256"
        },
        {
          "internalType": "uint256",
          "name": "time",
          "type": "uint256"
        },
        {
          "internalType": "uint256",
          "name": "noofpass",
          "type": "uint256"
        },
        {
          "internalType": "bool",
          "name": "booked",
          "type": "bool"
        },
        {
          "internalType": "enum RideContract.RideStatus",
          "name": "status",
          "type": "uint8"
        }
      ],
      "stateMutability": "view",
      "type": "function",
      "constant": true
    },
    {
      "inputs": [],
      "name": "totalRides",
      "outputs": [
        {
          "internalType": "uint256",
          "name": "",
          "type": "uint256"
        }
      ],
      "stateMutability": "view",
      "type": "function",
      "constant": true
    },
    {
      "inputs": [
        {
          "internalType": "address",
          "name": "",
          "type": "address"
        },
        {
          "internalType": "uint256",
          "name": "",
          "type": "uint256"
        }
      ],
      "name": "userToRides",
      "outputs": [
        {
          "internalType": "uint256",
          "name": "",
          "type": "uint256"
        }
      ],
      "stateMutability": "view",
      "type": "function",
      "constant": true
    },
    {
      "inputs": [
        {
          "internalType": "uint256",
          "name": "_rideId",
          "type": "uint256"
        }
      ],
      "name": "bookRide",
      "outputs": [],
      "stateMutability": "payable",
      "type": "function",
      "payable": true
    },
    {
      "inputs": [
        {
          "internalType": "address",
          "name": "_user",
          "type": "address"
        }
      ],
      "name": "getRidesByUser",
      "outputs": [
        {
          "internalType": "uint256[]",
          "name": "",
          "type": "uint256[]"
        }
      ],
      "stateMutability": "view",
      "type": "function",
      "constant": true
    },
    {
      "inputs": [
        {
          "internalType": "uint256",
          "name": "_rideId",
          "type": "uint256"
        }
      ],
      "name": "getDriverAddress",
      "outputs": [
        {
          "internalType": "address",
          "name": "",
          "type": "address"
        }
      ],
      "stateMutability": "view",
      "type": "function",
      "constant": true
    }
  ],
  "bytecode": "0x60806040526000600b5534801561001557600080fd5b50611fe0806100256000396000f3fe60806040526004361061014b5760003560e01c8063ad6e3b71116100b6578063ddfc6d271161006f578063ddfc6d27146103d8578063e0b05ea6146103ed578063eb29de3414610403578063f333a68814610423578063f70b97a114610439578063f9d886591461045957600080fd5b8063ad6e3b7114610310578063b34cad211461033d578063b93a89f71461035d578063be1c766b14610390578063be69d9c2146103a5578063c69b2cf6146103c557600080fd5b806359994dcc1161010857806359994dcc1461024b5780635bbef3e01461026d57806366a759c21461028d57806387bb2f53146102a35780638fb78249146102c3578063a6ceb426146102fb57600080fd5b806321583ae014610150578063216340c3146101795780633c70c1571461018f57806346afbcfc146101b15780634826bad6146101e45780635205f11214610215575b600080fd5b34801561015c57600080fd5b5061016660095481565b6040519081526020015b60405180910390f35b34801561018557600080fd5b5061016660045481565b34801561019b57600080fd5b506101af6101aa366004611953565b61046e565b005b3480156101bd57600080fd5b506101d16101cc366004611953565b6104ed565b60405161017097969594939291906119b2565b3480156101f057600080fd5b506102046101ff366004611953565b61083d565b604051610170959493929190611a02565b34801561022157600080fd5b50610235610230366004611953565b610a1b565b6040516101709a99989796959493929190611a66565b34801561025757600080fd5b50610260610b9d565b6040516101709190611afd565b34801561027957600080fd5b50610204610288366004611953565b610c2b565b34801561029957600080fd5b50610166600a5481565b3480156102af57600080fd5b506102356102be366004611b33565b610ea0565b3480156102cf57600080fd5b506102e36102de366004611953565b610ed2565b6040516001600160a01b039091168152602001610170565b34801561030757600080fd5b50610260610f14565b34801561031c57600080fd5b5061033061032b366004611b33565b610f21565b6040516101709190611b4e565b34801561034957600080fd5b506101af610358366004611c35565b610f8d565b34801561036957600080fd5b5061037d610378366004611953565b6113d5565b6040516101709796959493929190611cbc565b34801561039c57600080fd5b50600c54610166565b3480156103b157600080fd5b506102356103c0366004611953565b611675565b6101af6103d3366004611953565b611685565b3480156103e457600080fd5b506102606117fb565b3480156103f957600080fd5b50610166600b5481565b34801561040f57600080fd5b5061016661041e366004611d15565b611808565b34801561042f57600080fd5b5061016660085481565b34801561044557600080fd5b506101af610454366004611d3f565b611839565b34801561046557600080fd5b506102606118f0565b6005818154811061048157610481611dd9565b6000918252602082206009909102018181556001810180546001600160a01b0319169055906104b360028301826118fd565b6104c16003830160006118fd565b5060006004820181905560058201819055600682018190556007820155600801805461ffff1916905550565b6060806000806000806000808811801561050957506005548811155b61054c5760405162461bcd60e51b815260206004820152600f60248201526e125b9d985b1a59081c9a5919481251608a1b60448201526064015b60405180910390fd5b6000600561055b60018b611e05565b8154811061056b5761056b611dd9565b9060005260206000209060090201905060008160070154116105cf5760405162461bcd60e51b815260206004820152601a60248201527f4e6f20617661696c61626c6520736561747320696e20726964650000000000006044820152606401610543565b6007810180549060006105e183611e1e565b9091555050600a80549060006105f683611e35565b919050555060056009600082825461060e9190611e4e565b909155506005905061062160018b611e05565b8154811061063157610631611dd9565b9060005260206000209060090201600201600560018b6106519190611e05565b8154811061066157610661611dd9565b9060005260206000209060090201600301600560018c6106819190611e05565b8154811061069157610691611dd9565b906000526020600020906009020160050154600560018d6106b29190611e05565b815481106106c2576106c2611dd9565b906000526020600020906009020160060154600560018e6106e39190611e05565b815481106106f3576106f3611dd9565b906000526020600020906009020160070154600a5460095486805461071790611e61565b80601f016020809104026020016040519081016040528092919081815260200182805461074390611e61565b80156107905780601f1061076557610100808354040283529160200191610790565b820191906000526020600020905b81548152906001019060200180831161077357829003601f168201915b505050505096508580546107a390611e61565b80601f01602080910402602001604051908101604052809291908181526020018280546107cf90611e61565b801561081c5780601f106107f15761010080835404028352916020019161081c565b820191906000526020600020905b8154815290600101906020018083116107ff57829003601f168201915b50505050509550975097509750975097509750975050919395979092949650565b600c818154811061084d57600080fd5b906000526020600020906005020160009150905080600001805461087090611e61565b80601f016020809104026020016040519081016040528092919081815260200182805461089c90611e61565b80156108e95780601f106108be576101008083540402835291602001916108e9565b820191906000526020600020905b8154815290600101906020018083116108cc57829003601f168201915b5050505050908060010180546108fe90611e61565b80601f016020809104026020016040519081016040528092919081815260200182805461092a90611e61565b80156109775780601f1061094c57610100808354040283529160200191610977565b820191906000526020600020905b81548152906001019060200180831161095a57829003601f168201915b50505050509080600201805461098c90611e61565b80601f01602080910402602001604051908101604052809291908181526020018280546109b890611e61565b8015610a055780601f106109da57610100808354040283529160200191610a05565b820191906000526020600020905b8154815290600101906020018083116109e857829003601f168201915b5050505050908060030154908060040154905085565b60058181548110610a2b57600080fd5b60009182526020909120600990910201805460018201546002830180549294506001600160a01b039091169291610a6190611e61565b80601f0160208091040260200160405190810160405280929190818152602001828054610a8d90611e61565b8015610ada5780601f10610aaf57610100808354040283529160200191610ada565b820191906000526020600020905b815481529060010190602001808311610abd57829003601f168201915b505050505090806003018054610aef90611e61565b80601f0160208091040260200160405190810160405280929190818152602001828054610b1b90611e61565b8015610b685780601f10610b3d57610100808354040283529160200191610b68565b820191906000526020600020905b815481529060010190602001808311610b4b57829003601f168201915b505050600484015460058501546006860154600787015460089097015495969295919450925060ff808216916101009004168a565b60018054610baa90611e61565b80601f0160208091040260200160405190810160405280929190818152602001828054610bd690611e61565b8015610c235780601f10610bf857610100808354040283529160200191610c23565b820191906000526020600020905b815481529060010190602001808311610c0657829003601f168201915b505050505081565b6060806060600080600c8681548110610c4657610c46611dd9565b9060005260206000209060050201600001600c8781548110610c6a57610c6a611dd9565b9060005260206000209060050201600101600c8881548110610c8e57610c8e611dd9565b9060005260206000209060050201600201600c8981548110610cb257610cb2611dd9565b906000526020600020906005020160030154600c8a81548110610cd757610cd7611dd9565b906000526020600020906005020160040154848054610cf590611e61565b80601f0160208091040260200160405190810160405280929190818152602001828054610d2190611e61565b8015610d6e5780601f10610d4357610100808354040283529160200191610d6e565b820191906000526020600020905b815481529060010190602001808311610d5157829003601f168201915b50505050509450838054610d8190611e61565b80601f0160208091040260200160405190810160405280929190818152602001828054610dad90611e61565b8015610dfa5780601f10610dcf57610100808354040283529160200191610dfa565b820191906000526020600020905b815481529060010190602001808311610ddd57829003601f168201915b50505050509350828054610e0d90611e61565b80601f0160208091040260200160405190810160405280929190818152602001828054610e3990611e61565b8015610e865780601f10610e5b57610100808354040283529160200191610e86565b820191906000526020600020905b815481529060010190602001808311610e6957829003601f168201915b505050505092509450945094509450945091939590929450565b60076020526000908152604090208054600182015460028301805492936001600160a01b0390921692610a6190611e61565b60006005610ee1600184611e05565b81548110610ef157610ef1611dd9565b60009182526020909120600160099092020101546001600160a01b031692915050565b60028054610baa90611e61565b6001600160a01b0381166000908152600d6020908152604091829020805483518184028101840190945280845260609392830182828015610f8157602002820191906000526020600020905b815481526020019060010190808311610f6d575b50505050509050919050565b600554600090610f9e906001611e4e565b90506000604051806101400160405280838152602001336001600160a01b031681526020018981526020018881526020018781526020018681526020018581526020018481526020016000151581526020016000600281111561100357611003611a50565b90526005805460018101825560009190915281517f036b6384b5eca791c62761152d0c79bb0604c104a5fb6f4eb0703f3154bb3db0600990920291820190815560208301517f036b6384b5eca791c62761152d0c79bb0604c104a5fb6f4eb0703f3154bb3db1830180546001600160a01b0319166001600160a01b039092169190911790556040830151929350839290917f036b6384b5eca791c62761152d0c79bb0604c104a5fb6f4eb0703f3154bb3db201906110c19082611eea565b50606082015160038201906110d69082611eea565b506080820151600482015560a0820151600582015560c0820151600682015560e082015160078201556101008083015160088301805491151560ff1983168117825561012086015193919261ff001990911661ffff19909116179083600281111561114357611143611a50565b0217905550503360009081526007602090815260409182902084518155908401516001820180546001600160a01b0319166001600160a01b0390921691909117905590830151839250600282019061119b9082611eea565b50606082015160038201906111b09082611eea565b506080820151600482015560a0820151600582015560c0820151600682015560e082015160078201556101008083015160088301805491151560ff1983168117825561012086015193919261ff001990911661ffff19909116179083600281111561121d5761121d611a50565b0217905550506006805460018101825560009190915282517ff652222313e28459528d920b65115c16c04f3efc82aaedc97be59f3f377c0d3f600990920291820190815560208401517ff652222313e28459528d920b65115c16c04f3efc82aaedc97be59f3f377c0d40830180546001600160a01b0319166001600160a01b03909216919091179055604084015184935090917ff652222313e28459528d920b65115c16c04f3efc82aaedc97be59f3f377c0d4101906112dd9082611eea565b50606082015160038201906112f29082611eea565b506080820151600482015560a0820151600582015560c0820151600682015560e082015160078201556101008083015160088301805491151560ff1983168117825561012086015193919261ff001990911661ffff19909116179083600281111561135f5761135f611a50565b0217905550506040518381527f195c1bff7ad0c020d447b95b5458d5fef9c1c01f88f8682ee06bd178afa18538915060200160405180910390a1600b829055600880549060006113ae83611e35565b9190505550600a600960008282546113c69190611e4e565b90915550505050505050505050565b60608060008080808060056113eb60018a611e05565b815481106113fb576113fb611dd9565b9060005260206000209060090201600201600560018a61141b9190611e05565b8154811061142b5761142b611dd9565b9060005260206000209060090201600301600560018b61144b9190611e05565b8154811061145b5761145b611dd9565b906000526020600020906009020160040154600560018c61147c9190611e05565b8154811061148c5761148c611dd9565b906000526020600020906009020160050154600560018d6114ad9190611e05565b815481106114bd576114bd611dd9565b906000526020600020906009020160060154600560018e6114de9190611e05565b815481106114ee576114ee611dd9565b906000526020600020906009020160070154600560018f61150f9190611e05565b8154811061151f5761151f611dd9565b906000526020600020906009020160010160009054906101000a90046001600160a01b031686805461155090611e61565b80601f016020809104026020016040519081016040528092919081815260200182805461157c90611e61565b80156115c95780601f1061159e576101008083540402835291602001916115c9565b820191906000526020600020905b8154815290600101906020018083116115ac57829003601f168201915b505050505096508580546115dc90611e61565b80601f016020809104026020016040519081016040528092919081815260200182805461160890611e61565b80156116555780601f1061162a57610100808354040283529160200191611655565b820191906000526020600020905b81548152906001019060200180831161163857829003601f168201915b505050505095509650965096509650965096509650919395979092949650565b60068181548110610a2b57600080fd5b6005611692600183611e05565b815481106116a2576116a2611dd9565b9060005260206000209060090201600401543410156116f85760405162461bcd60e51b8152602060048201526012602482015271496e73756666696369656e742066756e647360701b6044820152606401610543565b600160056117068284611e05565b8154811061171657611716611dd9565b60009182526020808320600992909202909101600801805460ff191693151593909317909255338152600d8252604081208054600181810183559183529290912090910182905560059061176a9083611e05565b8154811061177a5761177a611dd9565b6000918252602090912060016009909202018101546001600160a01b0316906108fc906005906117aa9085611e05565b815481106117ba576117ba611dd9565b9060005260206000209060090201600401549081150290604051600060405180830381858888f193505050501580156117f7573d6000803e3d6000fd5b5050565b60038054610baa90611e61565b600d602052816000526040600020818154811061182457600080fd5b90600052602060002001600091509150505481565b6040805160a081018252868152602081018690529081018490526060810183905260808101829052600c8054600181018255600091909152815182916005027fdf6966c971051c3d54ec59162606531493a51404a002842f56009d7e5cf4a8c7019081906118a79082611eea565b50602082015160018201906118bc9082611eea565b50604082015160028201906118d19082611eea565b5060608201518160030155608082015181600401555050505050505050565b60008054610baa90611e61565b50805461190990611e61565b6000825580601f10611919575050565b601f016020900490600052602060002090810190611937919061193a565b50565b5b8082111561194f576000815560010161193b565b5090565b60006020828403121561196557600080fd5b5035919050565b6000815180845260005b8181101561199257602081850181015186830182015201611976565b506000602082860101526020601f19601f83011685010191505092915050565b60e0815260006119c560e083018a61196c565b82810360208401526119d7818a61196c565b604084019890985250506060810194909452608084019290925260a083015260c09091015292915050565b60a081526000611a1560a083018861196c565b8281036020840152611a27818861196c565b90508281036040840152611a3b818761196c565b60608401959095525050608001529392505050565b634e487b7160e01b600052602160045260246000fd5b8a81526001600160a01b038a16602082015261014060408201819052600090611a918382018c61196c565b90508281036060840152611aa5818b61196c565b9150508760808301528660a08301528560c08301528460e083015283151561010083015260038310611ae757634e487b7160e01b600052602160045260246000fd5b826101208301529b9a5050505050505050505050565b602081526000611b10602083018461196c565b9392505050565b80356001600160a01b0381168114611b2e57600080fd5b919050565b600060208284031215611b4557600080fd5b611b1082611b17565b6020808252825182820181905260009190848201906040850190845b81811015611b8657835183529284019291840191600101611b6a565b50909695505050505050565b634e487b7160e01b600052604160045260246000fd5b600082601f830112611bb957600080fd5b813567ffffffffffffffff80821115611bd457611bd4611b92565b604051601f8301601f19908116603f01168101908282118183101715611bfc57611bfc611b92565b81604052838152866020858801011115611c1557600080fd5b836020870160208301376000602085830101528094505050505092915050565b60008060008060008060c08789031215611c4e57600080fd5b863567ffffffffffffffff80821115611c6657600080fd5b611c728a838b01611ba8565b97506020890135915080821115611c8857600080fd5b50611c9589828a01611ba8565b96999698505050506040850135946060810135946080820135945060a09091013592509050565b60e081526000611ccf60e083018a61196c565b8281036020840152611ce1818a61196c565b604084019890985250506060810194909452608084019290925260a08301526001600160a01b031660c09091015292915050565b60008060408385031215611d2857600080fd5b611d3183611b17565b946020939093013593505050565b600080600080600060a08688031215611d5757600080fd5b853567ffffffffffffffff80821115611d6f57600080fd5b611d7b89838a01611ba8565b96506020880135915080821115611d9157600080fd5b611d9d89838a01611ba8565b95506040880135915080821115611db357600080fd5b50611dc088828901611ba8565b9598949750949560608101359550608001359392505050565b634e487b7160e01b600052603260045260246000fd5b634e487b7160e01b600052601160045260246000fd5b81810381811115611e1857611e18611def565b92915050565b600081611e2d57611e2d611def565b506000190190565b600060018201611e4757611e47611def565b5060010190565b80820180821115611e1857611e18611def565b600181811c90821680611e7557607f821691505b602082108103611e9557634e487b7160e01b600052602260045260246000fd5b50919050565b601f821115611ee557600081815260208120601f850160051c81016020861015611ec25750805b601f850160051c820191505b81811015611ee157828155600101611ece565b5050505b505050565b815167ffffffffffffffff811115611f0457611f04611b92565b611f1881611f128454611e61565b84611e9b565b602080601f831160018114611f4d5760008415611f355750858301515b600019600386901b1c1916600185901b178555611ee1565b600085815260208120601f198616915b82811015611f7c57888601518255948401946001909101908401611f5d565b5085821015611f9a5787850151600019600388901b60f8161c191681555b5050505050600190811b0190555056fea26469706673582212200aeb6079c7c7aedb9a1fd82a441a5c9c5c0dd9168106a9ed116e2fa7a166e25164736f6c63430008130033",
  "immutableReferences": {},
  "source": "// SPDX-License-Identifier: MIT\r\npragma solidity ^0.8.0;\r\n\r\nimport \"./RideContract.sol\";\r\n\r\ncontract BookingContract is RideContract {\r\n    mapping (address => uint[]) public userToRides;\r\n\r\n    function bookRide(uint _rideId) public payable {\r\n        require(msg.value >= rides[_rideId - 1].fare, \"Insufficient funds\");\r\n\r\n        rides[_rideId - 1].booked = true;\r\n        userToRides[msg.sender].push(_rideId);\r\n        payable(rides[_rideId - 1].driver).transfer(rides[_rideId - 1].fare);\r\n    }\r\n\r\n    function getRidesByUser(address _user) public view returns (uint[] memory) {\r\n        return userToRides[_user];\r\n    }\r\n    function getDriverAddress(uint256 _rideId)public view returns (address){\r\n        return rides[_rideId - 1].driver;\r\n    }\r\n}\r\n",
  "sourcePath": "D:\\Yugo - Final project\\yugo\\src\\contracts\\BookingContract.sol",
  "compiler": {
    "name": "solc",
    "version": "0.8.19+commit.7dd6d404.Emscripten.clang"
  },
  "schemaVersion": "3.4.13",
  "updatedAt": "2023-05-01T19:48:23.448Z",
  "networkType": "ethereum",
  "devdoc": {
    "kind": "dev",
    "methods": {},
    "version": 1
  },
  "userdoc": {
    "kind": "user",
    "methods": {},
    "version": 1
  }
}