{
  "contractName": "BookingContract",
  "abi": [
    {
      "anonymous": false,
      "inputs": [
        {
          "indexed": false,
          "internalType": "uint256",
          "name": "rideId",
          "type": "uint256"
        }
      ],
      "name": "NewRide",
      "type": "event"
    },
    {
      "inputs": [
        {
          "internalType": "string",
          "name": "_startLocation",
          "type": "string"
        },
        {
          "internalType": "string",
          "name": "_endLocation",
          "type": "string"
        },
        {
          "internalType": "uint256",
          "name": "_fare",
          "type": "uint256"
        },
        {
          "internalType": "uint256",
          "name": "_date",
          "type": "uint256"
        },
        {
          "internalType": "uint256",
          "name": "_time",
          "type": "uint256"
        },
        {
          "internalType": "uint256",
          "name": "_noofpass",
          "type": "uint256"
        }
      ],
      "name": "createRide",
      "outputs": [],
      "stateMutability": "nonpayable",
      "type": "function"
    },
    {
      "inputs": [
        {
          "internalType": "address",
          "name": "",
          "type": "address"
        }
      ],
      "name": "currentRide",
      "outputs": [
        {
          "internalType": "uint256",
          "name": "id",
          "type": "uint256"
        },
        {
          "internalType": "address",
          "name": "driver",
          "type": "address"
        },
        {
          "internalType": "string",
          "name": "startLocation",
          "type": "string"
        },
        {
          "internalType": "string",
          "name": "endLocation",
          "type": "string"
        },
        {
          "internalType": "uint256",
          "name": "fare",
          "type": "uint256"
        },
        {
          "internalType": "uint256",
          "name": "date",
          "type": "uint256"
        },
        {
          "internalType": "uint256",
          "name": "time",
          "type": "uint256"
        },
        {
          "internalType": "uint256",
          "name": "noofpass",
          "type": "uint256"
        },
        {
          "internalType": "bool",
          "name": "booked",
          "type": "bool"
        },
        {
          "internalType": "enum RideContract.RideStatus",
          "name": "status",
          "type": "uint8"
        }
      ],
      "stateMutability": "view",
      "type": "function",
      "constant": true
    },
    {
      "inputs": [
        {
          "internalType": "uint256",
          "name": "_rideId",
          "type": "uint256"
        }
      ],
      "name": "deleteRide",
      "outputs": [],
      "stateMutability": "nonpayable",
      "type": "function"
    },
    {
      "inputs": [
        {
          "internalType": "uint256",
          "name": "_id",
          "type": "uint256"
        }
      ],
      "name": "getDetails",
      "outputs": [
        {
          "internalType": "string",
          "name": "",
          "type": "string"
        },
        {
          "internalType": "string",
          "name": "",
          "type": "string"
        },
        {
          "internalType": "uint256",
          "name": "",
          "type": "uint256"
        },
        {
          "internalType": "uint256",
          "name": "",
          "type": "uint256"
        },
        {
          "internalType": "uint256",
          "name": "",
          "type": "uint256"
        },
        {
          "internalType": "uint256",
          "name": "",
          "type": "uint256"
        },
        {
          "internalType": "address",
          "name": "",
          "type": "address"
        }
      ],
      "stateMutability": "view",
      "type": "function",
      "constant": true
    },
    {
      "inputs": [
        {
          "internalType": "uint256",
          "name": "",
          "type": "uint256"
        }
      ],
      "name": "rides",
      "outputs": [
        {
          "internalType": "uint256",
          "name": "id",
          "type": "uint256"
        },
        {
          "internalType": "address",
          "name": "driver",
          "type": "address"
        },
        {
          "internalType": "string",
          "name": "startLocation",
          "type": "string"
        },
        {
          "internalType": "string",
          "name": "endLocation",
          "type": "string"
        },
        {
          "internalType": "uint256",
          "name": "fare",
          "type": "uint256"
        },
        {
          "internalType": "uint256",
          "name": "date",
          "type": "uint256"
        },
        {
          "internalType": "uint256",
          "name": "time",
          "type": "uint256"
        },
        {
          "internalType": "uint256",
          "name": "noofpass",
          "type": "uint256"
        },
        {
          "internalType": "bool",
          "name": "booked",
          "type": "bool"
        },
        {
          "internalType": "enum RideContract.RideStatus",
          "name": "status",
          "type": "uint8"
        }
      ],
      "stateMutability": "view",
      "type": "function",
      "constant": true
    },
    {
      "inputs": [
        {
          "internalType": "uint256",
          "name": "",
          "type": "uint256"
        }
      ],
      "name": "storedride",
      "outputs": [
        {
          "internalType": "uint256",
          "name": "id",
          "type": "uint256"
        },
        {
          "internalType": "address",
          "name": "driver",
          "type": "address"
        },
        {
          "internalType": "string",
          "name": "startLocation",
          "type": "string"
        },
        {
          "internalType": "string",
          "name": "endLocation",
          "type": "string"
        },
        {
          "internalType": "uint256",
          "name": "fare",
          "type": "uint256"
        },
        {
          "internalType": "uint256",
          "name": "date",
          "type": "uint256"
        },
        {
          "internalType": "uint256",
          "name": "time",
          "type": "uint256"
        },
        {
          "internalType": "uint256",
          "name": "noofpass",
          "type": "uint256"
        },
        {
          "internalType": "bool",
          "name": "booked",
          "type": "bool"
        },
        {
          "internalType": "enum RideContract.RideStatus",
          "name": "status",
          "type": "uint8"
        }
      ],
      "stateMutability": "view",
      "type": "function",
      "constant": true
    },
    {
      "inputs": [],
      "name": "totalRides",
      "outputs": [
        {
          "internalType": "uint256",
          "name": "",
          "type": "uint256"
        }
      ],
      "stateMutability": "view",
      "type": "function",
      "constant": true
    },
    {
      "inputs": [
        {
          "internalType": "address",
          "name": "",
          "type": "address"
        },
        {
          "internalType": "uint256",
          "name": "",
          "type": "uint256"
        }
      ],
      "name": "userToRides",
      "outputs": [
        {
          "internalType": "uint256",
          "name": "",
          "type": "uint256"
        }
      ],
      "stateMutability": "view",
      "type": "function",
      "constant": true
    },
    {
      "inputs": [
        {
          "internalType": "uint256",
          "name": "_rideId",
          "type": "uint256"
        }
      ],
      "name": "bookRide",
      "outputs": [],
      "stateMutability": "payable",
      "type": "function",
      "payable": true
    },
    {
      "inputs": [
        {
          "internalType": "address",
          "name": "_user",
          "type": "address"
        }
      ],
      "name": "getRidesByUser",
      "outputs": [
        {
          "internalType": "uint256[]",
          "name": "",
          "type": "uint256[]"
        }
      ],
      "stateMutability": "view",
      "type": "function",
      "constant": true
    },
    {
      "inputs": [
        {
          "internalType": "uint256",
          "name": "_rideId",
          "type": "uint256"
        }
      ],
      "name": "getDriverAddress",
      "outputs": [
        {
          "internalType": "address",
          "name": "",
          "type": "address"
        }
      ],
      "stateMutability": "view",
      "type": "function",
      "constant": true
    }
  ],
  "bytecode": "0x6080604052600060035534801561001557600080fd5b506112fe806100256000396000f3fe60806040526004361061009c5760003560e01c8063b34cad2111610064578063b34cad2114610187578063b93a89f7146101a7578063be69d9c2146101da578063c69b2cf6146101fa578063e0b05ea61461020d578063eb29de341461023157600080fd5b80633c70c157146100a15780635205f112146100c357806387bb2f53146101025780638fb7824914610122578063ad6e3b711461015a575b600080fd5b3480156100ad57600080fd5b506100c16100bc366004610dec565b610251565b005b3480156100cf57600080fd5b506100e36100de366004610dec565b6102d0565b6040516100f99a99989796959493929190610e61565b60405180910390f35b34801561010e57600080fd5b506100e361011d366004610f14565b610452565b34801561012e57600080fd5b5061014261013d366004610dec565b610485565b6040516001600160a01b0390911681526020016100f9565b34801561016657600080fd5b5061017a610175366004610f14565b6104c6565b6040516100f99190610f36565b34801561019357600080fd5b506100c16101a236600461101d565b610532565b3480156101b357600080fd5b506101c76101c2366004610dec565b610943565b6040516100f997969594939291906110a4565b3480156101e657600080fd5b506100e36101f5366004610dec565b610be2565b6100c1610208366004610dec565b610bf2565b34801561021957600080fd5b5061022360035481565b6040519081526020016100f9565b34801561023d57600080fd5b5061022361024c3660046110fd565b610d65565b6000818154811061026457610264611127565b6000918252602082206009909102018181556001810180546001600160a01b0319169055906102966002830182610d96565b6102a4600383016000610d96565b5060006004820181905560058201819055600682018190556007820155600801805461ffff1916905550565b600081815481106102e057600080fd5b60009182526020909120600990910201805460018201546002830180549294506001600160a01b0390911692916103169061113d565b80601f01602080910402602001604051908101604052809291908181526020018280546103429061113d565b801561038f5780601f106103645761010080835404028352916020019161038f565b820191906000526020600020905b81548152906001019060200180831161037257829003601f168201915b5050505050908060030180546103a49061113d565b80601f01602080910402602001604051908101604052809291908181526020018280546103d09061113d565b801561041d5780601f106103f25761010080835404028352916020019161041d565b820191906000526020600020905b81548152906001019060200180831161040057829003601f168201915b505050600484015460058501546006860154600787015460089097015495969295919450925060ff808216916101009004168a565b600260208190526000918252604090912080546001820154928201805491936001600160a01b031692916103169061113d565b60008061049360018461118d565b815481106104a3576104a3611127565b60009182526020909120600160099092020101546001600160a01b031692915050565b6001600160a01b03811660009081526004602090815260409182902080548351818402810184019094528084526060939283018282801561052657602002820191906000526020600020905b815481526020019060010190808311610512575b50505050509050919050565b600080546105419060016111a6565b90506000604051806101400160405280838152602001336001600160a01b03168152602001898152602001888152602001878152602001868152602001858152602001848152602001600015158152602001600060028111156105a6576105a6610e4b565b90526000805460018101825590805281517f290decd9548b62a8d60345a988386fc84ba6bc95484008f6362f93160ef3e563600990920291820190815560208301517f290decd9548b62a8d60345a988386fc84ba6bc95484008f6362f93160ef3e564830180546001600160a01b0319166001600160a01b039092169190911790556040830151929350839290917f290decd9548b62a8d60345a988386fc84ba6bc95484008f6362f93160ef3e56501906106619082611208565b50606082015160038201906106769082611208565b506080820151600482015560a0820151600582015560c0820151600682015560e082015160078201556101008083015160088301805491151560ff1983168117825561012086015193919261ff001990911661ffff1990911617908360028111156106e3576106e3610e4b565b0217905550503360009081526002602081815260409283902085518155908501516001820180546001600160a01b0319166001600160a01b03909216919091179055918401518493509082019061073a9082611208565b506060820151600382019061074f9082611208565b506080820151600482015560a0820151600582015560c0820151600682015560e082015160078201556101008083015160088301805491151560ff1983168117825561012086015193919261ff001990911661ffff1990911617908360028111156107bc576107bc610e4b565b02179055505060018054808201825560009190915282517fb10e2d527612073b26eecdfd717e6a320cf44b4afac2b0732d9fcbe2b7fa0cf6600990920291820190815560208401517fb10e2d527612073b26eecdfd717e6a320cf44b4afac2b0732d9fcbe2b7fa0cf7830180546001600160a01b0319166001600160a01b03909216919091179055604084015184935090917fb10e2d527612073b26eecdfd717e6a320cf44b4afac2b0732d9fcbe2b7fa0cf8019061087b9082611208565b50606082015160038201906108909082611208565b506080820151600482015560a0820151600582015560c0820151600682015560e082015160078201556101008083015160088301805491151560ff1983168117825561012086015193919261ff001990911661ffff1990911617908360028111156108fd576108fd610e4b565b0217905550506040518381527f195c1bff7ad0c020d447b95b5458d5fef9c1c01f88f8682ee06bd178afa18538915060200160405180910390a150600355505050505050565b6060806000808080808061095860018a61118d565b8154811061096857610968611127565b9060005260206000209060090201600201600060018a610988919061118d565b8154811061099857610998611127565b9060005260206000209060090201600301600060018b6109b8919061118d565b815481106109c8576109c8611127565b906000526020600020906009020160040154600060018c6109e9919061118d565b815481106109f9576109f9611127565b906000526020600020906009020160050154600060018d610a1a919061118d565b81548110610a2a57610a2a611127565b906000526020600020906009020160060154600060018e610a4b919061118d565b81548110610a5b57610a5b611127565b906000526020600020906009020160070154600060018f610a7c919061118d565b81548110610a8c57610a8c611127565b906000526020600020906009020160010160009054906101000a90046001600160a01b0316868054610abd9061113d565b80601f0160208091040260200160405190810160405280929190818152602001828054610ae99061113d565b8015610b365780601f10610b0b57610100808354040283529160200191610b36565b820191906000526020600020905b815481529060010190602001808311610b1957829003601f168201915b50505050509650858054610b499061113d565b80601f0160208091040260200160405190810160405280929190818152602001828054610b759061113d565b8015610bc25780601f10610b9757610100808354040283529160200191610bc2565b820191906000526020600020905b815481529060010190602001808311610ba557829003601f168201915b505050505095509650965096509650965096509650919395979092949650565b600181815481106102e057600080fd5b6000610bff60018361118d565b81548110610c0f57610c0f611127565b906000526020600020906009020160040154341015610c695760405162461bcd60e51b8152602060048201526012602482015271496e73756666696369656e742066756e647360701b604482015260640160405180910390fd5b60016000610c77828461118d565b81548110610c8757610c87611127565b60009182526020808320600992909202909101600801805460ff191693151593909317909255338152600482526040812080546001818101835591835292822090920183905590610cd8908361118d565b81548110610ce857610ce8611127565b60009182526020822060016009909202018101546001600160a01b0316916108fc91610d14908561118d565b81548110610d2457610d24611127565b9060005260206000209060090201600401549081150290604051600060405180830381858888f19350505050158015610d61573d6000803e3d6000fd5b5050565b60046020528160005260406000208181548110610d8157600080fd5b90600052602060002001600091509150505481565b508054610da29061113d565b6000825580601f10610db2575050565b601f016020900490600052602060002090810190610dd09190610dd3565b50565b5b80821115610de85760008155600101610dd4565b5090565b600060208284031215610dfe57600080fd5b5035919050565b6000815180845260005b81811015610e2b57602081850181015186830182015201610e0f565b506000602082860101526020601f19601f83011685010191505092915050565b634e487b7160e01b600052602160045260246000fd5b8a81526001600160a01b038a16602082015261014060408201819052600090610e8c8382018c610e05565b90508281036060840152610ea0818b610e05565b9150508760808301528660a08301528560c08301528460e083015283151561010083015260038310610ee257634e487b7160e01b600052602160045260246000fd5b826101208301529b9a5050505050505050505050565b80356001600160a01b0381168114610f0f57600080fd5b919050565b600060208284031215610f2657600080fd5b610f2f82610ef8565b9392505050565b6020808252825182820181905260009190848201906040850190845b81811015610f6e57835183529284019291840191600101610f52565b50909695505050505050565b634e487b7160e01b600052604160045260246000fd5b600082601f830112610fa157600080fd5b813567ffffffffffffffff80821115610fbc57610fbc610f7a565b604051601f8301601f19908116603f01168101908282118183101715610fe457610fe4610f7a565b81604052838152866020858801011115610ffd57600080fd5b836020870160208301376000602085830101528094505050505092915050565b60008060008060008060c0878903121561103657600080fd5b863567ffffffffffffffff8082111561104e57600080fd5b61105a8a838b01610f90565b9750602089013591508082111561107057600080fd5b5061107d89828a01610f90565b96999698505050506040850135946060810135946080820135945060a09091013592509050565b60e0815260006110b760e083018a610e05565b82810360208401526110c9818a610e05565b604084019890985250506060810194909452608084019290925260a08301526001600160a01b031660c09091015292915050565b6000806040838503121561111057600080fd5b61111983610ef8565b946020939093013593505050565b634e487b7160e01b600052603260045260246000fd5b600181811c9082168061115157607f821691505b60208210810361117157634e487b7160e01b600052602260045260246000fd5b50919050565b634e487b7160e01b600052601160045260246000fd5b818103818111156111a0576111a0611177565b92915050565b808201808211156111a0576111a0611177565b601f82111561120357600081815260208120601f850160051c810160208610156111e05750805b601f850160051c820191505b818110156111ff578281556001016111ec565b5050505b505050565b815167ffffffffffffffff81111561122257611222610f7a565b61123681611230845461113d565b846111b9565b602080601f83116001811461126b57600084156112535750858301515b600019600386901b1c1916600185901b1785556111ff565b600085815260208120601f198616915b8281101561129a5788860151825594840194600190910190840161127b565b50858210156112b85787850151600019600388901b60f8161c191681555b5050505050600190811b0190555056fea2646970667358221220654ac4d2e21e753e91349514de1e1d0b24d44eb3c09e6582f15fe285c5c0c01064736f6c63430008130033",
  "immutableReferences": {},
  "source": "// SPDX-License-Identifier: MIT\r\npragma solidity ^0.8.0;\r\n\r\nimport \"./RideContract.sol\";\r\n\r\ncontract BookingContract is RideContract {\r\n    mapping (address => uint[]) public userToRides;\r\n\r\n    function bookRide(uint _rideId) public payable {\r\n        require(msg.value >= rides[_rideId - 1].fare, \"Insufficient funds\");\r\n\r\n        rides[_rideId - 1].booked = true;\r\n        userToRides[msg.sender].push(_rideId);\r\n        payable(rides[_rideId - 1].driver).transfer(rides[_rideId - 1].fare);\r\n    }\r\n\r\n    function getRidesByUser(address _user) public view returns (uint[] memory) {\r\n        return userToRides[_user];\r\n    }\r\n    function getDriverAddress(uint256 _rideId)public view returns (address){\r\n        return rides[_rideId - 1].driver;\r\n    }\r\n}\r\n",
  "sourcePath": "D:\\Yugo - Final project\\yugo\\src\\contracts\\BookingContract.sol",
  "compiler": {
    "name": "solc",
    "version": "0.8.19+commit.7dd6d404.Emscripten.clang"
  },
  "schemaVersion": "3.4.13",
  "updatedAt": "2023-04-29T21:30:34.106Z",
  "networkType": "ethereum",
  "devdoc": {
    "kind": "dev",
    "methods": {},
    "version": 1
  },
  "userdoc": {
    "kind": "user",
    "methods": {},
    "version": 1
  }
}