{
  "contractName": "BookingContract",
  "abi": [
    {
      "anonymous": false,
      "inputs": [
        {
          "indexed": false,
          "internalType": "uint256",
          "name": "rideId",
          "type": "uint256"
        }
      ],
      "name": "NewRide",
      "type": "event"
    },
    {
      "inputs": [
        {
          "internalType": "string",
          "name": "_startLocation",
          "type": "string"
        },
        {
          "internalType": "string",
          "name": "_endLocation",
          "type": "string"
        },
        {
          "internalType": "uint256",
          "name": "_fare",
          "type": "uint256"
        },
        {
          "internalType": "uint256",
          "name": "_date",
          "type": "uint256"
        },
        {
          "internalType": "uint256",
          "name": "_time",
          "type": "uint256"
        },
        {
          "internalType": "uint256",
          "name": "_noofpass",
          "type": "uint256"
        }
      ],
      "name": "createRide",
      "outputs": [],
      "stateMutability": "nonpayable",
      "type": "function"
    },
    {
      "inputs": [
        {
          "internalType": "address",
          "name": "",
          "type": "address"
        }
      ],
      "name": "currentRide",
      "outputs": [
        {
          "internalType": "uint256",
          "name": "id",
          "type": "uint256"
        },
        {
          "internalType": "address",
          "name": "driver",
          "type": "address"
        },
        {
          "internalType": "string",
          "name": "startLocation",
          "type": "string"
        },
        {
          "internalType": "string",
          "name": "endLocation",
          "type": "string"
        },
        {
          "internalType": "uint256",
          "name": "fare",
          "type": "uint256"
        },
        {
          "internalType": "uint256",
          "name": "date",
          "type": "uint256"
        },
        {
          "internalType": "uint256",
          "name": "time",
          "type": "uint256"
        },
        {
          "internalType": "uint256",
          "name": "noofpass",
          "type": "uint256"
        },
        {
          "internalType": "bool",
          "name": "booked",
          "type": "bool"
        },
        {
          "internalType": "enum RideContract.RideStatus",
          "name": "status",
          "type": "uint8"
        }
      ],
      "stateMutability": "view",
      "type": "function",
      "constant": true
    },
    {
      "inputs": [
        {
          "internalType": "uint256",
          "name": "_rideId",
          "type": "uint256"
        }
      ],
      "name": "decrementSeats",
      "outputs": [
        {
          "internalType": "uint256",
          "name": "",
          "type": "uint256"
        }
      ],
      "stateMutability": "nonpayable",
      "type": "function"
    },
    {
      "inputs": [
        {
          "internalType": "uint256",
          "name": "_rideId",
          "type": "uint256"
        }
      ],
      "name": "deleteRide",
      "outputs": [],
      "stateMutability": "nonpayable",
      "type": "function"
    },
    {
      "inputs": [
        {
          "internalType": "uint256",
          "name": "_id",
          "type": "uint256"
        }
      ],
      "name": "getDetails",
      "outputs": [
        {
          "internalType": "string",
          "name": "",
          "type": "string"
        },
        {
          "internalType": "string",
          "name": "",
          "type": "string"
        },
        {
          "internalType": "uint256",
          "name": "",
          "type": "uint256"
        },
        {
          "internalType": "uint256",
          "name": "",
          "type": "uint256"
        },
        {
          "internalType": "uint256",
          "name": "",
          "type": "uint256"
        },
        {
          "internalType": "uint256",
          "name": "",
          "type": "uint256"
        },
        {
          "internalType": "address",
          "name": "",
          "type": "address"
        }
      ],
      "stateMutability": "view",
      "type": "function",
      "constant": true
    },
    {
      "inputs": [
        {
          "internalType": "uint256",
          "name": "",
          "type": "uint256"
        }
      ],
      "name": "rides",
      "outputs": [
        {
          "internalType": "uint256",
          "name": "id",
          "type": "uint256"
        },
        {
          "internalType": "address",
          "name": "driver",
          "type": "address"
        },
        {
          "internalType": "string",
          "name": "startLocation",
          "type": "string"
        },
        {
          "internalType": "string",
          "name": "endLocation",
          "type": "string"
        },
        {
          "internalType": "uint256",
          "name": "fare",
          "type": "uint256"
        },
        {
          "internalType": "uint256",
          "name": "date",
          "type": "uint256"
        },
        {
          "internalType": "uint256",
          "name": "time",
          "type": "uint256"
        },
        {
          "internalType": "uint256",
          "name": "noofpass",
          "type": "uint256"
        },
        {
          "internalType": "bool",
          "name": "booked",
          "type": "bool"
        },
        {
          "internalType": "enum RideContract.RideStatus",
          "name": "status",
          "type": "uint8"
        }
      ],
      "stateMutability": "view",
      "type": "function",
      "constant": true
    },
    {
      "inputs": [
        {
          "internalType": "uint256",
          "name": "",
          "type": "uint256"
        }
      ],
      "name": "storedride",
      "outputs": [
        {
          "internalType": "uint256",
          "name": "id",
          "type": "uint256"
        },
        {
          "internalType": "address",
          "name": "driver",
          "type": "address"
        },
        {
          "internalType": "string",
          "name": "startLocation",
          "type": "string"
        },
        {
          "internalType": "string",
          "name": "endLocation",
          "type": "string"
        },
        {
          "internalType": "uint256",
          "name": "fare",
          "type": "uint256"
        },
        {
          "internalType": "uint256",
          "name": "date",
          "type": "uint256"
        },
        {
          "internalType": "uint256",
          "name": "time",
          "type": "uint256"
        },
        {
          "internalType": "uint256",
          "name": "noofpass",
          "type": "uint256"
        },
        {
          "internalType": "bool",
          "name": "booked",
          "type": "bool"
        },
        {
          "internalType": "enum RideContract.RideStatus",
          "name": "status",
          "type": "uint8"
        }
      ],
      "stateMutability": "view",
      "type": "function",
      "constant": true
    },
    {
      "inputs": [],
      "name": "totalRides",
      "outputs": [
        {
          "internalType": "uint256",
          "name": "",
          "type": "uint256"
        }
      ],
      "stateMutability": "view",
      "type": "function",
      "constant": true
    },
    {
      "inputs": [
        {
          "internalType": "address",
          "name": "",
          "type": "address"
        },
        {
          "internalType": "uint256",
          "name": "",
          "type": "uint256"
        }
      ],
      "name": "userToRides",
      "outputs": [
        {
          "internalType": "uint256",
          "name": "",
          "type": "uint256"
        }
      ],
      "stateMutability": "view",
      "type": "function",
      "constant": true
    },
    {
      "inputs": [
        {
          "internalType": "uint256",
          "name": "_rideId",
          "type": "uint256"
        }
      ],
      "name": "bookRide",
      "outputs": [],
      "stateMutability": "payable",
      "type": "function",
      "payable": true
    },
    {
      "inputs": [
        {
          "internalType": "address",
          "name": "_user",
          "type": "address"
        }
      ],
      "name": "getRidesByUser",
      "outputs": [
        {
          "internalType": "uint256[]",
          "name": "",
          "type": "uint256[]"
        }
      ],
      "stateMutability": "view",
      "type": "function",
      "constant": true
    },
    {
      "inputs": [
        {
          "internalType": "uint256",
          "name": "_rideId",
          "type": "uint256"
        }
      ],
      "name": "getDriverAddress",
      "outputs": [
        {
          "internalType": "address",
          "name": "",
          "type": "address"
        }
      ],
      "stateMutability": "view",
      "type": "function",
      "constant": true
    }
  ],
  "bytecode": "0x6080604052600060035534801561001557600080fd5b5061145f806100256000396000f3fe6080604052600436106100a75760003560e01c8063b34cad2111610064578063b34cad21146101bc578063b93a89f7146101dc578063be69d9c21461020f578063c69b2cf61461022f578063e0b05ea614610242578063eb29de341461025857600080fd5b80633c70c157146100ac57806346afbcfc146100ce5780635205f1121461010157806387bb2f53146101375780638fb7824914610157578063ad6e3b711461018f575b600080fd5b3480156100b857600080fd5b506100cc6100c7366004610f36565b610278565b005b3480156100da57600080fd5b506100ee6100e9366004610f36565b6102f7565b6040519081526020015b60405180910390f35b34801561010d57600080fd5b5061012161011c366004610f36565b61041e565b6040516100f89a99989796959493929190610fab565b34801561014357600080fd5b5061012161015236600461105e565b6105a0565b34801561016357600080fd5b50610177610172366004610f36565b6105d3565b6040516001600160a01b0390911681526020016100f8565b34801561019b57600080fd5b506101af6101aa36600461105e565b610614565b6040516100f89190611080565b3480156101c857600080fd5b506100cc6101d7366004611167565b610680565b3480156101e857600080fd5b506101fc6101f7366004610f36565b610a91565b6040516100f897969594939291906111ee565b34801561021b57600080fd5b5061012161022a366004610f36565b610d30565b6100cc61023d366004610f36565b610d40565b34801561024e57600080fd5b506100ee60035481565b34801561026457600080fd5b506100ee610273366004611247565b610eaf565b6000818154811061028b5761028b611271565b6000918252602082206009909102018181556001810180546001600160a01b0319169055906102bd6002830182610ee0565b6102cb600383016000610ee0565b5060006004820181905560058201819055600682018190556007820155600801805461ffff1916905550565b6000808211801561030a57506000548211155b61034d5760405162461bcd60e51b815260206004820152600f60248201526e125b9d985b1a59081c9a5919481251608a1b60448201526064015b60405180910390fd5b60008061035b60018561129d565b8154811061036b5761036b611271565b9060005260206000209060090201905060008160070154116103cf5760405162461bcd60e51b815260206004820152601a60248201527f4e6f20617661696c61626c6520736561747320696e20726964650000000000006044820152606401610344565b6007810180549060006103e1836112b6565b90915550600090506103f460018561129d565b8154811061040457610404611271565b906000526020600020906009020160070154915050919050565b6000818154811061042e57600080fd5b60009182526020909120600990910201805460018201546002830180549294506001600160a01b039091169291610464906112cd565b80601f0160208091040260200160405190810160405280929190818152602001828054610490906112cd565b80156104dd5780601f106104b2576101008083540402835291602001916104dd565b820191906000526020600020905b8154815290600101906020018083116104c057829003601f168201915b5050505050908060030180546104f2906112cd565b80601f016020809104026020016040519081016040528092919081815260200182805461051e906112cd565b801561056b5780601f106105405761010080835404028352916020019161056b565b820191906000526020600020905b81548152906001019060200180831161054e57829003601f168201915b505050600484015460058501546006860154600787015460089097015495969295919450925060ff808216916101009004168a565b600260208190526000918252604090912080546001820154928201805491936001600160a01b03169291610464906112cd565b6000806105e160018461129d565b815481106105f1576105f1611271565b60009182526020909120600160099092020101546001600160a01b031692915050565b6001600160a01b03811660009081526004602090815260409182902080548351818402810184019094528084526060939283018282801561067457602002820191906000526020600020905b815481526020019060010190808311610660575b50505050509050919050565b6000805461068f906001611307565b90506000604051806101400160405280838152602001336001600160a01b03168152602001898152602001888152602001878152602001868152602001858152602001848152602001600015158152602001600060028111156106f4576106f4610f95565b90526000805460018101825590805281517f290decd9548b62a8d60345a988386fc84ba6bc95484008f6362f93160ef3e563600990920291820190815560208301517f290decd9548b62a8d60345a988386fc84ba6bc95484008f6362f93160ef3e564830180546001600160a01b0319166001600160a01b039092169190911790556040830151929350839290917f290decd9548b62a8d60345a988386fc84ba6bc95484008f6362f93160ef3e56501906107af9082611369565b50606082015160038201906107c49082611369565b506080820151600482015560a0820151600582015560c0820151600682015560e082015160078201556101008083015160088301805491151560ff1983168117825561012086015193919261ff001990911661ffff19909116179083600281111561083157610831610f95565b0217905550503360009081526002602081815260409283902085518155908501516001820180546001600160a01b0319166001600160a01b0390921691909117905591840151849350908201906108889082611369565b506060820151600382019061089d9082611369565b506080820151600482015560a0820151600582015560c0820151600682015560e082015160078201556101008083015160088301805491151560ff1983168117825561012086015193919261ff001990911661ffff19909116179083600281111561090a5761090a610f95565b02179055505060018054808201825560009190915282517fb10e2d527612073b26eecdfd717e6a320cf44b4afac2b0732d9fcbe2b7fa0cf6600990920291820190815560208401517fb10e2d527612073b26eecdfd717e6a320cf44b4afac2b0732d9fcbe2b7fa0cf7830180546001600160a01b0319166001600160a01b03909216919091179055604084015184935090917fb10e2d527612073b26eecdfd717e6a320cf44b4afac2b0732d9fcbe2b7fa0cf801906109c99082611369565b50606082015160038201906109de9082611369565b506080820151600482015560a0820151600582015560c0820151600682015560e082015160078201556101008083015160088301805491151560ff1983168117825561012086015193919261ff001990911661ffff199091161790836002811115610a4b57610a4b610f95565b0217905550506040518381527f195c1bff7ad0c020d447b95b5458d5fef9c1c01f88f8682ee06bd178afa18538915060200160405180910390a150600355505050505050565b60608060008080808080610aa660018a61129d565b81548110610ab657610ab6611271565b9060005260206000209060090201600201600060018a610ad6919061129d565b81548110610ae657610ae6611271565b9060005260206000209060090201600301600060018b610b06919061129d565b81548110610b1657610b16611271565b906000526020600020906009020160040154600060018c610b37919061129d565b81548110610b4757610b47611271565b906000526020600020906009020160050154600060018d610b68919061129d565b81548110610b7857610b78611271565b906000526020600020906009020160060154600060018e610b99919061129d565b81548110610ba957610ba9611271565b906000526020600020906009020160070154600060018f610bca919061129d565b81548110610bda57610bda611271565b906000526020600020906009020160010160009054906101000a90046001600160a01b0316868054610c0b906112cd565b80601f0160208091040260200160405190810160405280929190818152602001828054610c37906112cd565b8015610c845780601f10610c5957610100808354040283529160200191610c84565b820191906000526020600020905b815481529060010190602001808311610c6757829003601f168201915b50505050509650858054610c97906112cd565b80601f0160208091040260200160405190810160405280929190818152602001828054610cc3906112cd565b8015610d105780601f10610ce557610100808354040283529160200191610d10565b820191906000526020600020905b815481529060010190602001808311610cf357829003601f168201915b505050505095509650965096509650965096509650919395979092949650565b6001818154811061042e57600080fd5b6000610d4d60018361129d565b81548110610d5d57610d5d611271565b906000526020600020906009020160040154341015610db35760405162461bcd60e51b8152602060048201526012602482015271496e73756666696369656e742066756e647360701b6044820152606401610344565b60016000610dc1828461129d565b81548110610dd157610dd1611271565b60009182526020808320600992909202909101600801805460ff191693151593909317909255338152600482526040812080546001818101835591835292822090920183905590610e22908361129d565b81548110610e3257610e32611271565b60009182526020822060016009909202018101546001600160a01b0316916108fc91610e5e908561129d565b81548110610e6e57610e6e611271565b9060005260206000209060090201600401549081150290604051600060405180830381858888f19350505050158015610eab573d6000803e3d6000fd5b5050565b60046020528160005260406000208181548110610ecb57600080fd5b90600052602060002001600091509150505481565b508054610eec906112cd565b6000825580601f10610efc575050565b601f016020900490600052602060002090810190610f1a9190610f1d565b50565b5b80821115610f325760008155600101610f1e565b5090565b600060208284031215610f4857600080fd5b5035919050565b6000815180845260005b81811015610f7557602081850181015186830182015201610f59565b506000602082860101526020601f19601f83011685010191505092915050565b634e487b7160e01b600052602160045260246000fd5b8a81526001600160a01b038a16602082015261014060408201819052600090610fd68382018c610f4f565b90508281036060840152610fea818b610f4f565b9150508760808301528660a08301528560c08301528460e08301528315156101008301526003831061102c57634e487b7160e01b600052602160045260246000fd5b826101208301529b9a5050505050505050505050565b80356001600160a01b038116811461105957600080fd5b919050565b60006020828403121561107057600080fd5b61107982611042565b9392505050565b6020808252825182820181905260009190848201906040850190845b818110156110b85783518352928401929184019160010161109c565b50909695505050505050565b634e487b7160e01b600052604160045260246000fd5b600082601f8301126110eb57600080fd5b813567ffffffffffffffff80821115611106576111066110c4565b604051601f8301601f19908116603f0116810190828211818310171561112e5761112e6110c4565b8160405283815286602085880101111561114757600080fd5b836020870160208301376000602085830101528094505050505092915050565b60008060008060008060c0878903121561118057600080fd5b863567ffffffffffffffff8082111561119857600080fd5b6111a48a838b016110da565b975060208901359150808211156111ba57600080fd5b506111c789828a016110da565b96999698505050506040850135946060810135946080820135945060a09091013592509050565b60e08152600061120160e083018a610f4f565b8281036020840152611213818a610f4f565b604084019890985250506060810194909452608084019290925260a08301526001600160a01b031660c09091015292915050565b6000806040838503121561125a57600080fd5b61126383611042565b946020939093013593505050565b634e487b7160e01b600052603260045260246000fd5b634e487b7160e01b600052601160045260246000fd5b818103818111156112b0576112b0611287565b92915050565b6000816112c5576112c5611287565b506000190190565b600181811c908216806112e157607f821691505b60208210810361130157634e487b7160e01b600052602260045260246000fd5b50919050565b808201808211156112b0576112b0611287565b601f82111561136457600081815260208120601f850160051c810160208610156113415750805b601f850160051c820191505b818110156113605782815560010161134d565b5050505b505050565b815167ffffffffffffffff811115611383576113836110c4565b6113978161139184546112cd565b8461131a565b602080601f8311600181146113cc57600084156113b45750858301515b600019600386901b1c1916600185901b178555611360565b600085815260208120601f198616915b828110156113fb578886015182559484019460019091019084016113dc565b50858210156114195787850151600019600388901b60f8161c191681555b5050505050600190811b0190555056fea26469706673582212205c964cd2f67ebe289ed98fba7ee2d0b363a9ca87673fbb7dc85f2fc83ca925ff64736f6c63430008130033",
  "immutableReferences": {},
  "source": "// SPDX-License-Identifier: MIT\r\npragma solidity ^0.8.0;\r\n\r\nimport \"./RideContract.sol\";\r\n\r\ncontract BookingContract is RideContract {\r\n    mapping (address => uint[]) public userToRides;\r\n\r\n    function bookRide(uint _rideId) public payable {\r\n        require(msg.value >= rides[_rideId - 1].fare, \"Insufficient funds\");\r\n\r\n        rides[_rideId - 1].booked = true;\r\n        userToRides[msg.sender].push(_rideId);\r\n        payable(rides[_rideId - 1].driver).transfer(rides[_rideId - 1].fare);\r\n    }\r\n\r\n    function getRidesByUser(address _user) public view returns (uint[] memory) {\r\n        return userToRides[_user];\r\n    }\r\n    function getDriverAddress(uint256 _rideId)public view returns (address){\r\n        return rides[_rideId - 1].driver;\r\n    }\r\n}\r\n",
  "sourcePath": "D:\\Yugo_Blockchain\\src\\contracts\\BookingContract.sol",
  "compiler": {
    "name": "solc",
    "version": "0.8.19+commit.7dd6d404.Emscripten.clang"
  },
  "schemaVersion": "3.4.12",
  "updatedAt": "2023-04-30T14:16:07.761Z",
  "networkType": "ethereum",
  "devdoc": {
    "kind": "dev",
    "methods": {},
    "version": 1
  },
  "userdoc": {
    "kind": "user",
    "methods": {},
    "version": 1
  }
}