{
  "contractName": "BookingContract",
  "abi": [
    {
      "anonymous": false,
      "inputs": [
        {
          "indexed": false,
          "internalType": "uint256",
          "name": "rideId",
          "type": "uint256"
        }
      ],
      "name": "NewRide",
      "type": "event"
    },
    {
      "inputs": [
        {
          "internalType": "string",
          "name": "_startLocation",
          "type": "string"
        },
        {
          "internalType": "string",
          "name": "_endLocation",
          "type": "string"
        },
        {
          "internalType": "uint256",
          "name": "_fare",
          "type": "uint256"
        },
        {
          "internalType": "uint256",
          "name": "_date",
          "type": "uint256"
        },
        {
          "internalType": "uint256",
          "name": "_time",
          "type": "uint256"
        }
      ],
      "name": "createRide",
      "outputs": [],
      "stateMutability": "nonpayable",
      "type": "function"
    },
    {
      "inputs": [
        {
          "internalType": "address",
          "name": "",
          "type": "address"
        }
      ],
      "name": "currentRide",
      "outputs": [
        {
          "internalType": "uint256",
          "name": "id",
          "type": "uint256"
        },
        {
          "internalType": "address",
          "name": "driver",
          "type": "address"
        },
        {
          "internalType": "string",
          "name": "startLocation",
          "type": "string"
        },
        {
          "internalType": "string",
          "name": "endLocation",
          "type": "string"
        },
        {
          "internalType": "uint256",
          "name": "fare",
          "type": "uint256"
        },
        {
          "internalType": "uint256",
          "name": "date",
          "type": "uint256"
        },
        {
          "internalType": "uint256",
          "name": "time",
          "type": "uint256"
        },
        {
          "internalType": "bool",
          "name": "booked",
          "type": "bool"
        },
        {
          "internalType": "enum RideContract.RideStatus",
          "name": "status",
          "type": "uint8"
        }
      ],
      "stateMutability": "view",
      "type": "function"
    },
    {
      "inputs": [
        {
          "internalType": "uint256",
          "name": "_rideId",
          "type": "uint256"
        }
      ],
      "name": "deleteRide",
      "outputs": [],
      "stateMutability": "nonpayable",
      "type": "function"
    },
    {
      "inputs": [
        {
          "internalType": "uint256",
          "name": "_id",
          "type": "uint256"
        }
      ],
      "name": "getDetails",
      "outputs": [
        {
          "internalType": "string",
          "name": "",
          "type": "string"
        },
        {
          "internalType": "string",
          "name": "",
          "type": "string"
        },
        {
          "internalType": "uint256",
          "name": "",
          "type": "uint256"
        },
        {
          "internalType": "uint256",
          "name": "",
          "type": "uint256"
        },
        {
          "internalType": "uint256",
          "name": "",
          "type": "uint256"
        }
      ],
      "stateMutability": "view",
      "type": "function"
    },
    {
      "inputs": [
        {
          "internalType": "uint256",
          "name": "",
          "type": "uint256"
        }
      ],
      "name": "rides",
      "outputs": [
        {
          "internalType": "uint256",
          "name": "id",
          "type": "uint256"
        },
        {
          "internalType": "address",
          "name": "driver",
          "type": "address"
        },
        {
          "internalType": "string",
          "name": "startLocation",
          "type": "string"
        },
        {
          "internalType": "string",
          "name": "endLocation",
          "type": "string"
        },
        {
          "internalType": "uint256",
          "name": "fare",
          "type": "uint256"
        },
        {
          "internalType": "uint256",
          "name": "date",
          "type": "uint256"
        },
        {
          "internalType": "uint256",
          "name": "time",
          "type": "uint256"
        },
        {
          "internalType": "bool",
          "name": "booked",
          "type": "bool"
        },
        {
          "internalType": "enum RideContract.RideStatus",
          "name": "status",
          "type": "uint8"
        }
      ],
      "stateMutability": "view",
      "type": "function"
    },
    {
      "inputs": [
        {
          "internalType": "uint256",
          "name": "",
          "type": "uint256"
        }
      ],
      "name": "storedride",
      "outputs": [
        {
          "internalType": "uint256",
          "name": "id",
          "type": "uint256"
        },
        {
          "internalType": "address",
          "name": "driver",
          "type": "address"
        },
        {
          "internalType": "string",
          "name": "startLocation",
          "type": "string"
        },
        {
          "internalType": "string",
          "name": "endLocation",
          "type": "string"
        },
        {
          "internalType": "uint256",
          "name": "fare",
          "type": "uint256"
        },
        {
          "internalType": "uint256",
          "name": "date",
          "type": "uint256"
        },
        {
          "internalType": "uint256",
          "name": "time",
          "type": "uint256"
        },
        {
          "internalType": "bool",
          "name": "booked",
          "type": "bool"
        },
        {
          "internalType": "enum RideContract.RideStatus",
          "name": "status",
          "type": "uint8"
        }
      ],
      "stateMutability": "view",
      "type": "function"
    },
    {
      "inputs": [],
      "name": "totalRides",
      "outputs": [
        {
          "internalType": "uint256",
          "name": "",
          "type": "uint256"
        }
      ],
      "stateMutability": "view",
      "type": "function"
    },
    {
      "inputs": [
        {
          "internalType": "address",
          "name": "",
          "type": "address"
        },
        {
          "internalType": "uint256",
          "name": "",
          "type": "uint256"
        }
      ],
      "name": "userToRides",
      "outputs": [
        {
          "internalType": "uint256",
          "name": "",
          "type": "uint256"
        }
      ],
      "stateMutability": "view",
      "type": "function"
    },
    {
      "inputs": [
        {
          "internalType": "uint256",
          "name": "_rideId",
          "type": "uint256"
        }
      ],
      "name": "bookRide",
      "outputs": [],
      "stateMutability": "payable",
      "type": "function"
    },
    {
      "inputs": [
        {
          "internalType": "address",
          "name": "_user",
          "type": "address"
        }
      ],
      "name": "getRidesByUser",
      "outputs": [
        {
          "internalType": "uint256[]",
          "name": "",
          "type": "uint256[]"
        }
      ],
      "stateMutability": "view",
      "type": "function"
    },
    {
      "inputs": [
        {
          "internalType": "uint256",
          "name": "_rideId",
          "type": "uint256"
        }
      ],
      "name": "getDriverAddress",
      "outputs": [
        {
          "internalType": "address",
          "name": "",
          "type": "address"
        }
      ],
      "stateMutability": "view",
      "type": "function"
    }
  ],
  "bytecode": "0x6080604052600060035534801561001557600080fd5b506111f5806100256000396000f3fe60806040526004361061009c5760003560e01c8063ad6e3b7111610064578063ad6e3b7114610179578063b93a89f7146101a6578063be69d9c2146101d7578063c69b2cf6146101f7578063e0b05ea61461020a578063eb29de341461022e57600080fd5b80632c0dd4e5146100a15780633c70c157146100c35780635205f112146100e357806387bb2f53146101215780638fb7824914610141575b600080fd5b3480156100ad57600080fd5b506100c16100bc366004610dac565b61024e565b005b3480156100cf57600080fd5b506100c16100de366004610e2b565b61063a565b3480156100ef57600080fd5b506101036100fe366004610e2b565b6106b2565b60405161011899989796959493929190610ea0565b60405180910390f35b34801561012d57600080fd5b5061010361013c366004610f4b565b61082e565b34801561014d57600080fd5b5061016161015c366004610e2b565b610861565b6040516001600160a01b039091168152602001610118565b34801561018557600080fd5b50610199610194366004610f4b565b6108a2565b6040516101189190610f6d565b3480156101b257600080fd5b506101c66101c1366004610e2b565b61090e565b604051610118959493929190610fb1565b3480156101e357600080fd5b506101036101f2366004610e2b565b610b2f565b6100c1610205366004610e2b565b610b3f565b34801561021657600080fd5b5061022060035481565b604051908152602001610118565b34801561023a57600080fd5b50610220610249366004610ff4565b610c82565b6000805461025d906001611034565b90506000604051806101200160405280838152602001336001600160a01b03168152602001888152602001878152602001868152602001858152602001848152602001600015158152602001600060028111156102bc576102bc610e8a565b90526000805460018101825590805281517f290decd9548b62a8d60345a988386fc84ba6bc95484008f6362f93160ef3e563600890920291820190815560208301517f290decd9548b62a8d60345a988386fc84ba6bc95484008f6362f93160ef3e564830180546001600160a01b0319166001600160a01b039092169190911790556040830151929350839290917f290decd9548b62a8d60345a988386fc84ba6bc95484008f6362f93160ef3e565019061037790826110d6565b506060820151600382019061038c90826110d6565b506080820151600482015560a0820151600582015560c0820151600682015560e082015160078201805491151560ff19831681178255610100808601519361ff001990921661ffff1990921691909117908360028111156103ef576103ef610e8a565b0217905550503360009081526002602081815260409283902085518155908501516001820180546001600160a01b0319166001600160a01b03909216919091179055918401518493509082019061044690826110d6565b506060820151600382019061045b90826110d6565b506080820151600482015560a0820151600582015560c0820151600682015560e082015160078201805491151560ff19831681178255610100808601519361ff001990921661ffff1990921691909117908360028111156104be576104be610e8a565b02179055505060018054808201825560009190915282517fb10e2d527612073b26eecdfd717e6a320cf44b4afac2b0732d9fcbe2b7fa0cf6600890920291820190815560208401517fb10e2d527612073b26eecdfd717e6a320cf44b4afac2b0732d9fcbe2b7fa0cf7830180546001600160a01b0319166001600160a01b03909216919091179055604084015184935090917fb10e2d527612073b26eecdfd717e6a320cf44b4afac2b0732d9fcbe2b7fa0cf8019061057d90826110d6565b506060820151600382019061059290826110d6565b506080820151600482015560a0820151600582015560c0820151600682015560e082015160078201805491151560ff19831681178255610100808601519361ff001990921661ffff1990921691909117908360028111156105f5576105f5610e8a565b0217905550506040518381527f195c1bff7ad0c020d447b95b5458d5fef9c1c01f88f8682ee06bd178afa18538915060200160405180910390a1506003555050505050565b6000818154811061064d5761064d611196565b6000918252602082206008909102018181556001810180546001600160a01b03191690559061067f6002830182610cb3565b61068d600383016000610cb3565b50600060048201819055600582018190556006820155600701805461ffff1916905550565b600081815481106106c257600080fd5b60009182526020909120600890910201805460018201546002830180549294506001600160a01b0390911692916106f89061104d565b80601f01602080910402602001604051908101604052809291908181526020018280546107249061104d565b80156107715780601f1061074657610100808354040283529160200191610771565b820191906000526020600020905b81548152906001019060200180831161075457829003601f168201915b5050505050908060030180546107869061104d565b80601f01602080910402602001604051908101604052809291908181526020018280546107b29061104d565b80156107ff5780601f106107d4576101008083540402835291602001916107ff565b820191906000526020600020905b8154815290600101906020018083116107e257829003601f168201915b505050506004830154600584015460068501546007909501549394919390925060ff8082169161010090041689565b600260208190526000918252604090912080546001820154928201805491936001600160a01b031692916106f89061104d565b60008061086f6001846111ac565b8154811061087f5761087f611196565b60009182526020909120600160089092020101546001600160a01b031692915050565b6001600160a01b03811660009081526004602090815260409182902080548351818402810184019094528084526060939283018282801561090257602002820191906000526020600020905b8154815260200190600101908083116108ee575b50505050509050919050565b60608060008080806109216001886111ac565b8154811061093157610931611196565b9060005260206000209060080201600201600060018861095191906111ac565b8154811061096157610961611196565b9060005260206000209060080201600301600060018961098191906111ac565b8154811061099157610991611196565b906000526020600020906008020160040154600060018a6109b291906111ac565b815481106109c2576109c2611196565b906000526020600020906008020160050154600060018b6109e391906111ac565b815481106109f3576109f3611196565b906000526020600020906008020160060154848054610a119061104d565b80601f0160208091040260200160405190810160405280929190818152602001828054610a3d9061104d565b8015610a8a5780601f10610a5f57610100808354040283529160200191610a8a565b820191906000526020600020905b815481529060010190602001808311610a6d57829003601f168201915b50505050509450838054610a9d9061104d565b80601f0160208091040260200160405190810160405280929190818152602001828054610ac99061104d565b8015610b165780601f10610aeb57610100808354040283529160200191610b16565b820191906000526020600020905b815481529060010190602001808311610af957829003601f168201915b50989f939e50959c50939a509198509650505050505050565b600181815481106106c257600080fd5b6000610b4c6001836111ac565b81548110610b5c57610b5c611196565b906000526020600020906008020160040154341015610bb65760405162461bcd60e51b8152602060048201526012602482015271496e73756666696369656e742066756e647360701b604482015260640160405180910390fd5b60016000610bc482846111ac565b81548110610bd457610bd4611196565b60009182526020808320600892909202909101600701805460ff191693151593909317909255338152600482526040812080546001818101835591835292822090920183905590610c2590836111ac565b81548110610c3557610c35611196565b600091825260208220600160089092020101546040516001600160a01b03909116913480156108fc02929091818181858888f19350505050158015610c7e573d6000803e3d6000fd5b5050565b60046020528160005260406000208181548110610c9e57600080fd5b90600052602060002001600091509150505481565b508054610cbf9061104d565b6000825580601f10610ccf575050565b601f016020900490600052602060002090810190610ced9190610cf0565b50565b5b80821115610d055760008155600101610cf1565b5090565b634e487b7160e01b600052604160045260246000fd5b600082601f830112610d3057600080fd5b813567ffffffffffffffff80821115610d4b57610d4b610d09565b604051601f8301601f19908116603f01168101908282118183101715610d7357610d73610d09565b81604052838152866020858801011115610d8c57600080fd5b836020870160208301376000602085830101528094505050505092915050565b600080600080600060a08688031215610dc457600080fd5b853567ffffffffffffffff80821115610ddc57600080fd5b610de889838a01610d1f565b96506020880135915080821115610dfe57600080fd5b50610e0b88828901610d1f565b959895975050505060408401359360608101359360809091013592509050565b600060208284031215610e3d57600080fd5b5035919050565b6000815180845260005b81811015610e6a57602081850181015186830182015201610e4e565b506000602082860101526020601f19601f83011685010191505092915050565b634e487b7160e01b600052602160045260246000fd5b8981526001600160a01b038916602082015261012060408201819052600090610ecb8382018b610e44565b90508281036060840152610edf818a610e44565b9150508660808301528560a08301528460c083015283151560e083015260038310610f1a57634e487b7160e01b600052602160045260246000fd5b826101008301529a9950505050505050505050565b80356001600160a01b0381168114610f4657600080fd5b919050565b600060208284031215610f5d57600080fd5b610f6682610f2f565b9392505050565b6020808252825182820181905260009190848201906040850190845b81811015610fa557835183529284019291840191600101610f89565b50909695505050505050565b60a081526000610fc460a0830188610e44565b8281036020840152610fd68188610e44565b60408401969096525050606081019290925260809091015292915050565b6000806040838503121561100757600080fd5b61101083610f2f565b946020939093013593505050565b634e487b7160e01b600052601160045260246000fd5b808201808211156110475761104761101e565b92915050565b600181811c9082168061106157607f821691505b60208210810361108157634e487b7160e01b600052602260045260246000fd5b50919050565b601f8211156110d157600081815260208120601f850160051c810160208610156110ae5750805b601f850160051c820191505b818110156110cd578281556001016110ba565b5050505b505050565b815167ffffffffffffffff8111156110f0576110f0610d09565b611104816110fe845461104d565b84611087565b602080601f83116001811461113957600084156111215750858301515b600019600386901b1c1916600185901b1785556110cd565b600085815260208120601f198616915b8281101561116857888601518255948401946001909101908401611149565b50858210156111865787850151600019600388901b60f8161c191681555b5050505050600190811b01905550565b634e487b7160e01b600052603260045260246000fd5b818103818111156110475761104761101e56fea26469706673582212205708b541573c0da661fa92db2a3f89cf990892e12835984f8b0b89d55c62ce1364736f6c63430008130033",
  "immutableReferences": {},
  "source": "// SPDX-License-Identifier: MIT\r\npragma solidity ^0.8.0;\r\n\r\nimport \"./RideContract.sol\";\r\n\r\ncontract BookingContract is RideContract {\r\n    mapping (address => uint[]) public userToRides;\r\n\r\n    function bookRide(uint _rideId) public payable {\r\n        require(msg.value >= rides[_rideId - 1].fare, \"Insufficient funds\");\r\n\r\n        rides[_rideId - 1].booked = true;\r\n        userToRides[msg.sender].push(_rideId);\r\n        payable(rides[_rideId - 1].driver).transfer(msg.value);\r\n    }\r\n\r\n    function getRidesByUser(address _user) public view returns (uint[] memory) {\r\n        return userToRides[_user];\r\n    }\r\n    function getDriverAddress(uint256 _rideId)public view returns (address){\r\n        return rides[_rideId - 1].driver;\r\n    }\r\n}\r\n",
  "sourcePath": "D:\\Yugo - Final project\\yugo\\src\\contracts\\BookingContract.sol",
  "compiler": {
    "name": "solc",
    "version": "0.8.19+commit.7dd6d404.Emscripten.clang"
  },
  "schemaVersion": "3.4.13",
  "updatedAt": "2023-04-27T14:49:20.182Z",
  "devdoc": {
    "kind": "dev",
    "methods": {},
    "version": 1
  },
  "userdoc": {
    "kind": "user",
    "methods": {},
    "version": 1
  }
}