{
  "contractName": "BookingContract",
  "abi": [
    {
      "anonymous": false,
      "inputs": [
        {
          "indexed": false,
          "internalType": "uint256",
          "name": "rideId",
          "type": "uint256"
        }
      ],
      "name": "NewRide",
      "type": "event"
    },
    {
      "inputs": [
        {
          "internalType": "string",
          "name": "_startLocation",
          "type": "string"
        },
        {
          "internalType": "string",
          "name": "_endLocation",
          "type": "string"
        },
        {
          "internalType": "uint256",
          "name": "_fare",
          "type": "uint256"
        }
      ],
      "name": "createRide",
      "outputs": [],
      "stateMutability": "nonpayable",
      "type": "function"
    },
    {
      "inputs": [
        {
          "internalType": "address",
          "name": "",
          "type": "address"
        }
      ],
      "name": "currentRide",
      "outputs": [
        {
          "internalType": "uint256",
          "name": "id",
          "type": "uint256"
        },
        {
          "internalType": "address",
          "name": "driver",
          "type": "address"
        },
        {
          "internalType": "string",
          "name": "startLocation",
          "type": "string"
        },
        {
          "internalType": "string",
          "name": "endLocation",
          "type": "string"
        },
        {
          "internalType": "uint256",
          "name": "fare",
          "type": "uint256"
        },
        {
          "internalType": "bool",
          "name": "booked",
          "type": "bool"
        },
        {
          "internalType": "enum RideContract.RideStatus",
          "name": "status",
          "type": "uint8"
        }
      ],
      "stateMutability": "view",
      "type": "function"
    },
    {
      "inputs": [
        {
          "internalType": "uint256",
          "name": "_rideId",
          "type": "uint256"
        }
      ],
      "name": "deleteRide",
      "outputs": [],
      "stateMutability": "nonpayable",
      "type": "function"
    },
    {
      "inputs": [
        {
          "internalType": "uint256",
          "name": "_id",
          "type": "uint256"
        }
      ],
      "name": "getDetails",
      "outputs": [
        {
          "internalType": "string",
          "name": "",
          "type": "string"
        },
        {
          "internalType": "string",
          "name": "",
          "type": "string"
        },
        {
          "internalType": "uint256",
          "name": "",
          "type": "uint256"
        }
      ],
      "stateMutability": "view",
      "type": "function"
    },
    {
      "inputs": [
        {
          "internalType": "uint256",
          "name": "",
          "type": "uint256"
        }
      ],
      "name": "rides",
      "outputs": [
        {
          "internalType": "uint256",
          "name": "id",
          "type": "uint256"
        },
        {
          "internalType": "address",
          "name": "driver",
          "type": "address"
        },
        {
          "internalType": "string",
          "name": "startLocation",
          "type": "string"
        },
        {
          "internalType": "string",
          "name": "endLocation",
          "type": "string"
        },
        {
          "internalType": "uint256",
          "name": "fare",
          "type": "uint256"
        },
        {
          "internalType": "bool",
          "name": "booked",
          "type": "bool"
        },
        {
          "internalType": "enum RideContract.RideStatus",
          "name": "status",
          "type": "uint8"
        }
      ],
      "stateMutability": "view",
      "type": "function"
    },
    {
      "inputs": [
        {
          "internalType": "uint256",
          "name": "",
          "type": "uint256"
        }
      ],
      "name": "storedride",
      "outputs": [
        {
          "internalType": "uint256",
          "name": "id",
          "type": "uint256"
        },
        {
          "internalType": "address",
          "name": "driver",
          "type": "address"
        },
        {
          "internalType": "string",
          "name": "startLocation",
          "type": "string"
        },
        {
          "internalType": "string",
          "name": "endLocation",
          "type": "string"
        },
        {
          "internalType": "uint256",
          "name": "fare",
          "type": "uint256"
        },
        {
          "internalType": "bool",
          "name": "booked",
          "type": "bool"
        },
        {
          "internalType": "enum RideContract.RideStatus",
          "name": "status",
          "type": "uint8"
        }
      ],
      "stateMutability": "view",
      "type": "function"
    },
    {
      "inputs": [],
      "name": "totalRides",
      "outputs": [
        {
          "internalType": "uint256",
          "name": "",
          "type": "uint256"
        }
      ],
      "stateMutability": "view",
      "type": "function"
    },
    {
      "inputs": [
        {
          "internalType": "address",
          "name": "",
          "type": "address"
        },
        {
          "internalType": "uint256",
          "name": "",
          "type": "uint256"
        }
      ],
      "name": "userToRides",
      "outputs": [
        {
          "internalType": "uint256",
          "name": "",
          "type": "uint256"
        }
      ],
      "stateMutability": "view",
      "type": "function"
    },
    {
      "inputs": [
        {
          "internalType": "uint256",
          "name": "_rideId",
          "type": "uint256"
        }
      ],
      "name": "bookRide",
      "outputs": [],
      "stateMutability": "payable",
      "type": "function"
    },
    {
      "inputs": [
        {
          "internalType": "address",
          "name": "_user",
          "type": "address"
        }
      ],
      "name": "getRidesByUser",
      "outputs": [
        {
          "internalType": "uint256[]",
          "name": "",
          "type": "uint256[]"
        }
      ],
      "stateMutability": "view",
      "type": "function"
    },
    {
      "inputs": [
        {
          "internalType": "uint256",
          "name": "_rideId",
          "type": "uint256"
        }
      ],
      "name": "getDriverAddress",
      "outputs": [
        {
          "internalType": "address",
          "name": "",
          "type": "address"
        }
      ],
      "stateMutability": "view",
      "type": "function"
    }
  ],
  "bytecode": "0x6080604052600060035534801561001557600080fd5b506110c7806100256000396000f3fe60806040526004361061009c5760003560e01c8063ad6e3b7111610064578063ad6e3b7114610177578063b93a89f7146101a4578063be69d9c2146101d3578063c69b2cf6146101f3578063e0b05ea614610206578063eb29de341461022a57600080fd5b80633c70c157146100a15780635205f112146100c357806387bb2f53146100ff5780638da547ee1461011f5780638fb782491461013f575b600080fd5b3480156100ad57600080fd5b506100c16100bc366004610c0c565b61024a565b005b3480156100cf57600080fd5b506100e36100de366004610c0c565b6102b4565b6040516100f69796959493929190610c81565b60405180910390f35b34801561010b57600080fd5b506100e361011a366004610d1a565b610424565b34801561012b57600080fd5b506100c161013a366004610ddf565b610457565b34801561014b57600080fd5b5061015f61015a366004610c0c565b6107cd565b6040516001600160a01b0390911681526020016100f6565b34801561018357600080fd5b50610197610192366004610d1a565b61080e565b6040516100f69190610e4c565b3480156101b057600080fd5b506101c46101bf366004610c0c565b61087a565b6040516100f693929190610e90565b3480156101df57600080fd5b506100e36101ee366004610c0c565b610a32565b6100c1610201366004610c0c565b610a42565b34801561021257600080fd5b5061021c60035481565b6040519081526020016100f6565b34801561023657600080fd5b5061021c610245366004610ec6565b610b85565b6000818154811061025d5761025d610ef0565b6000918252602082206006909102018181556001810180546001600160a01b03191690559061028f6002830182610bb6565b61029d600383016000610bb6565b5060006004820155600501805461ffff1916905550565b600081815481106102c457600080fd5b60009182526020909120600690910201805460018201546002830180549294506001600160a01b0390911692916102fa90610f06565b80601f016020809104026020016040519081016040528092919081815260200182805461032690610f06565b80156103735780601f1061034857610100808354040283529160200191610373565b820191906000526020600020905b81548152906001019060200180831161035657829003601f168201915b50505050509080600301805461038890610f06565b80601f01602080910402602001604051908101604052809291908181526020018280546103b490610f06565b80156104015780601f106103d657610100808354040283529160200191610401565b820191906000526020600020905b8154815290600101906020018083116103e457829003601f168201915b50505050600483015460059093015491929160ff80821692506101009091041687565b600260208190526000918252604090912080546001820154928201805491936001600160a01b031692916102fa90610f06565b60008054610466906001610f56565b6040805160e08101825282815233602082019081529181018781526060820187905260808201869052600060a0830181905260c083018190528054600181018255908052825160069091027f290decd9548b62a8d60345a988386fc84ba6bc95484008f6362f93160ef3e563810191825593517f290decd9548b62a8d60345a988386fc84ba6bc95484008f6362f93160ef3e564850180546001600160a01b039092166001600160a01b03199092169190911790559051939450909283927f290decd9548b62a8d60345a988386fc84ba6bc95484008f6362f93160ef3e56501906105519082610fbe565b50606082015160038201906105669082610fbe565b506080820151600482015560a082015160058201805491151560ff1983168117825560c08501519261ff001990911661ffff19909116176101008360028111156105b2576105b2610c6b565b0217905550503360009081526002602081815260409283902085518155908501516001820180546001600160a01b0319166001600160a01b0390921691909117905591840151849350908201906106099082610fbe565b506060820151600382019061061e9082610fbe565b506080820151600482015560a082015160058201805491151560ff1983168117825560c08501519261ff001990911661ffff199091161761010083600281111561066a5761066a610c6b565b02179055505060018054808201825560009190915282517fb10e2d527612073b26eecdfd717e6a320cf44b4afac2b0732d9fcbe2b7fa0cf6600690920291820190815560208401517fb10e2d527612073b26eecdfd717e6a320cf44b4afac2b0732d9fcbe2b7fa0cf7830180546001600160a01b0319166001600160a01b03909216919091179055604084015184935090917fb10e2d527612073b26eecdfd717e6a320cf44b4afac2b0732d9fcbe2b7fa0cf801906107299082610fbe565b506060820151600382019061073e9082610fbe565b506080820151600482015560a082015160058201805491151560ff1983168117825560c08501519261ff001990911661ffff199091161761010083600281111561078a5761078a610c6b565b0217905550506040518381527f195c1bff7ad0c020d447b95b5458d5fef9c1c01f88f8682ee06bd178afa18538915060200160405180910390a150600355505050565b6000806107db60018461107e565b815481106107eb576107eb610ef0565b60009182526020909120600160069092020101546001600160a01b031692915050565b6001600160a01b03811660009081526004602090815260409182902080548351818402810184019094528084526060939283018282801561086e57602002820191906000526020600020905b81548152602001906001019080831161085a575b50505050509050919050565b60608060008061088b60018661107e565b8154811061089b5761089b610ef0565b906000526020600020906006020160020160006001866108bb919061107e565b815481106108cb576108cb610ef0565b906000526020600020906006020160030160006001876108eb919061107e565b815481106108fb576108fb610ef0565b90600052602060002090600602016004015482805461091990610f06565b80601f016020809104026020016040519081016040528092919081815260200182805461094590610f06565b80156109925780601f1061096757610100808354040283529160200191610992565b820191906000526020600020905b81548152906001019060200180831161097557829003601f168201915b505050505092508180546109a590610f06565b80601f01602080910402602001604051908101604052809291908181526020018280546109d190610f06565b8015610a1e5780601f106109f357610100808354040283529160200191610a1e565b820191906000526020600020905b815481529060010190602001808311610a0157829003601f168201915b505050505091509250925092509193909250565b600181815481106102c457600080fd5b6000610a4f60018361107e565b81548110610a5f57610a5f610ef0565b906000526020600020906006020160040154341015610ab95760405162461bcd60e51b8152602060048201526012602482015271496e73756666696369656e742066756e647360701b604482015260640160405180910390fd5b60016000610ac7828461107e565b81548110610ad757610ad7610ef0565b60009182526020808320600692909202909101600501805460ff191693151593909317909255338152600482526040812080546001818101835591835292822090920183905590610b28908361107e565b81548110610b3857610b38610ef0565b600091825260208220600160069092020101546040516001600160a01b03909116913480156108fc02929091818181858888f19350505050158015610b81573d6000803e3d6000fd5b5050565b60046020528160005260406000208181548110610ba157600080fd5b90600052602060002001600091509150505481565b508054610bc290610f06565b6000825580601f10610bd2575050565b601f016020900490600052602060002090810190610bf09190610bf3565b50565b5b80821115610c085760008155600101610bf4565b5090565b600060208284031215610c1e57600080fd5b5035919050565b6000815180845260005b81811015610c4b57602081850181015186830182015201610c2f565b506000602082860101526020601f19601f83011685010191505092915050565b634e487b7160e01b600052602160045260246000fd5b8781526001600160a01b038716602082015260e060408201819052600090610cab90830188610c25565b8281036060840152610cbd8188610c25565b91505084608083015283151560a083015260038310610cec57634e487b7160e01b600052602160045260246000fd5b8260c083015298975050505050505050565b80356001600160a01b0381168114610d1557600080fd5b919050565b600060208284031215610d2c57600080fd5b610d3582610cfe565b9392505050565b634e487b7160e01b600052604160045260246000fd5b600082601f830112610d6357600080fd5b813567ffffffffffffffff80821115610d7e57610d7e610d3c565b604051601f8301601f19908116603f01168101908282118183101715610da657610da6610d3c565b81604052838152866020858801011115610dbf57600080fd5b836020870160208301376000602085830101528094505050505092915050565b600080600060608486031215610df457600080fd5b833567ffffffffffffffff80821115610e0c57600080fd5b610e1887838801610d52565b94506020860135915080821115610e2e57600080fd5b50610e3b86828701610d52565b925050604084013590509250925092565b6020808252825182820181905260009190848201906040850190845b81811015610e8457835183529284019291840191600101610e68565b50909695505050505050565b606081526000610ea36060830186610c25565b8281036020840152610eb58186610c25565b915050826040830152949350505050565b60008060408385031215610ed957600080fd5b610ee283610cfe565b946020939093013593505050565b634e487b7160e01b600052603260045260246000fd5b600181811c90821680610f1a57607f821691505b602082108103610f3a57634e487b7160e01b600052602260045260246000fd5b50919050565b634e487b7160e01b600052601160045260246000fd5b80820180821115610f6957610f69610f40565b92915050565b601f821115610fb957600081815260208120601f850160051c81016020861015610f965750805b601f850160051c820191505b81811015610fb557828155600101610fa2565b5050505b505050565b815167ffffffffffffffff811115610fd857610fd8610d3c565b610fec81610fe68454610f06565b84610f6f565b602080601f83116001811461102157600084156110095750858301515b600019600386901b1c1916600185901b178555610fb5565b600085815260208120601f198616915b8281101561105057888601518255948401946001909101908401611031565b508582101561106e5787850151600019600388901b60f8161c191681555b5050505050600190811b01905550565b81810381811115610f6957610f69610f4056fea264697066735822122040b02735467109fac2c771329b2f81c28c7a1eca457745985d1a9803599fefc664736f6c63430008130033",
  "immutableReferences": {},
  "source": "// SPDX-License-Identifier: MIT\r\npragma solidity ^0.8.0;\r\n\r\nimport \"./RideContract.sol\";\r\n\r\ncontract BookingContract is RideContract {\r\n    mapping (address => uint[]) public userToRides;\r\n\r\n    function bookRide(uint _rideId) public payable {\r\n        require(msg.value >= rides[_rideId - 1].fare, \"Insufficient funds\");\r\n\r\n        rides[_rideId - 1].booked = true;\r\n        userToRides[msg.sender].push(_rideId);\r\n        payable(rides[_rideId - 1].driver).transfer(msg.value);\r\n    }\r\n\r\n    function getRidesByUser(address _user) public view returns (uint[] memory) {\r\n        return userToRides[_user];\r\n    }\r\n    function getDriverAddress(uint256 _rideId)public view returns (address){\r\n        return rides[_rideId - 1].driver;\r\n    }\r\n}\r\n",
  "sourcePath": "D:\\Yugo - Final project\\yugo\\src\\contracts\\BookingContract.sol",
  "compiler": {
    "name": "solc",
    "version": "0.8.19+commit.7dd6d404.Emscripten.clang"
  },
  "schemaVersion": "3.4.13",
  "updatedAt": "2023-04-26T11:04:03.206Z",
  "devdoc": {
    "kind": "dev",
    "methods": {},
    "version": 1
  },
  "userdoc": {
    "kind": "user",
    "methods": {},
    "version": 1
  }
}