{
  "contractName": "CarbonOffsetCredit",
  "abi": [
    {
      "inputs": [
        {
          "internalType": "address",
          "name": "_rideManagementContractAddress",
          "type": "address"
        }
      ],
      "stateMutability": "nonpayable",
      "type": "constructor"
    },
    {
      "anonymous": false,
      "inputs": [
        {
          "indexed": true,
          "internalType": "uint256",
          "name": "rideId",
          "type": "uint256"
        },
        {
          "indexed": false,
          "internalType": "uint256",
          "name": "creditAmount",
          "type": "uint256"
        }
      ],
      "name": "OffsetCreditIssued",
      "type": "event"
    },
    {
      "inputs": [],
      "name": "rideManagementContract",
      "outputs": [
        {
          "internalType": "contract RideManagementContract",
          "name": "",
          "type": "address"
        }
      ],
      "stateMutability": "view",
      "type": "function"
    },
    {
      "inputs": [
        {
          "internalType": "uint256",
          "name": "",
          "type": "uint256"
        }
      ],
      "name": "rideToOffsetCreditIssued",
      "outputs": [
        {
          "internalType": "bool",
          "name": "",
          "type": "bool"
        }
      ],
      "stateMutability": "view",
      "type": "function"
    },
    {
      "inputs": [],
      "name": "ridecontract",
      "outputs": [
        {
          "internalType": "contract RideContract",
          "name": "",
          "type": "address"
        }
      ],
      "stateMutability": "view",
      "type": "function"
    },
    {
      "inputs": [
        {
          "internalType": "uint256",
          "name": "_rideId",
          "type": "uint256"
        }
      ],
      "name": "issueOffsetCredit",
      "outputs": [],
      "stateMutability": "nonpayable",
      "type": "function"
    }
  ],
  "bytecode": "0x608060405234801561001057600080fd5b5060405161036c38038061036c83398101604081905261002f91610054565b600080546001600160a01b0319166001600160a01b0392909216919091179055610084565b60006020828403121561006657600080fd5b81516001600160a01b038116811461007d57600080fd5b9392505050565b6102d9806100936000396000f3fe608060405234801561001057600080fd5b506004361061004c5760003560e01c806344d5aa9c1461005157806394db62db146100665780639f3ce13214610096578063e1a4b151146100a9575b600080fd5b61006461005f366004610261565b6100dc565b005b600154610079906001600160a01b031681565b6040516001600160a01b0390911681526020015b60405180910390f35b600054610079906001600160a01b031681565b6100cc6100b7366004610261565b60026020526000908152604090205460ff1681565b604051901515815260200161008d565b6000546040516344076a6560e11b8152600481018390526001600160a01b039091169063880ed4ca906024016020604051808303816000875af1158015610127573d6000803e3d6000fd5b505050506040513d601f19601f8201168201806040525081019061014b919061027a565b6101935760405162461bcd60e51b815260206004820152601460248201527352696465206973206e6f7420636f6d706c65746560601b60448201526064015b60405180910390fd5b60008181526002602052604090205460ff16156102055760405162461bcd60e51b815260206004820152602a60248201527f4f66667365742063726564697420616c72656164792069737375656420666f726044820152692074686973207269646560b01b606482015260840161018a565b60008181526002602052604090819020805460ff191660011790555160149082907f792eca78f662630fea501d03a905c6454db36bb4ed0141ffb06ff36a54b53590906102559084815260200190565b60405180910390a25050565b60006020828403121561027357600080fd5b5035919050565b60006020828403121561028c57600080fd5b8151801515811461029c57600080fd5b939250505056fea2646970667358221220b9757abfb9541197ee8db943a688682748ba3b652279d0b1278d518abc36057664736f6c63430008130033",
  "immutableReferences": {},
  "source": "// SPDX-License-Identifier: MIT\r\npragma solidity ^0.8.0;\r\n\r\nimport \"./RideManagementContract.sol\";\r\nimport \"./RideContract.sol\";\r\n\r\ncontract CarbonOffsetCredit {\r\n    RideManagementContract public rideManagementContract;\r\n    RideContract public ridecontract;\r\n\r\n    mapping(uint => bool) public rideToOffsetCreditIssued;\r\n\r\n    uint constant CREDIT_AMOUNT = 20;\r\n\r\n    event OffsetCreditIssued(uint indexed rideId, uint creditAmount);\r\n\r\n    constructor(address _rideManagementContractAddress) {\r\n        rideManagementContract = RideManagementContract(_rideManagementContractAddress);\r\n    }\r\n\r\n    function issueOffsetCredit(uint _rideId) public  {\r\n        require(rideManagementContract.markRideAsComplete(_rideId), \"Ride is not complete\");\r\n        // require(ridecontract.deleteRide(_rideId), \"Ride is not complete\");\r\n        require(!rideToOffsetCreditIssued[_rideId], \"Offset credit already issued for this ride\");\r\n        \r\n        rideToOffsetCreditIssued[_rideId] = true;\r\n\r\n        uint creditAmount = CREDIT_AMOUNT;\r\n\r\n        emit OffsetCreditIssued(_rideId, creditAmount);\r\n    }\r\n}\r\n",
  "sourcePath": "D:\\Yugo - Final project\\yugo\\src\\contracts\\CarbonOffsetCredit.sol",
  "compiler": {
    "name": "solc",
    "version": "0.8.19+commit.7dd6d404.Emscripten.clang"
  },
  "schemaVersion": "3.4.13",
  "updatedAt": "2023-05-03T05:14:19.644Z",
  "devdoc": {
    "kind": "dev",
    "methods": {},
    "version": 1
  },
  "userdoc": {
    "kind": "user",
    "methods": {},
    "version": 1
  }
}