{
  "contractName": "RideContract",
  "abi": [
    {
      "anonymous": false,
      "inputs": [
        {
          "indexed": false,
          "internalType": "uint256",
          "name": "rideId",
          "type": "uint256"
        }
      ],
      "name": "NewRide",
      "type": "event"
    },
    {
      "inputs": [
        {
          "internalType": "address",
          "name": "",
          "type": "address"
        }
      ],
      "name": "currentRide",
      "outputs": [
        {
          "internalType": "uint256",
          "name": "id",
          "type": "uint256"
        },
        {
          "internalType": "address",
          "name": "driver",
          "type": "address"
        },
        {
          "internalType": "string",
          "name": "startLocation",
          "type": "string"
        },
        {
          "internalType": "string",
          "name": "endLocation",
          "type": "string"
        },
        {
          "internalType": "uint256",
          "name": "fare",
          "type": "uint256"
        },
        {
          "internalType": "bool",
          "name": "booked",
          "type": "bool"
        },
        {
          "internalType": "enum RideContract.RideStatus",
          "name": "status",
          "type": "uint8"
        }
      ],
      "stateMutability": "view",
      "type": "function",
      "constant": true
    },
    {
      "inputs": [
        {
          "internalType": "uint256",
          "name": "",
          "type": "uint256"
        }
      ],
      "name": "rides",
      "outputs": [
        {
          "internalType": "uint256",
          "name": "id",
          "type": "uint256"
        },
        {
          "internalType": "address",
          "name": "driver",
          "type": "address"
        },
        {
          "internalType": "string",
          "name": "startLocation",
          "type": "string"
        },
        {
          "internalType": "string",
          "name": "endLocation",
          "type": "string"
        },
        {
          "internalType": "uint256",
          "name": "fare",
          "type": "uint256"
        },
        {
          "internalType": "bool",
          "name": "booked",
          "type": "bool"
        },
        {
          "internalType": "enum RideContract.RideStatus",
          "name": "status",
          "type": "uint8"
        }
      ],
      "stateMutability": "view",
      "type": "function",
      "constant": true
    },
    {
      "inputs": [
        {
          "internalType": "uint256",
          "name": "",
          "type": "uint256"
        }
      ],
      "name": "storedride",
      "outputs": [
        {
          "internalType": "uint256",
          "name": "id",
          "type": "uint256"
        },
        {
          "internalType": "address",
          "name": "driver",
          "type": "address"
        },
        {
          "internalType": "string",
          "name": "startLocation",
          "type": "string"
        },
        {
          "internalType": "string",
          "name": "endLocation",
          "type": "string"
        },
        {
          "internalType": "uint256",
          "name": "fare",
          "type": "uint256"
        },
        {
          "internalType": "bool",
          "name": "booked",
          "type": "bool"
        },
        {
          "internalType": "enum RideContract.RideStatus",
          "name": "status",
          "type": "uint8"
        }
      ],
      "stateMutability": "view",
      "type": "function",
      "constant": true
    },
    {
      "inputs": [],
      "name": "totalRides",
      "outputs": [
        {
          "internalType": "uint256",
          "name": "",
          "type": "uint256"
        }
      ],
      "stateMutability": "view",
      "type": "function",
      "constant": true
    },
    {
      "inputs": [
        {
          "internalType": "string",
          "name": "_startLocation",
          "type": "string"
        },
        {
          "internalType": "string",
          "name": "_endLocation",
          "type": "string"
        },
        {
          "internalType": "uint256",
          "name": "_fare",
          "type": "uint256"
        }
      ],
      "name": "createRide",
      "outputs": [],
      "stateMutability": "nonpayable",
      "type": "function"
    },
    {
      "inputs": [
        {
          "internalType": "uint256",
          "name": "_id",
          "type": "uint256"
        }
      ],
      "name": "getDetails",
      "outputs": [
        {
          "internalType": "string",
          "name": "",
          "type": "string"
        },
        {
          "internalType": "string",
          "name": "",
          "type": "string"
        },
        {
          "internalType": "uint256",
          "name": "",
          "type": "uint256"
        }
      ],
      "stateMutability": "view",
      "type": "function",
      "constant": true
    },
    {
      "inputs": [
        {
          "internalType": "uint256",
          "name": "_rideId",
          "type": "uint256"
        }
      ],
      "name": "deleteRide",
      "outputs": [],
      "stateMutability": "nonpayable",
      "type": "function"
    }
  ],
  "bytecode": "0x6080604052600060035534801561001557600080fd5b50610d18806100256000396000f3fe608060405234801561001057600080fd5b506004361061007d5760003560e01c80638da547ee1161005b5780638da547ee146100d9578063b93a89f7146100ec578063be69d9c21461010e578063e0b05ea61461012157600080fd5b80633c70c157146100825780635205f1121461009757806387bb2f53146100c6575b600080fd5b6100956100903660046108d9565b610138565b005b6100aa6100a53660046108d9565b6101a2565b6040516100bd979695949392919061094e565b60405180910390f35b6100aa6100d43660046109cb565b610312565b6100956100e7366004610a9e565b610345565b6100ff6100fa3660046108d9565b6106bb565b6040516100bd93929190610b0b565b6100aa61011c3660046108d9565b610873565b61012a60035481565b6040519081526020016100bd565b6000818154811061014b5761014b610b41565b6000918252602082206006909102018181556001810180546001600160a01b03191690559061017d6002830182610883565b61018b600383016000610883565b5060006004820155600501805461ffff1916905550565b600081815481106101b257600080fd5b60009182526020909120600690910201805460018201546002830180549294506001600160a01b0390911692916101e890610b57565b80601f016020809104026020016040519081016040528092919081815260200182805461021490610b57565b80156102615780601f1061023657610100808354040283529160200191610261565b820191906000526020600020905b81548152906001019060200180831161024457829003601f168201915b50505050509080600301805461027690610b57565b80601f01602080910402602001604051908101604052809291908181526020018280546102a290610b57565b80156102ef5780601f106102c4576101008083540402835291602001916102ef565b820191906000526020600020905b8154815290600101906020018083116102d257829003601f168201915b50505050600483015460059093015491929160ff80821692506101009091041687565b600260208190526000918252604090912080546001820154928201805491936001600160a01b031692916101e890610b57565b60008054610354906001610ba7565b6040805160e08101825282815233602082019081529181018781526060820187905260808201869052600060a0830181905260c083018190528054600181018255908052825160069091027f290decd9548b62a8d60345a988386fc84ba6bc95484008f6362f93160ef3e563810191825593517f290decd9548b62a8d60345a988386fc84ba6bc95484008f6362f93160ef3e564850180546001600160a01b039092166001600160a01b03199092169190911790559051939450909283927f290decd9548b62a8d60345a988386fc84ba6bc95484008f6362f93160ef3e565019061043f9082610c0f565b50606082015160038201906104549082610c0f565b506080820151600482015560a082015160058201805491151560ff1983168117825560c08501519261ff001990911661ffff19909116176101008360028111156104a0576104a0610938565b0217905550503360009081526002602081815260409283902085518155908501516001820180546001600160a01b0319166001600160a01b0390921691909117905591840151849350908201906104f79082610c0f565b506060820151600382019061050c9082610c0f565b506080820151600482015560a082015160058201805491151560ff1983168117825560c08501519261ff001990911661ffff199091161761010083600281111561055857610558610938565b02179055505060018054808201825560009190915282517fb10e2d527612073b26eecdfd717e6a320cf44b4afac2b0732d9fcbe2b7fa0cf6600690920291820190815560208401517fb10e2d527612073b26eecdfd717e6a320cf44b4afac2b0732d9fcbe2b7fa0cf7830180546001600160a01b0319166001600160a01b03909216919091179055604084015184935090917fb10e2d527612073b26eecdfd717e6a320cf44b4afac2b0732d9fcbe2b7fa0cf801906106179082610c0f565b506060820151600382019061062c9082610c0f565b506080820151600482015560a082015160058201805491151560ff1983168117825560c08501519261ff001990911661ffff199091161761010083600281111561067857610678610938565b0217905550506040518381527f195c1bff7ad0c020d447b95b5458d5fef9c1c01f88f8682ee06bd178afa18538915060200160405180910390a150600355505050565b6060806000806106cc600186610ccf565b815481106106dc576106dc610b41565b906000526020600020906006020160020160006001866106fc9190610ccf565b8154811061070c5761070c610b41565b9060005260206000209060060201600301600060018761072c9190610ccf565b8154811061073c5761073c610b41565b90600052602060002090600602016004015482805461075a90610b57565b80601f016020809104026020016040519081016040528092919081815260200182805461078690610b57565b80156107d35780601f106107a8576101008083540402835291602001916107d3565b820191906000526020600020905b8154815290600101906020018083116107b657829003601f168201915b505050505092508180546107e690610b57565b80601f016020809104026020016040519081016040528092919081815260200182805461081290610b57565b801561085f5780601f106108345761010080835404028352916020019161085f565b820191906000526020600020905b81548152906001019060200180831161084257829003601f168201915b505050505091509250925092509193909250565b600181815481106101b257600080fd5b50805461088f90610b57565b6000825580601f1061089f575050565b601f0160209004906000526020600020908101906108bd91906108c0565b50565b5b808211156108d557600081556001016108c1565b5090565b6000602082840312156108eb57600080fd5b5035919050565b6000815180845260005b81811015610918576020818501810151868301820152016108fc565b506000602082860101526020601f19601f83011685010191505092915050565b634e487b7160e01b600052602160045260246000fd5b8781526001600160a01b038716602082015260e060408201819052600090610978908301886108f2565b828103606084015261098a81886108f2565b91505084608083015283151560a0830152600383106109b957634e487b7160e01b600052602160045260246000fd5b8260c083015298975050505050505050565b6000602082840312156109dd57600080fd5b81356001600160a01b03811681146109f457600080fd5b9392505050565b634e487b7160e01b600052604160045260246000fd5b600082601f830112610a2257600080fd5b813567ffffffffffffffff80821115610a3d57610a3d6109fb565b604051601f8301601f19908116603f01168101908282118183101715610a6557610a656109fb565b81604052838152866020858801011115610a7e57600080fd5b836020870160208301376000602085830101528094505050505092915050565b600080600060608486031215610ab357600080fd5b833567ffffffffffffffff80821115610acb57600080fd5b610ad787838801610a11565b94506020860135915080821115610aed57600080fd5b50610afa86828701610a11565b925050604084013590509250925092565b606081526000610b1e60608301866108f2565b8281036020840152610b3081866108f2565b915050826040830152949350505050565b634e487b7160e01b600052603260045260246000fd5b600181811c90821680610b6b57607f821691505b602082108103610b8b57634e487b7160e01b600052602260045260246000fd5b50919050565b634e487b7160e01b600052601160045260246000fd5b80820180821115610bba57610bba610b91565b92915050565b601f821115610c0a57600081815260208120601f850160051c81016020861015610be75750805b601f850160051c820191505b81811015610c0657828155600101610bf3565b5050505b505050565b815167ffffffffffffffff811115610c2957610c296109fb565b610c3d81610c378454610b57565b84610bc0565b602080601f831160018114610c725760008415610c5a5750858301515b600019600386901b1c1916600185901b178555610c06565b600085815260208120601f198616915b82811015610ca157888601518255948401946001909101908401610c82565b5085821015610cbf5787850151600019600388901b60f8161c191681555b5050505050600190811b01905550565b81810381811115610bba57610bba610b9156fea26469706673582212206b39cbc6b5f7a5ff8343fcb017c723387077e8d3c8ee3cff51f306d77a50479264736f6c63430008130033",
  "immutableReferences": {},
  "source": "// SPDX-License-Identifier: MIT\r\npragma solidity ^0.8.0;\r\n\r\ncontract RideContract {\r\n    enum RideStatus { Active, Completed, Canceled }\r\n\r\n    struct Ride {\r\n        uint id;\r\n        address driver;\r\n        string startLocation;\r\n        string endLocation;\r\n        uint256 fare;\r\n        bool booked;\r\n        RideStatus status;\r\n    }\r\n\r\n    Ride[] public rides;\r\n    Ride[] public storedride;\r\n    mapping(address=>Ride) public currentRide;\r\n\r\n    event NewRide(uint rideId);\r\n    uint256 public totalRides=0;\r\n    function createRide(string memory _startLocation, string memory _endLocation, uint256 _fare) public {\r\n        uint rideId = rides.length + 1;\r\n        Ride memory newRide = Ride({\r\n            id: rideId,\r\n            driver: msg.sender,\r\n            startLocation: _startLocation,\r\n            endLocation: _endLocation,\r\n            fare: _fare,\r\n            booked: false,\r\n            status: RideStatus.Active \r\n        });\r\n        rides.push(newRide);\r\n        currentRide[msg.sender]=newRide; \r\n        storedride.push(newRide);      \r\n        emit NewRide(rideId);\r\n        totalRides=rideId;\r\n    }\r\n    function getDetails(uint256 _id)public view returns(string memory,string memory,uint256){\r\n        return (rides[_id-1].startLocation,rides[_id-1].endLocation,rides[_id-1].fare);\r\n    }\r\n\r\n    function deleteRide(uint256 _rideId) public {\r\n        delete rides[_rideId];\r\n    }\r\n}\r\n",
  "sourcePath": "D:\\Yugo - Final project\\yugo\\src\\contracts\\RideContract.sol",
  "compiler": {
    "name": "solc",
    "version": "0.8.19+commit.7dd6d404.Emscripten.clang"
  },
  "schemaVersion": "3.4.13",
  "updatedAt": "2023-04-26T11:04:34.272Z",
  "networkType": "ethereum",
  "devdoc": {
    "kind": "dev",
    "methods": {},
    "version": 1
  },
  "userdoc": {
    "kind": "user",
    "methods": {},
    "version": 1
  }
}