{
  "contractName": "RideManagementContract",
  "abi": [
    {
      "anonymous": false,
      "inputs": [
        {
          "indexed": false,
          "internalType": "uint256",
          "name": "rideId",
          "type": "uint256"
        }
      ],
      "name": "NewRide",
      "type": "event"
    },
    {
      "inputs": [
        {
          "internalType": "uint256",
          "name": "",
          "type": "uint256"
        }
      ],
      "name": "completedRides",
      "outputs": [
        {
          "internalType": "uint256",
          "name": "",
          "type": "uint256"
        }
      ],
      "stateMutability": "view",
      "type": "function"
    },
    {
      "inputs": [
        {
          "internalType": "string",
          "name": "_startLocation",
          "type": "string"
        },
        {
          "internalType": "string",
          "name": "_endLocation",
          "type": "string"
        },
        {
          "internalType": "uint256",
          "name": "_fare",
          "type": "uint256"
        },
        {
          "internalType": "uint256",
          "name": "_date",
          "type": "uint256"
        },
        {
          "internalType": "uint256",
          "name": "_time",
          "type": "uint256"
        },
        {
          "internalType": "uint256",
          "name": "_noofpass",
          "type": "uint256"
        }
      ],
      "name": "createRide",
      "outputs": [],
      "stateMutability": "nonpayable",
      "type": "function"
    },
    {
      "inputs": [
        {
          "internalType": "address",
          "name": "",
          "type": "address"
        }
      ],
      "name": "currentRide",
      "outputs": [
        {
          "internalType": "uint256",
          "name": "id",
          "type": "uint256"
        },
        {
          "internalType": "address",
          "name": "driver",
          "type": "address"
        },
        {
          "internalType": "string",
          "name": "startLocation",
          "type": "string"
        },
        {
          "internalType": "string",
          "name": "endLocation",
          "type": "string"
        },
        {
          "internalType": "uint256",
          "name": "fare",
          "type": "uint256"
        },
        {
          "internalType": "uint256",
          "name": "date",
          "type": "uint256"
        },
        {
          "internalType": "uint256",
          "name": "time",
          "type": "uint256"
        },
        {
          "internalType": "uint256",
          "name": "noofpass",
          "type": "uint256"
        },
        {
          "internalType": "bool",
          "name": "booked",
          "type": "bool"
        },
        {
          "internalType": "enum RideContract.RideStatus",
          "name": "status",
          "type": "uint8"
        }
      ],
      "stateMutability": "view",
      "type": "function"
    },
    {
      "inputs": [
        {
          "internalType": "uint256",
          "name": "_rideId",
          "type": "uint256"
        }
      ],
      "name": "deleteRide",
      "outputs": [],
      "stateMutability": "nonpayable",
      "type": "function"
    },
    {
      "inputs": [
        {
          "internalType": "uint256",
          "name": "_id",
          "type": "uint256"
        }
      ],
      "name": "getDetails",
      "outputs": [
        {
          "internalType": "string",
          "name": "",
          "type": "string"
        },
        {
          "internalType": "string",
          "name": "",
          "type": "string"
        },
        {
          "internalType": "uint256",
          "name": "",
          "type": "uint256"
        },
        {
          "internalType": "uint256",
          "name": "",
          "type": "uint256"
        },
        {
          "internalType": "uint256",
          "name": "",
          "type": "uint256"
        },
        {
          "internalType": "uint256",
          "name": "",
          "type": "uint256"
        },
        {
          "internalType": "address",
          "name": "",
          "type": "address"
        }
      ],
      "stateMutability": "view",
      "type": "function"
    },
    {
      "inputs": [
        {
          "internalType": "uint256",
          "name": "",
          "type": "uint256"
        }
      ],
      "name": "rides",
      "outputs": [
        {
          "internalType": "uint256",
          "name": "id",
          "type": "uint256"
        },
        {
          "internalType": "address",
          "name": "driver",
          "type": "address"
        },
        {
          "internalType": "string",
          "name": "startLocation",
          "type": "string"
        },
        {
          "internalType": "string",
          "name": "endLocation",
          "type": "string"
        },
        {
          "internalType": "uint256",
          "name": "fare",
          "type": "uint256"
        },
        {
          "internalType": "uint256",
          "name": "date",
          "type": "uint256"
        },
        {
          "internalType": "uint256",
          "name": "time",
          "type": "uint256"
        },
        {
          "internalType": "uint256",
          "name": "noofpass",
          "type": "uint256"
        },
        {
          "internalType": "bool",
          "name": "booked",
          "type": "bool"
        },
        {
          "internalType": "enum RideContract.RideStatus",
          "name": "status",
          "type": "uint8"
        }
      ],
      "stateMutability": "view",
      "type": "function"
    },
    {
      "inputs": [
        {
          "internalType": "uint256",
          "name": "",
          "type": "uint256"
        }
      ],
      "name": "storedride",
      "outputs": [
        {
          "internalType": "uint256",
          "name": "id",
          "type": "uint256"
        },
        {
          "internalType": "address",
          "name": "driver",
          "type": "address"
        },
        {
          "internalType": "string",
          "name": "startLocation",
          "type": "string"
        },
        {
          "internalType": "string",
          "name": "endLocation",
          "type": "string"
        },
        {
          "internalType": "uint256",
          "name": "fare",
          "type": "uint256"
        },
        {
          "internalType": "uint256",
          "name": "date",
          "type": "uint256"
        },
        {
          "internalType": "uint256",
          "name": "time",
          "type": "uint256"
        },
        {
          "internalType": "uint256",
          "name": "noofpass",
          "type": "uint256"
        },
        {
          "internalType": "bool",
          "name": "booked",
          "type": "bool"
        },
        {
          "internalType": "enum RideContract.RideStatus",
          "name": "status",
          "type": "uint8"
        }
      ],
      "stateMutability": "view",
      "type": "function"
    },
    {
      "inputs": [],
      "name": "totalRides",
      "outputs": [
        {
          "internalType": "uint256",
          "name": "",
          "type": "uint256"
        }
      ],
      "stateMutability": "view",
      "type": "function"
    },
    {
      "inputs": [
        {
          "internalType": "uint256",
          "name": "_rideId",
          "type": "uint256"
        }
      ],
      "name": "markRideAsComplete",
      "outputs": [
        {
          "internalType": "bool",
          "name": "",
          "type": "bool"
        }
      ],
      "stateMutability": "nonpayable",
      "type": "function"
    }
  ],
  "bytecode": "0x6080604052600060035534801561001557600080fd5b5061137a806100256000396000f3fe608060405234801561001057600080fd5b50600436106100935760003560e01c8063880ed4ca11610066578063880ed4ca1461010f578063b34cad2114610132578063b93a89f714610145578063be69d9c21461016b578063e0b05ea61461017e57600080fd5b80633c70c15714610098578063416824ea146100ad5780635205f112146100d357806387bb2f53146100fc575b600080fd5b6100ab6100a6366004610dda565b610187565b005b6100c06100bb366004610dda565b610206565b6040519081526020015b60405180910390f35b6100e66100e1366004610dda565b610227565b6040516100ca9a99989796959493929190610e4f565b6100e661010a366004610ee6565b6103a9565b61012261011d366004610dda565b6103dc565b60405190151581526020016100ca565b6100ab610140366004610fb9565b6106c4565b610158610153366004610dda565b610ad5565b6040516100ca9796959493929190611040565b6100e6610179366004610dda565b610d74565b6100c060035481565b6000818154811061019a5761019a611099565b6000918252602082206009909102018181556001810180546001600160a01b0319169055906101cc6002830182610d84565b6101da600383016000610d84565b5060006004820181905560058201819055600682018190556007820155600801805461ffff1916905550565b6005818154811061021657600080fd5b600091825260209091200154905081565b6000818154811061023757600080fd5b60009182526020909120600990910201805460018201546002830180549294506001600160a01b03909116929161026d906110af565b80601f0160208091040260200160405190810160405280929190818152602001828054610299906110af565b80156102e65780601f106102bb576101008083540402835291602001916102e6565b820191906000526020600020905b8154815290600101906020018083116102c957829003601f168201915b5050505050908060030180546102fb906110af565b80601f0160208091040260200160405190810160405280929190818152602001828054610327906110af565b80156103745780601f1061034957610100808354040283529160200191610374565b820191906000526020600020905b81548152906001019060200180831161035757829003601f168201915b505050600484015460058501546006860154600787015460089097015495969295919450925060ff808216916101009004168a565b600260208190526000918252604090912080546001820154928201805491936001600160a01b0316929161026d906110af565b6000806103ea6001846110ff565b815481106103fa576103fa611099565b60009182526020909120600990910201600101546001600160a01b0316331461045f5760405162461bcd60e51b8152602060048201526013602482015272556e617574686f72697a65642061636365737360681b604482015260640160405180910390fd5b6001600061046d82856110ff565b8154811061047d5761047d611099565b60009182526020909120600860099092020101805461ff0019166101008360028111156104ac576104ac610e39565b0217905550600160006104bf82856110ff565b815481106104cf576104cf611099565b600091825260208083208454600181810187559585529190932060099283029093018054919092029092019182558281015492820180546001600160a01b0319166001600160a01b039094169390931790925560028082019061053490840182611167565b5060038181019061054790840182611167565b506004828101549082015560058083015490820155600680830154908201556007808301549082015560088083018054918301805460ff938416151560ff1982168117835592546101009081900490941693919261ff00191661ffff1990911617908360028111156105bb576105bb610e39565b02179055505033600090815260046020526040812091505b815481101561068757838282815481106105ef576105ef611099565b906000526020600020015403610675578154829061060f906001906110ff565b8154811061061f5761061f611099565b906000526020600020015482828154811061063c5761063c611099565b90600052602060002001819055508180548061065a5761065a611248565b60019003818190600052602060002001600090559055610687565b8061067f8161125e565b9150506105d3565b505060058054600181810183556000929092527f036b6384b5eca791c62761152d0c79bb0604c104a5fb6f4eb0703f3154bb3db001929092555090565b600080546106d3906001611277565b90506000604051806101400160405280838152602001336001600160a01b031681526020018981526020018881526020018781526020018681526020018581526020018481526020016000151581526020016000600281111561073857610738610e39565b90526000805460018101825590805281517f290decd9548b62a8d60345a988386fc84ba6bc95484008f6362f93160ef3e563600990920291820190815560208301517f290decd9548b62a8d60345a988386fc84ba6bc95484008f6362f93160ef3e564830180546001600160a01b0319166001600160a01b039092169190911790556040830151929350839290917f290decd9548b62a8d60345a988386fc84ba6bc95484008f6362f93160ef3e56501906107f3908261128a565b5060608201516003820190610808908261128a565b506080820151600482015560a0820151600582015560c0820151600682015560e082015160078201556101008083015160088301805491151560ff1983168117825561012086015193919261ff001990911661ffff19909116179083600281111561087557610875610e39565b0217905550503360009081526002602081815260409283902085518155908501516001820180546001600160a01b0319166001600160a01b0390921691909117905591840151849350908201906108cc908261128a565b50606082015160038201906108e1908261128a565b506080820151600482015560a0820151600582015560c0820151600682015560e082015160078201556101008083015160088301805491151560ff1983168117825561012086015193919261ff001990911661ffff19909116179083600281111561094e5761094e610e39565b02179055505060018054808201825560009190915282517fb10e2d527612073b26eecdfd717e6a320cf44b4afac2b0732d9fcbe2b7fa0cf6600990920291820190815560208401517fb10e2d527612073b26eecdfd717e6a320cf44b4afac2b0732d9fcbe2b7fa0cf7830180546001600160a01b0319166001600160a01b03909216919091179055604084015184935090917fb10e2d527612073b26eecdfd717e6a320cf44b4afac2b0732d9fcbe2b7fa0cf80190610a0d908261128a565b5060608201516003820190610a22908261128a565b506080820151600482015560a0820151600582015560c0820151600682015560e082015160078201556101008083015160088301805491151560ff1983168117825561012086015193919261ff001990911661ffff199091161790836002811115610a8f57610a8f610e39565b0217905550506040518381527f195c1bff7ad0c020d447b95b5458d5fef9c1c01f88f8682ee06bd178afa18538915060200160405180910390a150600355505050505050565b60608060008080808080610aea60018a6110ff565b81548110610afa57610afa611099565b9060005260206000209060090201600201600060018a610b1a91906110ff565b81548110610b2a57610b2a611099565b9060005260206000209060090201600301600060018b610b4a91906110ff565b81548110610b5a57610b5a611099565b906000526020600020906009020160040154600060018c610b7b91906110ff565b81548110610b8b57610b8b611099565b906000526020600020906009020160050154600060018d610bac91906110ff565b81548110610bbc57610bbc611099565b906000526020600020906009020160060154600060018e610bdd91906110ff565b81548110610bed57610bed611099565b906000526020600020906009020160070154600060018f610c0e91906110ff565b81548110610c1e57610c1e611099565b906000526020600020906009020160010160009054906101000a90046001600160a01b0316868054610c4f906110af565b80601f0160208091040260200160405190810160405280929190818152602001828054610c7b906110af565b8015610cc85780601f10610c9d57610100808354040283529160200191610cc8565b820191906000526020600020905b815481529060010190602001808311610cab57829003601f168201915b50505050509650858054610cdb906110af565b80601f0160208091040260200160405190810160405280929190818152602001828054610d07906110af565b8015610d545780601f10610d2957610100808354040283529160200191610d54565b820191906000526020600020905b815481529060010190602001808311610d3757829003601f168201915b505050505095509650965096509650965096509650919395979092949650565b6001818154811061023757600080fd5b508054610d90906110af565b6000825580601f10610da0575050565b601f016020900490600052602060002090810190610dbe9190610dc1565b50565b5b80821115610dd65760008155600101610dc2565b5090565b600060208284031215610dec57600080fd5b5035919050565b6000815180845260005b81811015610e1957602081850181015186830182015201610dfd565b506000602082860101526020601f19601f83011685010191505092915050565b634e487b7160e01b600052602160045260246000fd5b8a81526001600160a01b038a16602082015261014060408201819052600090610e7a8382018c610df3565b90508281036060840152610e8e818b610df3565b9150508760808301528660a08301528560c08301528460e083015283151561010083015260038310610ed057634e487b7160e01b600052602160045260246000fd5b826101208301529b9a5050505050505050505050565b600060208284031215610ef857600080fd5b81356001600160a01b0381168114610f0f57600080fd5b9392505050565b634e487b7160e01b600052604160045260246000fd5b600082601f830112610f3d57600080fd5b813567ffffffffffffffff80821115610f5857610f58610f16565b604051601f8301601f19908116603f01168101908282118183101715610f8057610f80610f16565b81604052838152866020858801011115610f9957600080fd5b836020870160208301376000602085830101528094505050505092915050565b60008060008060008060c08789031215610fd257600080fd5b863567ffffffffffffffff80821115610fea57600080fd5b610ff68a838b01610f2c565b9750602089013591508082111561100c57600080fd5b5061101989828a01610f2c565b96999698505050506040850135946060810135946080820135945060a09091013592509050565b60e08152600061105360e083018a610df3565b8281036020840152611065818a610df3565b604084019890985250506060810194909452608084019290925260a08301526001600160a01b031660c09091015292915050565b634e487b7160e01b600052603260045260246000fd5b600181811c908216806110c357607f821691505b6020821081036110e357634e487b7160e01b600052602260045260246000fd5b50919050565b634e487b7160e01b600052601160045260246000fd5b81810381811115611112576111126110e9565b92915050565b601f82111561116257600081815260208120601f850160051c8101602086101561113f5750805b601f850160051c820191505b8181101561115e5782815560010161114b565b5050505b505050565b818103611172575050565b61117c82546110af565b67ffffffffffffffff81111561119457611194610f16565b6111a8816111a284546110af565b84611118565b6000601f8211600181146111dc57600083156111c45750848201545b600019600385901b1c1916600184901b178455611241565b600085815260209020601f19841690600086815260209020845b8381101561121657828601548255600195860195909101906020016111f6565b50858310156112345781850154600019600388901b60f8161c191681555b50505060018360011b0184555b5050505050565b634e487b7160e01b600052603160045260246000fd5b600060018201611270576112706110e9565b5060010190565b80820180821115611112576111126110e9565b815167ffffffffffffffff8111156112a4576112a4610f16565b6112b2816111a284546110af565b602080601f8311600181146112e757600084156112cf5750858301515b600019600386901b1c1916600185901b17855561115e565b600085815260208120601f198616915b82811015611316578886015182559484019460019091019084016112f7565b50858210156113345787850151600019600388901b60f8161c191681555b5050505050600190811b0190555056fea264697066735822122066bb05f3be7f195a927d5860622f8323c8cf1cbc9c9d1948b1c105c588956d8864736f6c63430008130033",
  "immutableReferences": {},
  "source": "// SPDX-License-Identifier: MIT\r\npragma solidity ^0.8.0;\r\n\r\nimport \"./RideContract.sol\";\r\n// import \"./CarbonOffsetCredit.sol\";\r\n\r\ncontract RideManagementContract is RideContract {\r\n    mapping (address => uint[])  driverToRides;\r\n    uint[] public completedRides;\r\n\r\n    function markRideAsComplete(uint _rideId) public returns(bool){\r\n        require(msg.sender == rides[_rideId - 1].driver, \"Unauthorized access\");\r\n\r\n        rides[_rideId - 1].status = RideStatus.Completed;\r\n        storedride.push(rides[_rideId - 1]);\r\n\r\n        uint[] storage ridesByDriver = driverToRides[msg.sender];\r\n\r\n        for (uint i = 0; i < ridesByDriver.length; i++) {\r\n            if (ridesByDriver[i] == _rideId) {\r\n                ridesByDriver[i] = ridesByDriver[ridesByDriver.length - 1];\r\n                ridesByDriver.pop();\r\n                break;\r\n            }\r\n        }\r\n\r\n        completedRides.push(_rideId);\r\n        return true;\r\n    }\r\n}\r\n",
  "sourcePath": "D:\\Yugo - Final project\\yugo\\src\\contracts\\RideManagementContract.sol",
  "compiler": {
    "name": "solc",
    "version": "0.8.19+commit.7dd6d404.Emscripten.clang"
  },
  "schemaVersion": "3.4.13",
  "updatedAt": "2023-04-28T09:59:05.236Z",
  "devdoc": {
    "kind": "dev",
    "methods": {},
    "version": 1
  },
  "userdoc": {
    "kind": "user",
    "methods": {},
    "version": 1
  }
}