{
  "contractName": "RideManagementContract",
  "abi": [
    {
      "anonymous": false,
      "inputs": [
        {
          "indexed": false,
          "internalType": "uint256",
          "name": "rideId",
          "type": "uint256"
        }
      ],
      "name": "NewRide",
      "type": "event"
    },
    {
      "inputs": [
        {
          "internalType": "uint256",
          "name": "",
          "type": "uint256"
        }
      ],
      "name": "completedRides",
      "outputs": [
        {
          "internalType": "uint256",
          "name": "",
          "type": "uint256"
        }
      ],
      "stateMutability": "view",
      "type": "function"
    },
    {
      "inputs": [
        {
          "internalType": "string",
          "name": "_startLocation",
          "type": "string"
        },
        {
          "internalType": "string",
          "name": "_endLocation",
          "type": "string"
        },
        {
          "internalType": "uint256",
          "name": "_fare",
          "type": "uint256"
        },
        {
          "internalType": "uint256",
          "name": "_date",
          "type": "uint256"
        },
        {
          "internalType": "uint256",
          "name": "_time",
          "type": "uint256"
        }
      ],
      "name": "createRide",
      "outputs": [],
      "stateMutability": "nonpayable",
      "type": "function"
    },
    {
      "inputs": [
        {
          "internalType": "address",
          "name": "",
          "type": "address"
        }
      ],
      "name": "currentRide",
      "outputs": [
        {
          "internalType": "uint256",
          "name": "id",
          "type": "uint256"
        },
        {
          "internalType": "address",
          "name": "driver",
          "type": "address"
        },
        {
          "internalType": "string",
          "name": "startLocation",
          "type": "string"
        },
        {
          "internalType": "string",
          "name": "endLocation",
          "type": "string"
        },
        {
          "internalType": "uint256",
          "name": "fare",
          "type": "uint256"
        },
        {
          "internalType": "uint256",
          "name": "date",
          "type": "uint256"
        },
        {
          "internalType": "uint256",
          "name": "time",
          "type": "uint256"
        },
        {
          "internalType": "bool",
          "name": "booked",
          "type": "bool"
        },
        {
          "internalType": "enum RideContract.RideStatus",
          "name": "status",
          "type": "uint8"
        }
      ],
      "stateMutability": "view",
      "type": "function"
    },
    {
      "inputs": [
        {
          "internalType": "uint256",
          "name": "_rideId",
          "type": "uint256"
        }
      ],
      "name": "deleteRide",
      "outputs": [],
      "stateMutability": "nonpayable",
      "type": "function"
    },
    {
      "inputs": [
        {
          "internalType": "uint256",
          "name": "_id",
          "type": "uint256"
        }
      ],
      "name": "getDetails",
      "outputs": [
        {
          "internalType": "string",
          "name": "",
          "type": "string"
        },
        {
          "internalType": "string",
          "name": "",
          "type": "string"
        },
        {
          "internalType": "uint256",
          "name": "",
          "type": "uint256"
        },
        {
          "internalType": "uint256",
          "name": "",
          "type": "uint256"
        },
        {
          "internalType": "uint256",
          "name": "",
          "type": "uint256"
        }
      ],
      "stateMutability": "view",
      "type": "function"
    },
    {
      "inputs": [
        {
          "internalType": "uint256",
          "name": "",
          "type": "uint256"
        }
      ],
      "name": "rides",
      "outputs": [
        {
          "internalType": "uint256",
          "name": "id",
          "type": "uint256"
        },
        {
          "internalType": "address",
          "name": "driver",
          "type": "address"
        },
        {
          "internalType": "string",
          "name": "startLocation",
          "type": "string"
        },
        {
          "internalType": "string",
          "name": "endLocation",
          "type": "string"
        },
        {
          "internalType": "uint256",
          "name": "fare",
          "type": "uint256"
        },
        {
          "internalType": "uint256",
          "name": "date",
          "type": "uint256"
        },
        {
          "internalType": "uint256",
          "name": "time",
          "type": "uint256"
        },
        {
          "internalType": "bool",
          "name": "booked",
          "type": "bool"
        },
        {
          "internalType": "enum RideContract.RideStatus",
          "name": "status",
          "type": "uint8"
        }
      ],
      "stateMutability": "view",
      "type": "function"
    },
    {
      "inputs": [
        {
          "internalType": "uint256",
          "name": "",
          "type": "uint256"
        }
      ],
      "name": "storedride",
      "outputs": [
        {
          "internalType": "uint256",
          "name": "id",
          "type": "uint256"
        },
        {
          "internalType": "address",
          "name": "driver",
          "type": "address"
        },
        {
          "internalType": "string",
          "name": "startLocation",
          "type": "string"
        },
        {
          "internalType": "string",
          "name": "endLocation",
          "type": "string"
        },
        {
          "internalType": "uint256",
          "name": "fare",
          "type": "uint256"
        },
        {
          "internalType": "uint256",
          "name": "date",
          "type": "uint256"
        },
        {
          "internalType": "uint256",
          "name": "time",
          "type": "uint256"
        },
        {
          "internalType": "bool",
          "name": "booked",
          "type": "bool"
        },
        {
          "internalType": "enum RideContract.RideStatus",
          "name": "status",
          "type": "uint8"
        }
      ],
      "stateMutability": "view",
      "type": "function"
    },
    {
      "inputs": [],
      "name": "totalRides",
      "outputs": [
        {
          "internalType": "uint256",
          "name": "",
          "type": "uint256"
        }
      ],
      "stateMutability": "view",
      "type": "function"
    },
    {
      "inputs": [
        {
          "internalType": "uint256",
          "name": "_rideId",
          "type": "uint256"
        }
      ],
      "name": "markRideAsComplete",
      "outputs": [
        {
          "internalType": "bool",
          "name": "",
          "type": "bool"
        }
      ],
      "stateMutability": "nonpayable",
      "type": "function"
    }
  ],
  "bytecode": "0x6080604052600060035534801561001557600080fd5b50611297806100256000396000f3fe608060405234801561001057600080fd5b50600436106100935760003560e01c806387bb2f531161006657806387bb2f531461010e578063880ed4ca14610121578063b93a89f714610144578063be69d9c214610168578063e0b05ea61461017b57600080fd5b80632c0dd4e5146100985780633c70c157146100ad578063416824ea146100c05780635205f112146100e6575b600080fd5b6100ab6100a6366004610dc0565b610184565b005b6100ab6100bb366004610e3f565b610570565b6100d36100ce366004610e3f565b6105e8565b6040519081526020015b60405180910390f35b6100f96100f4366004610e3f565b610609565b6040516100dd99989796959493929190610eb4565b6100f961011c366004610f43565b610785565b61013461012f366004610e3f565b6107b8565b60405190151581526020016100dd565b610157610152366004610e3f565b610a96565b6040516100dd959493929190610f73565b6100f9610176366004610e3f565b610cb7565b6100d360035481565b60008054610193906001610fcc565b90506000604051806101200160405280838152602001336001600160a01b03168152602001888152602001878152602001868152602001858152602001848152602001600015158152602001600060028111156101f2576101f2610e9e565b90526000805460018101825590805281517f290decd9548b62a8d60345a988386fc84ba6bc95484008f6362f93160ef3e563600890920291820190815560208301517f290decd9548b62a8d60345a988386fc84ba6bc95484008f6362f93160ef3e564830180546001600160a01b0319166001600160a01b039092169190911790556040830151929350839290917f290decd9548b62a8d60345a988386fc84ba6bc95484008f6362f93160ef3e56501906102ad908261106e565b50606082015160038201906102c2908261106e565b506080820151600482015560a0820151600582015560c0820151600682015560e082015160078201805491151560ff19831681178255610100808601519361ff001990921661ffff19909216919091179083600281111561032557610325610e9e565b0217905550503360009081526002602081815260409283902085518155908501516001820180546001600160a01b0319166001600160a01b03909216919091179055918401518493509082019061037c908261106e565b5060608201516003820190610391908261106e565b506080820151600482015560a0820151600582015560c0820151600682015560e082015160078201805491151560ff19831681178255610100808601519361ff001990921661ffff1990921691909117908360028111156103f4576103f4610e9e565b02179055505060018054808201825560009190915282517fb10e2d527612073b26eecdfd717e6a320cf44b4afac2b0732d9fcbe2b7fa0cf6600890920291820190815560208401517fb10e2d527612073b26eecdfd717e6a320cf44b4afac2b0732d9fcbe2b7fa0cf7830180546001600160a01b0319166001600160a01b03909216919091179055604084015184935090917fb10e2d527612073b26eecdfd717e6a320cf44b4afac2b0732d9fcbe2b7fa0cf801906104b3908261106e565b50606082015160038201906104c8908261106e565b506080820151600482015560a0820151600582015560c0820151600682015560e082015160078201805491151560ff19831681178255610100808601519361ff001990921661ffff19909216919091179083600281111561052b5761052b610e9e565b0217905550506040518381527f195c1bff7ad0c020d447b95b5458d5fef9c1c01f88f8682ee06bd178afa18538915060200160405180910390a1506003555050505050565b600081815481106105835761058361112e565b6000918252602082206008909102018181556001810180546001600160a01b0319169055906105b56002830182610cc7565b6105c3600383016000610cc7565b50600060048201819055600582018190556006820155600701805461ffff1916905550565b600581815481106105f857600080fd5b600091825260209091200154905081565b6000818154811061061957600080fd5b60009182526020909120600890910201805460018201546002830180549294506001600160a01b03909116929161064f90610fe5565b80601f016020809104026020016040519081016040528092919081815260200182805461067b90610fe5565b80156106c85780601f1061069d576101008083540402835291602001916106c8565b820191906000526020600020905b8154815290600101906020018083116106ab57829003601f168201915b5050505050908060030180546106dd90610fe5565b80601f016020809104026020016040519081016040528092919081815260200182805461070990610fe5565b80156107565780601f1061072b57610100808354040283529160200191610756565b820191906000526020600020905b81548152906001019060200180831161073957829003601f168201915b505050506004830154600584015460068501546007909501549394919390925060ff8082169161010090041689565b600260208190526000918252604090912080546001820154928201805491936001600160a01b0316929161064f90610fe5565b6000806107c6600184611144565b815481106107d6576107d661112e565b60009182526020909120600890910201600101546001600160a01b0316331461083b5760405162461bcd60e51b8152602060048201526013602482015272556e617574686f72697a65642061636365737360681b604482015260640160405180910390fd5b600160006108498285611144565b815481106108595761085961112e565b60009182526020909120600760089092020101805461ff00191661010083600281111561088857610888610e9e565b02179055506001600061089b8285611144565b815481106108ab576108ab61112e565b600091825260208083208454600181810187559585529190932060089283029093018054919092029092019182558281015492820180546001600160a01b0319166001600160a01b039094169390931790925560028082019061091090840182611157565b5060038181019061092390840182611157565b5060048281015490820155600580830154908201556006808301549082015560078083018054918301805460ff938416151560ff1982168117835592546101009081900490941693919261ff00191661ffff19909116179083600281111561098d5761098d610e9e565b02179055505033600090815260046020526040812091505b8154811015610a5957838282815481106109c1576109c161112e565b906000526020600020015403610a4757815482906109e190600190611144565b815481106109f1576109f161112e565b9060005260206000200154828281548110610a0e57610a0e61112e565b906000526020600020018190555081805480610a2c57610a2c611232565b60019003818190600052602060002001600090559055610a59565b80610a5181611248565b9150506109a5565b505060058054600181810183556000929092527f036b6384b5eca791c62761152d0c79bb0604c104a5fb6f4eb0703f3154bb3db001929092555090565b6060806000808080610aa9600188611144565b81548110610ab957610ab961112e565b90600052602060002090600802016002016000600188610ad99190611144565b81548110610ae957610ae961112e565b90600052602060002090600802016003016000600189610b099190611144565b81548110610b1957610b1961112e565b906000526020600020906008020160040154600060018a610b3a9190611144565b81548110610b4a57610b4a61112e565b906000526020600020906008020160050154600060018b610b6b9190611144565b81548110610b7b57610b7b61112e565b906000526020600020906008020160060154848054610b9990610fe5565b80601f0160208091040260200160405190810160405280929190818152602001828054610bc590610fe5565b8015610c125780601f10610be757610100808354040283529160200191610c12565b820191906000526020600020905b815481529060010190602001808311610bf557829003601f168201915b50505050509450838054610c2590610fe5565b80601f0160208091040260200160405190810160405280929190818152602001828054610c5190610fe5565b8015610c9e5780601f10610c7357610100808354040283529160200191610c9e565b820191906000526020600020905b815481529060010190602001808311610c8157829003601f168201915b50989f939e50959c50939a509198509650505050505050565b6001818154811061061957600080fd5b508054610cd390610fe5565b6000825580601f10610ce3575050565b601f016020900490600052602060002090810190610d019190610d04565b50565b5b80821115610d195760008155600101610d05565b5090565b634e487b7160e01b600052604160045260246000fd5b600082601f830112610d4457600080fd5b813567ffffffffffffffff80821115610d5f57610d5f610d1d565b604051601f8301601f19908116603f01168101908282118183101715610d8757610d87610d1d565b81604052838152866020858801011115610da057600080fd5b836020870160208301376000602085830101528094505050505092915050565b600080600080600060a08688031215610dd857600080fd5b853567ffffffffffffffff80821115610df057600080fd5b610dfc89838a01610d33565b96506020880135915080821115610e1257600080fd5b50610e1f88828901610d33565b959895975050505060408401359360608101359360809091013592509050565b600060208284031215610e5157600080fd5b5035919050565b6000815180845260005b81811015610e7e57602081850181015186830182015201610e62565b506000602082860101526020601f19601f83011685010191505092915050565b634e487b7160e01b600052602160045260246000fd5b8981526001600160a01b038916602082015261012060408201819052600090610edf8382018b610e58565b90508281036060840152610ef3818a610e58565b9150508660808301528560a08301528460c083015283151560e083015260038310610f2e57634e487b7160e01b600052602160045260246000fd5b826101008301529a9950505050505050505050565b600060208284031215610f5557600080fd5b81356001600160a01b0381168114610f6c57600080fd5b9392505050565b60a081526000610f8660a0830188610e58565b8281036020840152610f988188610e58565b60408401969096525050606081019290925260809091015292915050565b634e487b7160e01b600052601160045260246000fd5b80820180821115610fdf57610fdf610fb6565b92915050565b600181811c90821680610ff957607f821691505b60208210810361101957634e487b7160e01b600052602260045260246000fd5b50919050565b601f82111561106957600081815260208120601f850160051c810160208610156110465750805b601f850160051c820191505b8181101561106557828155600101611052565b5050505b505050565b815167ffffffffffffffff81111561108857611088610d1d565b61109c816110968454610fe5565b8461101f565b602080601f8311600181146110d157600084156110b95750858301515b600019600386901b1c1916600185901b178555611065565b600085815260208120601f198616915b82811015611100578886015182559484019460019091019084016110e1565b508582101561111e5787850151600019600388901b60f8161c191681555b5050505050600190811b01905550565b634e487b7160e01b600052603260045260246000fd5b81810381811115610fdf57610fdf610fb6565b818103611162575050565b61116c8254610fe5565b67ffffffffffffffff81111561118457611184610d1d565b611192816110968454610fe5565b6000601f8211600181146111c657600083156111ae5750848201545b600019600385901b1c1916600184901b17845561122b565b600085815260209020601f19841690600086815260209020845b8381101561120057828601548255600195860195909101906020016111e0565b508583101561121e5781850154600019600388901b60f8161c191681555b50505060018360011b0184555b5050505050565b634e487b7160e01b600052603160045260246000fd5b60006001820161125a5761125a610fb6565b506001019056fea264697066735822122011fc0668b1af056d7adb8c05f7d3f663dd725d4a479490c60c6d250a4dfb7e6664736f6c63430008130033",
  "immutableReferences": {},
  "source": "// SPDX-License-Identifier: MIT\r\npragma solidity ^0.8.0;\r\n\r\nimport \"./RideContract.sol\";\r\n// import \"./CarbonOffsetCredit.sol\";\r\n\r\ncontract RideManagementContract is RideContract {\r\n    mapping (address => uint[])  driverToRides;\r\n    uint[] public completedRides;\r\n\r\n    function markRideAsComplete(uint _rideId) public returns(bool){\r\n        require(msg.sender == rides[_rideId - 1].driver, \"Unauthorized access\");\r\n\r\n        rides[_rideId - 1].status = RideStatus.Completed;\r\n        storedride.push(rides[_rideId - 1]);\r\n\r\n        uint[] storage ridesByDriver = driverToRides[msg.sender];\r\n\r\n        for (uint i = 0; i < ridesByDriver.length; i++) {\r\n            if (ridesByDriver[i] == _rideId) {\r\n                ridesByDriver[i] = ridesByDriver[ridesByDriver.length - 1];\r\n                ridesByDriver.pop();\r\n                break;\r\n            }\r\n        }\r\n\r\n        completedRides.push(_rideId);\r\n        return true;\r\n    }\r\n}\r\n",
  "sourcePath": "D:\\Yugo - Final project\\yugo\\src\\contracts\\RideManagementContract.sol",
  "compiler": {
    "name": "solc",
    "version": "0.8.19+commit.7dd6d404.Emscripten.clang"
  },
  "schemaVersion": "3.4.13",
  "updatedAt": "2023-04-27T14:49:20.202Z",
  "devdoc": {
    "kind": "dev",
    "methods": {},
    "version": 1
  },
  "userdoc": {
    "kind": "user",
    "methods": {},
    "version": 1
  }
}