{
  "contractName": "RideContract",
  "abi": [
    {
      "anonymous": false,
      "inputs": [
        {
          "indexed": false,
          "internalType": "uint256",
          "name": "rideId",
          "type": "uint256"
        }
      ],
      "name": "NewRide",
      "type": "event"
    },
    {
      "inputs": [
        {
          "internalType": "address",
          "name": "",
          "type": "address"
        }
      ],
      "name": "currentRide",
      "outputs": [
        {
          "internalType": "uint256",
          "name": "id",
          "type": "uint256"
        },
        {
          "internalType": "address",
          "name": "driver",
          "type": "address"
        },
        {
          "internalType": "string",
          "name": "startLocation",
          "type": "string"
        },
        {
          "internalType": "string",
          "name": "endLocation",
          "type": "string"
        },
        {
          "internalType": "uint256",
          "name": "fare",
          "type": "uint256"
        },
        {
          "internalType": "uint256",
          "name": "date",
          "type": "uint256"
        },
        {
          "internalType": "uint256",
          "name": "time",
          "type": "uint256"
        },
        {
          "internalType": "uint256",
          "name": "noofpass",
          "type": "uint256"
        },
        {
          "internalType": "bool",
          "name": "booked",
          "type": "bool"
        },
        {
          "internalType": "enum RideContract.RideStatus",
          "name": "status",
          "type": "uint8"
        }
      ],
      "stateMutability": "view",
      "type": "function",
      "constant": true
    },
    {
      "inputs": [
        {
          "internalType": "uint256",
          "name": "",
          "type": "uint256"
        }
      ],
      "name": "rides",
      "outputs": [
        {
          "internalType": "uint256",
          "name": "id",
          "type": "uint256"
        },
        {
          "internalType": "address",
          "name": "driver",
          "type": "address"
        },
        {
          "internalType": "string",
          "name": "startLocation",
          "type": "string"
        },
        {
          "internalType": "string",
          "name": "endLocation",
          "type": "string"
        },
        {
          "internalType": "uint256",
          "name": "fare",
          "type": "uint256"
        },
        {
          "internalType": "uint256",
          "name": "date",
          "type": "uint256"
        },
        {
          "internalType": "uint256",
          "name": "time",
          "type": "uint256"
        },
        {
          "internalType": "uint256",
          "name": "noofpass",
          "type": "uint256"
        },
        {
          "internalType": "bool",
          "name": "booked",
          "type": "bool"
        },
        {
          "internalType": "enum RideContract.RideStatus",
          "name": "status",
          "type": "uint8"
        }
      ],
      "stateMutability": "view",
      "type": "function",
      "constant": true
    },
    {
      "inputs": [
        {
          "internalType": "uint256",
          "name": "",
          "type": "uint256"
        }
      ],
      "name": "storedride",
      "outputs": [
        {
          "internalType": "uint256",
          "name": "id",
          "type": "uint256"
        },
        {
          "internalType": "address",
          "name": "driver",
          "type": "address"
        },
        {
          "internalType": "string",
          "name": "startLocation",
          "type": "string"
        },
        {
          "internalType": "string",
          "name": "endLocation",
          "type": "string"
        },
        {
          "internalType": "uint256",
          "name": "fare",
          "type": "uint256"
        },
        {
          "internalType": "uint256",
          "name": "date",
          "type": "uint256"
        },
        {
          "internalType": "uint256",
          "name": "time",
          "type": "uint256"
        },
        {
          "internalType": "uint256",
          "name": "noofpass",
          "type": "uint256"
        },
        {
          "internalType": "bool",
          "name": "booked",
          "type": "bool"
        },
        {
          "internalType": "enum RideContract.RideStatus",
          "name": "status",
          "type": "uint8"
        }
      ],
      "stateMutability": "view",
      "type": "function",
      "constant": true
    },
    {
      "inputs": [],
      "name": "totalRides",
      "outputs": [
        {
          "internalType": "uint256",
          "name": "",
          "type": "uint256"
        }
      ],
      "stateMutability": "view",
      "type": "function",
      "constant": true
    },
    {
      "inputs": [
        {
          "internalType": "string",
          "name": "_startLocation",
          "type": "string"
        },
        {
          "internalType": "string",
          "name": "_endLocation",
          "type": "string"
        },
        {
          "internalType": "uint256",
          "name": "_fare",
          "type": "uint256"
        },
        {
          "internalType": "uint256",
          "name": "_date",
          "type": "uint256"
        },
        {
          "internalType": "uint256",
          "name": "_time",
          "type": "uint256"
        },
        {
          "internalType": "uint256",
          "name": "_noofpass",
          "type": "uint256"
        }
      ],
      "name": "createRide",
      "outputs": [],
      "stateMutability": "nonpayable",
      "type": "function"
    },
    {
      "inputs": [
        {
          "internalType": "uint256",
          "name": "_rideId",
          "type": "uint256"
        }
      ],
      "name": "decrementSeats",
      "outputs": [
        {
          "internalType": "uint256",
          "name": "",
          "type": "uint256"
        }
      ],
      "stateMutability": "nonpayable",
      "type": "function"
    },
    {
      "inputs": [
        {
          "internalType": "uint256",
          "name": "_id",
          "type": "uint256"
        }
      ],
      "name": "getDetails",
      "outputs": [
        {
          "internalType": "string",
          "name": "",
          "type": "string"
        },
        {
          "internalType": "string",
          "name": "",
          "type": "string"
        },
        {
          "internalType": "uint256",
          "name": "",
          "type": "uint256"
        },
        {
          "internalType": "uint256",
          "name": "",
          "type": "uint256"
        },
        {
          "internalType": "uint256",
          "name": "",
          "type": "uint256"
        },
        {
          "internalType": "uint256",
          "name": "",
          "type": "uint256"
        },
        {
          "internalType": "address",
          "name": "",
          "type": "address"
        }
      ],
      "stateMutability": "view",
      "type": "function",
      "constant": true
    },
    {
      "inputs": [
        {
          "internalType": "uint256",
          "name": "_rideId",
          "type": "uint256"
        }
      ],
      "name": "deleteRide",
      "outputs": [],
      "stateMutability": "nonpayable",
      "type": "function"
    }
  ],
  "bytecode": "0x6080604052600060035534801561001557600080fd5b50611077806100256000396000f3fe608060405234801561001057600080fd5b50600436106100885760003560e01c8063b34cad211161005b578063b34cad2114610104578063b93a89f714610117578063be69d9c21461013d578063e0b05ea61461015057600080fd5b80633c70c1571461008d57806346afbcfc146100a25780635205f112146100c857806387bb2f53146100f1575b600080fd5b6100a061009b366004610bca565b610159565b005b6100b56100b0366004610bca565b6101d8565b6040519081526020015b60405180910390f35b6100db6100d6366004610bca565b6102ff565b6040516100bf9a99989796959493929190610c3f565b6100db6100ff366004610cd6565b610481565b6100a0610112366004610da9565b6104b4565b61012a610125366004610bca565b6108c5565b6040516100bf9796959493929190610e30565b6100db61014b366004610bca565b610b64565b6100b560035481565b6000818154811061016c5761016c610e89565b6000918252602082206009909102018181556001810180546001600160a01b03191690559061019e6002830182610b74565b6101ac600383016000610b74565b5060006004820181905560058201819055600682018190556007820155600801805461ffff1916905550565b600080821180156101eb57506000548211155b61022e5760405162461bcd60e51b815260206004820152600f60248201526e125b9d985b1a59081c9a5919481251608a1b60448201526064015b60405180910390fd5b60008061023c600185610eb5565b8154811061024c5761024c610e89565b9060005260206000209060090201905060008160070154116102b05760405162461bcd60e51b815260206004820152601a60248201527f4e6f20617661696c61626c6520736561747320696e20726964650000000000006044820152606401610225565b6007810180549060006102c283610ece565b90915550600090506102d5600185610eb5565b815481106102e5576102e5610e89565b906000526020600020906009020160070154915050919050565b6000818154811061030f57600080fd5b60009182526020909120600990910201805460018201546002830180549294506001600160a01b03909116929161034590610ee5565b80601f016020809104026020016040519081016040528092919081815260200182805461037190610ee5565b80156103be5780601f10610393576101008083540402835291602001916103be565b820191906000526020600020905b8154815290600101906020018083116103a157829003601f168201915b5050505050908060030180546103d390610ee5565b80601f01602080910402602001604051908101604052809291908181526020018280546103ff90610ee5565b801561044c5780601f106104215761010080835404028352916020019161044c565b820191906000526020600020905b81548152906001019060200180831161042f57829003601f168201915b505050600484015460058501546006860154600787015460089097015495969295919450925060ff808216916101009004168a565b600260208190526000918252604090912080546001820154928201805491936001600160a01b0316929161034590610ee5565b600080546104c3906001610f1f565b90506000604051806101400160405280838152602001336001600160a01b031681526020018981526020018881526020018781526020018681526020018581526020018481526020016000151581526020016000600281111561052857610528610c29565b90526000805460018101825590805281517f290decd9548b62a8d60345a988386fc84ba6bc95484008f6362f93160ef3e563600990920291820190815560208301517f290decd9548b62a8d60345a988386fc84ba6bc95484008f6362f93160ef3e564830180546001600160a01b0319166001600160a01b039092169190911790556040830151929350839290917f290decd9548b62a8d60345a988386fc84ba6bc95484008f6362f93160ef3e56501906105e39082610f81565b50606082015160038201906105f89082610f81565b506080820151600482015560a0820151600582015560c0820151600682015560e082015160078201556101008083015160088301805491151560ff1983168117825561012086015193919261ff001990911661ffff19909116179083600281111561066557610665610c29565b0217905550503360009081526002602081815260409283902085518155908501516001820180546001600160a01b0319166001600160a01b0390921691909117905591840151849350908201906106bc9082610f81565b50606082015160038201906106d19082610f81565b506080820151600482015560a0820151600582015560c0820151600682015560e082015160078201556101008083015160088301805491151560ff1983168117825561012086015193919261ff001990911661ffff19909116179083600281111561073e5761073e610c29565b02179055505060018054808201825560009190915282517fb10e2d527612073b26eecdfd717e6a320cf44b4afac2b0732d9fcbe2b7fa0cf6600990920291820190815560208401517fb10e2d527612073b26eecdfd717e6a320cf44b4afac2b0732d9fcbe2b7fa0cf7830180546001600160a01b0319166001600160a01b03909216919091179055604084015184935090917fb10e2d527612073b26eecdfd717e6a320cf44b4afac2b0732d9fcbe2b7fa0cf801906107fd9082610f81565b50606082015160038201906108129082610f81565b506080820151600482015560a0820151600582015560c0820151600682015560e082015160078201556101008083015160088301805491151560ff1983168117825561012086015193919261ff001990911661ffff19909116179083600281111561087f5761087f610c29565b0217905550506040518381527f195c1bff7ad0c020d447b95b5458d5fef9c1c01f88f8682ee06bd178afa18538915060200160405180910390a150600355505050505050565b606080600080808080806108da60018a610eb5565b815481106108ea576108ea610e89565b9060005260206000209060090201600201600060018a61090a9190610eb5565b8154811061091a5761091a610e89565b9060005260206000209060090201600301600060018b61093a9190610eb5565b8154811061094a5761094a610e89565b906000526020600020906009020160040154600060018c61096b9190610eb5565b8154811061097b5761097b610e89565b906000526020600020906009020160050154600060018d61099c9190610eb5565b815481106109ac576109ac610e89565b906000526020600020906009020160060154600060018e6109cd9190610eb5565b815481106109dd576109dd610e89565b906000526020600020906009020160070154600060018f6109fe9190610eb5565b81548110610a0e57610a0e610e89565b906000526020600020906009020160010160009054906101000a90046001600160a01b0316868054610a3f90610ee5565b80601f0160208091040260200160405190810160405280929190818152602001828054610a6b90610ee5565b8015610ab85780601f10610a8d57610100808354040283529160200191610ab8565b820191906000526020600020905b815481529060010190602001808311610a9b57829003601f168201915b50505050509650858054610acb90610ee5565b80601f0160208091040260200160405190810160405280929190818152602001828054610af790610ee5565b8015610b445780601f10610b1957610100808354040283529160200191610b44565b820191906000526020600020905b815481529060010190602001808311610b2757829003601f168201915b505050505095509650965096509650965096509650919395979092949650565b6001818154811061030f57600080fd5b508054610b8090610ee5565b6000825580601f10610b90575050565b601f016020900490600052602060002090810190610bae9190610bb1565b50565b5b80821115610bc65760008155600101610bb2565b5090565b600060208284031215610bdc57600080fd5b5035919050565b6000815180845260005b81811015610c0957602081850181015186830182015201610bed565b506000602082860101526020601f19601f83011685010191505092915050565b634e487b7160e01b600052602160045260246000fd5b8a81526001600160a01b038a16602082015261014060408201819052600090610c6a8382018c610be3565b90508281036060840152610c7e818b610be3565b9150508760808301528660a08301528560c08301528460e083015283151561010083015260038310610cc057634e487b7160e01b600052602160045260246000fd5b826101208301529b9a5050505050505050505050565b600060208284031215610ce857600080fd5b81356001600160a01b0381168114610cff57600080fd5b9392505050565b634e487b7160e01b600052604160045260246000fd5b600082601f830112610d2d57600080fd5b813567ffffffffffffffff80821115610d4857610d48610d06565b604051601f8301601f19908116603f01168101908282118183101715610d7057610d70610d06565b81604052838152866020858801011115610d8957600080fd5b836020870160208301376000602085830101528094505050505092915050565b60008060008060008060c08789031215610dc257600080fd5b863567ffffffffffffffff80821115610dda57600080fd5b610de68a838b01610d1c565b97506020890135915080821115610dfc57600080fd5b50610e0989828a01610d1c565b96999698505050506040850135946060810135946080820135945060a09091013592509050565b60e081526000610e4360e083018a610be3565b8281036020840152610e55818a610be3565b604084019890985250506060810194909452608084019290925260a08301526001600160a01b031660c09091015292915050565b634e487b7160e01b600052603260045260246000fd5b634e487b7160e01b600052601160045260246000fd5b81810381811115610ec857610ec8610e9f565b92915050565b600081610edd57610edd610e9f565b506000190190565b600181811c90821680610ef957607f821691505b602082108103610f1957634e487b7160e01b600052602260045260246000fd5b50919050565b80820180821115610ec857610ec8610e9f565b601f821115610f7c57600081815260208120601f850160051c81016020861015610f595750805b601f850160051c820191505b81811015610f7857828155600101610f65565b5050505b505050565b815167ffffffffffffffff811115610f9b57610f9b610d06565b610faf81610fa98454610ee5565b84610f32565b602080601f831160018114610fe45760008415610fcc5750858301515b600019600386901b1c1916600185901b178555610f78565b600085815260208120601f198616915b8281101561101357888601518255948401946001909101908401610ff4565b50858210156110315787850151600019600388901b60f8161c191681555b5050505050600190811b0190555056fea2646970667358221220aa58d2c3c95ead2c5d22e08061969426736faf3a9292ee67c9cd2c2991091df664736f6c63430008130033",
  "immutableReferences": {},
  "source": "// SPDX-License-Identifier: MIT\r\npragma solidity ^0.8.0;\r\n\r\ncontract RideContract {\r\n    enum RideStatus { Active, Completed, Canceled }\r\n\r\n    struct Ride {\r\n        uint id;\r\n        address driver;\r\n        string startLocation;\r\n        string endLocation;\r\n        uint256 fare;\r\n        uint256 date;\r\n        uint256 time;\r\n        uint256 noofpass;\r\n        // uint256 availableSeats;\r\n        bool booked;\r\n        RideStatus status;\r\n    }\r\n\r\n    Ride[] public rides;\r\n    Ride[] public storedride;\r\n   \r\n    mapping(address=>Ride) public currentRide;\r\n\r\n    event NewRide(uint rideId);\r\n    uint256 public totalRides=0;\r\n    function createRide(string memory _startLocation, string memory _endLocation, uint256 _fare, uint256 _date, uint256 _time, uint256 _noofpass) public {\r\n        uint rideId = rides.length + 1;\r\n        Ride memory newRide = Ride({\r\n            id: rideId,\r\n            driver: msg.sender,\r\n            startLocation: _startLocation,\r\n            endLocation: _endLocation,\r\n            fare: _fare,\r\n            date: _date,\r\n            time: _time,\r\n            booked: false,\r\n            status: RideStatus.Active, \r\n            noofpass: _noofpass\r\n            // availableSeats: _noofpass\r\n        });\r\n        rides.push(newRide);\r\n        currentRide[msg.sender]=newRide; \r\n        storedride.push(newRide);      \r\n        emit NewRide(rideId);\r\n        totalRides=rideId;\r\n    }\r\n    function decrementSeats(uint256 _rideId) public returns (uint256) {\r\n        require(_rideId > 0 && _rideId <= rides.length, \"Invalid ride ID\");\r\n        Ride storage ride = rides[_rideId-1];\r\n        require(ride.noofpass > 0, \"No available seats in ride\");\r\n        ride.noofpass--;\r\n        return(rides[_rideId-1].noofpass);\r\n    }\r\n    function getDetails(uint256 _id)public view returns(string memory,string memory,uint256,uint256,uint256,uint256,address){\r\n        return (rides[_id-1].startLocation,rides[_id-1].endLocation,rides[_id-1].fare,rides[_id-1].date,rides[_id-1].time,rides[_id-1].noofpass,rides[_id-1].driver);\r\n    }\r\n    \r\n\r\n    function deleteRide(uint256 _rideId) public {\r\n        delete rides[_rideId];\r\n    }\r\n    \r\n}",
  "sourcePath": "D:\\Yugo_Blockchain\\src\\contracts\\RideContract.sol",
  "compiler": {
    "name": "solc",
    "version": "0.8.19+commit.7dd6d404.Emscripten.clang"
  },
  "schemaVersion": "3.4.12",
  "updatedAt": "2023-04-30T14:16:07.755Z",
  "networkType": "ethereum",
  "devdoc": {
    "kind": "dev",
    "methods": {},
    "version": 1
  },
  "userdoc": {
    "kind": "user",
    "methods": {},
    "version": 1
  }
}