{
  "contractName": "RideManagementContract",
  "abi": [
    {
      "anonymous": false,
      "inputs": [
        {
          "indexed": false,
          "internalType": "uint256",
          "name": "rideId",
          "type": "uint256"
        }
      ],
      "name": "NewRide",
      "type": "event"
    },
    {
      "inputs": [],
      "name": "CarbonCredits",
      "outputs": [
        {
          "internalType": "uint256",
          "name": "",
          "type": "uint256"
        }
      ],
      "stateMutability": "view",
      "type": "function",
      "constant": true
    },
    {
      "inputs": [],
      "name": "amountPaid",
      "outputs": [
        {
          "internalType": "uint256",
          "name": "",
          "type": "uint256"
        }
      ],
      "stateMutability": "view",
      "type": "function",
      "constant": true
    },
    {
      "inputs": [
        {
          "internalType": "uint256",
          "name": "",
          "type": "uint256"
        }
      ],
      "name": "completedRides",
      "outputs": [
        {
          "internalType": "uint256",
          "name": "",
          "type": "uint256"
        }
      ],
      "stateMutability": "view",
      "type": "function",
      "constant": true
    },
    {
      "inputs": [
        {
          "internalType": "string",
          "name": "_startLocation",
          "type": "string"
        },
        {
          "internalType": "string",
          "name": "_endLocation",
          "type": "string"
        },
        {
          "internalType": "uint256",
          "name": "_fare",
          "type": "uint256"
        },
        {
          "internalType": "uint256",
          "name": "_date",
          "type": "uint256"
        },
        {
          "internalType": "uint256",
          "name": "_time",
          "type": "uint256"
        },
        {
          "internalType": "uint256",
          "name": "_noofpass",
          "type": "uint256"
        }
      ],
      "name": "createRide",
      "outputs": [],
      "stateMutability": "nonpayable",
      "type": "function"
    },
    {
      "inputs": [
        {
          "internalType": "address",
          "name": "",
          "type": "address"
        }
      ],
      "name": "currentRide",
      "outputs": [
        {
          "internalType": "uint256",
          "name": "id",
          "type": "uint256"
        },
        {
          "internalType": "address",
          "name": "driver",
          "type": "address"
        },
        {
          "internalType": "string",
          "name": "startLocation",
          "type": "string"
        },
        {
          "internalType": "string",
          "name": "endLocation",
          "type": "string"
        },
        {
          "internalType": "uint256",
          "name": "fare",
          "type": "uint256"
        },
        {
          "internalType": "uint256",
          "name": "date",
          "type": "uint256"
        },
        {
          "internalType": "uint256",
          "name": "time",
          "type": "uint256"
        },
        {
          "internalType": "uint256",
          "name": "noofpass",
          "type": "uint256"
        },
        {
          "internalType": "bool",
          "name": "booked",
          "type": "bool"
        },
        {
          "internalType": "enum RideContract.RideStatus",
          "name": "status",
          "type": "uint8"
        }
      ],
      "stateMutability": "view",
      "type": "function",
      "constant": true
    },
    {
      "inputs": [
        {
          "internalType": "uint256",
          "name": "_rideId",
          "type": "uint256"
        }
      ],
      "name": "decrementSeats",
      "outputs": [
        {
          "internalType": "string",
          "name": "",
          "type": "string"
        },
        {
          "internalType": "string",
          "name": "",
          "type": "string"
        },
        {
          "internalType": "uint256",
          "name": "",
          "type": "uint256"
        },
        {
          "internalType": "uint256",
          "name": "",
          "type": "uint256"
        },
        {
          "internalType": "uint256",
          "name": "",
          "type": "uint256"
        },
        {
          "internalType": "uint256",
          "name": "",
          "type": "uint256"
        },
        {
          "internalType": "uint256",
          "name": "",
          "type": "uint256"
        }
      ],
      "stateMutability": "nonpayable",
      "type": "function"
    },
    {
      "inputs": [
        {
          "internalType": "uint256",
          "name": "_rideId",
          "type": "uint256"
        }
      ],
      "name": "deleteRide",
      "outputs": [],
      "stateMutability": "nonpayable",
      "type": "function"
    },
    {
      "inputs": [
        {
          "internalType": "uint256",
          "name": "_id",
          "type": "uint256"
        }
      ],
      "name": "getDetails",
      "outputs": [
        {
          "internalType": "string",
          "name": "",
          "type": "string"
        },
        {
          "internalType": "string",
          "name": "",
          "type": "string"
        },
        {
          "internalType": "uint256",
          "name": "",
          "type": "uint256"
        },
        {
          "internalType": "uint256",
          "name": "",
          "type": "uint256"
        },
        {
          "internalType": "uint256",
          "name": "",
          "type": "uint256"
        },
        {
          "internalType": "uint256",
          "name": "",
          "type": "uint256"
        },
        {
          "internalType": "address",
          "name": "",
          "type": "address"
        }
      ],
      "stateMutability": "view",
      "type": "function",
      "constant": true
    },
    {
      "inputs": [],
      "name": "getLength",
      "outputs": [
        {
          "internalType": "uint256",
          "name": "",
          "type": "uint256"
        }
      ],
      "stateMutability": "view",
      "type": "function",
      "constant": true
    },
    {
      "inputs": [
        {
          "internalType": "uint256",
          "name": "_id",
          "type": "uint256"
        }
      ],
      "name": "getStoredDetails",
      "outputs": [
        {
          "internalType": "string",
          "name": "",
          "type": "string"
        },
        {
          "internalType": "string",
          "name": "",
          "type": "string"
        },
        {
          "internalType": "string",
          "name": "",
          "type": "string"
        },
        {
          "internalType": "uint256",
          "name": "",
          "type": "uint256"
        },
        {
          "internalType": "uint256",
          "name": "",
          "type": "uint256"
        }
      ],
      "stateMutability": "view",
      "type": "function",
      "constant": true
    },
    {
      "inputs": [],
      "name": "numBookedRides",
      "outputs": [
        {
          "internalType": "uint256",
          "name": "",
          "type": "uint256"
        }
      ],
      "stateMutability": "view",
      "type": "function",
      "constant": true
    },
    {
      "inputs": [],
      "name": "numCreatedRides",
      "outputs": [
        {
          "internalType": "uint256",
          "name": "",
          "type": "uint256"
        }
      ],
      "stateMutability": "view",
      "type": "function",
      "constant": true
    },
    {
      "inputs": [],
      "name": "rideDate",
      "outputs": [
        {
          "internalType": "string",
          "name": "",
          "type": "string"
        }
      ],
      "stateMutability": "view",
      "type": "function",
      "constant": true
    },
    {
      "inputs": [
        {
          "internalType": "uint256",
          "name": "",
          "type": "uint256"
        }
      ],
      "name": "rideDetails",
      "outputs": [
        {
          "internalType": "string",
          "name": "rideFrom",
          "type": "string"
        },
        {
          "internalType": "string",
          "name": "rideTo",
          "type": "string"
        },
        {
          "internalType": "string",
          "name": "rideDate",
          "type": "string"
        },
        {
          "internalType": "uint256",
          "name": "rideTime",
          "type": "uint256"
        },
        {
          "internalType": "uint256",
          "name": "amountPaid",
          "type": "uint256"
        }
      ],
      "stateMutability": "view",
      "type": "function",
      "constant": true
    },
    {
      "inputs": [],
      "name": "rideFrom",
      "outputs": [
        {
          "internalType": "string",
          "name": "",
          "type": "string"
        }
      ],
      "stateMutability": "view",
      "type": "function",
      "constant": true
    },
    {
      "inputs": [],
      "name": "rideTime",
      "outputs": [
        {
          "internalType": "string",
          "name": "",
          "type": "string"
        }
      ],
      "stateMutability": "view",
      "type": "function",
      "constant": true
    },
    {
      "inputs": [],
      "name": "rideTo",
      "outputs": [
        {
          "internalType": "string",
          "name": "",
          "type": "string"
        }
      ],
      "stateMutability": "view",
      "type": "function",
      "constant": true
    },
    {
      "inputs": [
        {
          "internalType": "uint256",
          "name": "",
          "type": "uint256"
        }
      ],
      "name": "rides",
      "outputs": [
        {
          "internalType": "uint256",
          "name": "id",
          "type": "uint256"
        },
        {
          "internalType": "address",
          "name": "driver",
          "type": "address"
        },
        {
          "internalType": "string",
          "name": "startLocation",
          "type": "string"
        },
        {
          "internalType": "string",
          "name": "endLocation",
          "type": "string"
        },
        {
          "internalType": "uint256",
          "name": "fare",
          "type": "uint256"
        },
        {
          "internalType": "uint256",
          "name": "date",
          "type": "uint256"
        },
        {
          "internalType": "uint256",
          "name": "time",
          "type": "uint256"
        },
        {
          "internalType": "uint256",
          "name": "noofpass",
          "type": "uint256"
        },
        {
          "internalType": "bool",
          "name": "booked",
          "type": "bool"
        },
        {
          "internalType": "enum RideContract.RideStatus",
          "name": "status",
          "type": "uint8"
        }
      ],
      "stateMutability": "view",
      "type": "function",
      "constant": true
    },
    {
      "inputs": [
        {
          "internalType": "string",
          "name": "_rideFrom",
          "type": "string"
        },
        {
          "internalType": "string",
          "name": "_rideTo",
          "type": "string"
        },
        {
          "internalType": "string",
          "name": "_rideDate",
          "type": "string"
        },
        {
          "internalType": "uint256",
          "name": "_rideTime",
          "type": "uint256"
        },
        {
          "internalType": "uint256",
          "name": "_amountPaid",
          "type": "uint256"
        }
      ],
      "name": "storeRideDetails",
      "outputs": [],
      "stateMutability": "nonpayable",
      "type": "function"
    },
    {
      "inputs": [
        {
          "internalType": "uint256",
          "name": "",
          "type": "uint256"
        }
      ],
      "name": "storedride",
      "outputs": [
        {
          "internalType": "uint256",
          "name": "id",
          "type": "uint256"
        },
        {
          "internalType": "address",
          "name": "driver",
          "type": "address"
        },
        {
          "internalType": "string",
          "name": "startLocation",
          "type": "string"
        },
        {
          "internalType": "string",
          "name": "endLocation",
          "type": "string"
        },
        {
          "internalType": "uint256",
          "name": "fare",
          "type": "uint256"
        },
        {
          "internalType": "uint256",
          "name": "date",
          "type": "uint256"
        },
        {
          "internalType": "uint256",
          "name": "time",
          "type": "uint256"
        },
        {
          "internalType": "uint256",
          "name": "noofpass",
          "type": "uint256"
        },
        {
          "internalType": "bool",
          "name": "booked",
          "type": "bool"
        },
        {
          "internalType": "enum RideContract.RideStatus",
          "name": "status",
          "type": "uint8"
        }
      ],
      "stateMutability": "view",
      "type": "function",
      "constant": true
    },
    {
      "inputs": [],
      "name": "totalRides",
      "outputs": [
        {
          "internalType": "uint256",
          "name": "",
          "type": "uint256"
        }
      ],
      "stateMutability": "view",
      "type": "function",
      "constant": true
    },
    {
      "inputs": [
        {
          "internalType": "uint256",
          "name": "_rideId",
          "type": "uint256"
        }
      ],
      "name": "markRideAsComplete",
      "outputs": [
        {
          "internalType": "bool",
          "name": "",
          "type": "bool"
        }
      ],
      "stateMutability": "nonpayable",
      "type": "function"
    }
  ],
  "bytecode": "0x60806040526000600b5534801561001557600080fd5b50611f98806100256000396000f3fe608060405234801561001057600080fd5b50600436106101425760003560e01c8063880ed4ca116100b8578063be69d9c21161007c578063be69d9c2146102b7578063ddfc6d27146102ca578063e0b05ea6146102d2578063f333a688146102db578063f70b97a1146102e4578063f9d88659146102f757600080fd5b8063880ed4ca1461024b578063a6ceb4261461026e578063b34cad2114610276578063b93a89f714610289578063be1c766b146102af57600080fd5b80634826bad61161010a5780634826bad6146101ba5780635205f112146101de57806359994dcc146102075780635bbef3e01461021c57806366a759c21461022f57806387bb2f531461023857600080fd5b806321583ae014610147578063216340c3146101635780633c70c1571461016c578063416824ea1461018157806346afbcfc14610194575b600080fd5b61015060095481565b6040519081526020015b60405180910390f35b61015060045481565b61017f61017a366004611896565b6102ff565b005b61015061018f366004611896565b61037e565b6101a76101a2366004611896565b61039f565b60405161015a97969594939291906118f5565b6101cd6101c8366004611896565b6106ef565b60405161015a959493929190611945565b6101f16101ec366004611896565b6108cd565b60405161015a9a999897969594939291906119a9565b61020f610a4f565b60405161015a9190611a40565b6101cd61022a366004611896565b610add565b610150600a5481565b6101f1610246366004611a5a565b610d52565b61025e610259366004611896565b610d84565b604051901515815260200161015a565b61020f61106a565b61017f610284366004611b26565b611077565b61029c610297366004611896565b6114bf565b60405161015a9796959493929190611bad565b600c54610150565b6101f16102c5366004611896565b61175f565b61020f61176f565b610150600b5481565b61015060085481565b61017f6102f2366004611c06565b61177c565b61020f611833565b6005818154811061031257610312611ca0565b6000918252602082206009909102018181556001810180546001600160a01b0319169055906103446002830182611840565b610352600383016000611840565b5060006004820181905560058201819055600682018190556007820155600801805461ffff1916905550565b600e818154811061038e57600080fd5b600091825260209091200154905081565b606080600080600080600080881180156103bb57506005548811155b6103fe5760405162461bcd60e51b815260206004820152600f60248201526e125b9d985b1a59081c9a5919481251608a1b60448201526064015b60405180910390fd5b6000600561040d60018b611ccc565b8154811061041d5761041d611ca0565b9060005260206000209060090201905060008160070154116104815760405162461bcd60e51b815260206004820152601a60248201527f4e6f20617661696c61626c6520736561747320696e207269646500000000000060448201526064016103f5565b60078101805490600061049383611ce5565b9091555050600a80549060006104a883611cfc565b91905055506005600960008282546104c09190611d15565b90915550600590506104d360018b611ccc565b815481106104e3576104e3611ca0565b9060005260206000209060090201600201600560018b6105039190611ccc565b8154811061051357610513611ca0565b9060005260206000209060090201600301600560018c6105339190611ccc565b8154811061054357610543611ca0565b906000526020600020906009020160050154600560018d6105649190611ccc565b8154811061057457610574611ca0565b906000526020600020906009020160060154600560018e6105959190611ccc565b815481106105a5576105a5611ca0565b906000526020600020906009020160070154600a546009548680546105c990611d28565b80601f01602080910402602001604051908101604052809291908181526020018280546105f590611d28565b80156106425780601f1061061757610100808354040283529160200191610642565b820191906000526020600020905b81548152906001019060200180831161062557829003601f168201915b5050505050965085805461065590611d28565b80601f016020809104026020016040519081016040528092919081815260200182805461068190611d28565b80156106ce5780601f106106a3576101008083540402835291602001916106ce565b820191906000526020600020905b8154815290600101906020018083116106b157829003601f168201915b50505050509550975097509750975097509750975050919395979092949650565b600c81815481106106ff57600080fd5b906000526020600020906005020160009150905080600001805461072290611d28565b80601f016020809104026020016040519081016040528092919081815260200182805461074e90611d28565b801561079b5780601f106107705761010080835404028352916020019161079b565b820191906000526020600020905b81548152906001019060200180831161077e57829003601f168201915b5050505050908060010180546107b090611d28565b80601f01602080910402602001604051908101604052809291908181526020018280546107dc90611d28565b80156108295780601f106107fe57610100808354040283529160200191610829565b820191906000526020600020905b81548152906001019060200180831161080c57829003601f168201915b50505050509080600201805461083e90611d28565b80601f016020809104026020016040519081016040528092919081815260200182805461086a90611d28565b80156108b75780601f1061088c576101008083540402835291602001916108b7565b820191906000526020600020905b81548152906001019060200180831161089a57829003601f168201915b5050505050908060030154908060040154905085565b600581815481106108dd57600080fd5b60009182526020909120600990910201805460018201546002830180549294506001600160a01b03909116929161091390611d28565b80601f016020809104026020016040519081016040528092919081815260200182805461093f90611d28565b801561098c5780601f106109615761010080835404028352916020019161098c565b820191906000526020600020905b81548152906001019060200180831161096f57829003601f168201915b5050505050908060030180546109a190611d28565b80601f01602080910402602001604051908101604052809291908181526020018280546109cd90611d28565b8015610a1a5780601f106109ef57610100808354040283529160200191610a1a565b820191906000526020600020905b8154815290600101906020018083116109fd57829003601f168201915b505050600484015460058501546006860154600787015460089097015495969295919450925060ff808216916101009004168a565b60018054610a5c90611d28565b80601f0160208091040260200160405190810160405280929190818152602001828054610a8890611d28565b8015610ad55780601f10610aaa57610100808354040283529160200191610ad5565b820191906000526020600020905b815481529060010190602001808311610ab857829003601f168201915b505050505081565b6060806060600080600c8681548110610af857610af8611ca0565b9060005260206000209060050201600001600c8781548110610b1c57610b1c611ca0565b9060005260206000209060050201600101600c8881548110610b4057610b40611ca0565b9060005260206000209060050201600201600c8981548110610b6457610b64611ca0565b906000526020600020906005020160030154600c8a81548110610b8957610b89611ca0565b906000526020600020906005020160040154848054610ba790611d28565b80601f0160208091040260200160405190810160405280929190818152602001828054610bd390611d28565b8015610c205780601f10610bf557610100808354040283529160200191610c20565b820191906000526020600020905b815481529060010190602001808311610c0357829003601f168201915b50505050509450838054610c3390611d28565b80601f0160208091040260200160405190810160405280929190818152602001828054610c5f90611d28565b8015610cac5780601f10610c8157610100808354040283529160200191610cac565b820191906000526020600020905b815481529060010190602001808311610c8f57829003601f168201915b50505050509350828054610cbf90611d28565b80601f0160208091040260200160405190810160405280929190818152602001828054610ceb90611d28565b8015610d385780601f10610d0d57610100808354040283529160200191610d38565b820191906000526020600020905b815481529060010190602001808311610d1b57829003601f168201915b505050505092509450945094509450945091939590929450565b60076020526000908152604090208054600182015460028301805492936001600160a01b039092169261091390611d28565b60006005610d93600184611ccc565b81548110610da357610da3611ca0565b60009182526020909120600990910201600101546001600160a01b03163314610e045760405162461bcd60e51b8152602060048201526013602482015272556e617574686f72697a65642061636365737360681b60448201526064016103f5565b60016005610e128285611ccc565b81548110610e2257610e22611ca0565b60009182526020909120600860099092020101805461ff001916610100836002811115610e5157610e51611993565b021790555060066005610e65600185611ccc565b81548110610e7557610e75611ca0565b600091825260208083208454600181810187559585529190932060099283029093018054919092029092019182558281015492820180546001600160a01b0319166001600160a01b0390941693909317909255600280820190610eda90840182611db1565b50600381810190610eed90840182611db1565b506004828101549082015560058083015490820155600680830154908201556007808301549082015560088083018054918301805460ff938416151560ff1982168117835592546101009081900490941693919261ff00191661ffff199091161790836002811115610f6157610f61611993565b021790555050336000908152600d6020526040812091505b815481101561102d5783828281548110610f9557610f95611ca0565b90600052602060002001540361101b5781548290610fb590600190611ccc565b81548110610fc557610fc5611ca0565b9060005260206000200154828281548110610fe257610fe2611ca0565b90600052602060002001819055508180548061100057611000611e92565b6001900381819060005260206000200160009055905561102d565b8061102581611cfc565b915050610f79565b5050600e8054600181810183556000929092527fbb7b4a454dc3493923482f07822329ed19e8244eff582cc204f8554c3620c3fd01929092555090565b60028054610a5c90611d28565b600554600090611088906001611d15565b90506000604051806101400160405280838152602001336001600160a01b03168152602001898152602001888152602001878152602001868152602001858152602001848152602001600015158152602001600060028111156110ed576110ed611993565b90526005805460018101825560009190915281517f036b6384b5eca791c62761152d0c79bb0604c104a5fb6f4eb0703f3154bb3db0600990920291820190815560208301517f036b6384b5eca791c62761152d0c79bb0604c104a5fb6f4eb0703f3154bb3db1830180546001600160a01b0319166001600160a01b039092169190911790556040830151929350839290917f036b6384b5eca791c62761152d0c79bb0604c104a5fb6f4eb0703f3154bb3db201906111ab9082611ea8565b50606082015160038201906111c09082611ea8565b506080820151600482015560a0820151600582015560c0820151600682015560e082015160078201556101008083015160088301805491151560ff1983168117825561012086015193919261ff001990911661ffff19909116179083600281111561122d5761122d611993565b0217905550503360009081526007602090815260409182902084518155908401516001820180546001600160a01b0319166001600160a01b039092169190911790559083015183925060028201906112859082611ea8565b506060820151600382019061129a9082611ea8565b506080820151600482015560a0820151600582015560c0820151600682015560e082015160078201556101008083015160088301805491151560ff1983168117825561012086015193919261ff001990911661ffff19909116179083600281111561130757611307611993565b0217905550506006805460018101825560009190915282517ff652222313e28459528d920b65115c16c04f3efc82aaedc97be59f3f377c0d3f600990920291820190815560208401517ff652222313e28459528d920b65115c16c04f3efc82aaedc97be59f3f377c0d40830180546001600160a01b0319166001600160a01b03909216919091179055604084015184935090917ff652222313e28459528d920b65115c16c04f3efc82aaedc97be59f3f377c0d4101906113c79082611ea8565b50606082015160038201906113dc9082611ea8565b506080820151600482015560a0820151600582015560c0820151600682015560e082015160078201556101008083015160088301805491151560ff1983168117825561012086015193919261ff001990911661ffff19909116179083600281111561144957611449611993565b0217905550506040518381527f195c1bff7ad0c020d447b95b5458d5fef9c1c01f88f8682ee06bd178afa18538915060200160405180910390a1600b8290556008805490600061149883611cfc565b9190505550600a600960008282546114b09190611d15565b90915550505050505050505050565b60608060008080808060056114d560018a611ccc565b815481106114e5576114e5611ca0565b9060005260206000209060090201600201600560018a6115059190611ccc565b8154811061151557611515611ca0565b9060005260206000209060090201600301600560018b6115359190611ccc565b8154811061154557611545611ca0565b906000526020600020906009020160040154600560018c6115669190611ccc565b8154811061157657611576611ca0565b906000526020600020906009020160050154600560018d6115979190611ccc565b815481106115a7576115a7611ca0565b906000526020600020906009020160060154600560018e6115c89190611ccc565b815481106115d8576115d8611ca0565b906000526020600020906009020160070154600560018f6115f99190611ccc565b8154811061160957611609611ca0565b906000526020600020906009020160010160009054906101000a90046001600160a01b031686805461163a90611d28565b80601f016020809104026020016040519081016040528092919081815260200182805461166690611d28565b80156116b35780601f10611688576101008083540402835291602001916116b3565b820191906000526020600020905b81548152906001019060200180831161169657829003601f168201915b505050505096508580546116c690611d28565b80601f01602080910402602001604051908101604052809291908181526020018280546116f290611d28565b801561173f5780601f106117145761010080835404028352916020019161173f565b820191906000526020600020905b81548152906001019060200180831161172257829003601f168201915b505050505095509650965096509650965096509650919395979092949650565b600681815481106108dd57600080fd5b60038054610a5c90611d28565b6040805160a081018252868152602081018690529081018490526060810183905260808101829052600c8054600181018255600091909152815182916005027fdf6966c971051c3d54ec59162606531493a51404a002842f56009d7e5cf4a8c7019081906117ea9082611ea8565b50602082015160018201906117ff9082611ea8565b50604082015160028201906118149082611ea8565b5060608201518160030155608082015181600401555050505050505050565b60008054610a5c90611d28565b50805461184c90611d28565b6000825580601f1061185c575050565b601f01602090049060005260206000209081019061187a919061187d565b50565b5b80821115611892576000815560010161187e565b5090565b6000602082840312156118a857600080fd5b5035919050565b6000815180845260005b818110156118d5576020818501810151868301820152016118b9565b506000602082860101526020601f19601f83011685010191505092915050565b60e08152600061190860e083018a6118af565b828103602084015261191a818a6118af565b604084019890985250506060810194909452608084019290925260a083015260c09091015292915050565b60a08152600061195860a08301886118af565b828103602084015261196a81886118af565b9050828103604084015261197e81876118af565b60608401959095525050608001529392505050565b634e487b7160e01b600052602160045260246000fd5b8a81526001600160a01b038a166020820152610140604082018190526000906119d48382018c6118af565b905082810360608401526119e8818b6118af565b9150508760808301528660a08301528560c08301528460e083015283151561010083015260038310611a2a57634e487b7160e01b600052602160045260246000fd5b826101208301529b9a5050505050505050505050565b602081526000611a5360208301846118af565b9392505050565b600060208284031215611a6c57600080fd5b81356001600160a01b0381168114611a5357600080fd5b634e487b7160e01b600052604160045260246000fd5b600082601f830112611aaa57600080fd5b813567ffffffffffffffff80821115611ac557611ac5611a83565b604051601f8301601f19908116603f01168101908282118183101715611aed57611aed611a83565b81604052838152866020858801011115611b0657600080fd5b836020870160208301376000602085830101528094505050505092915050565b60008060008060008060c08789031215611b3f57600080fd5b863567ffffffffffffffff80821115611b5757600080fd5b611b638a838b01611a99565b97506020890135915080821115611b7957600080fd5b50611b8689828a01611a99565b96999698505050506040850135946060810135946080820135945060a09091013592509050565b60e081526000611bc060e083018a6118af565b8281036020840152611bd2818a6118af565b604084019890985250506060810194909452608084019290925260a08301526001600160a01b031660c09091015292915050565b600080600080600060a08688031215611c1e57600080fd5b853567ffffffffffffffff80821115611c3657600080fd5b611c4289838a01611a99565b96506020880135915080821115611c5857600080fd5b611c6489838a01611a99565b95506040880135915080821115611c7a57600080fd5b50611c8788828901611a99565b9598949750949560608101359550608001359392505050565b634e487b7160e01b600052603260045260246000fd5b634e487b7160e01b600052601160045260246000fd5b81810381811115611cdf57611cdf611cb6565b92915050565b600081611cf457611cf4611cb6565b506000190190565b600060018201611d0e57611d0e611cb6565b5060010190565b80820180821115611cdf57611cdf611cb6565b600181811c90821680611d3c57607f821691505b602082108103611d5c57634e487b7160e01b600052602260045260246000fd5b50919050565b601f821115611dac57600081815260208120601f850160051c81016020861015611d895750805b601f850160051c820191505b81811015611da857828155600101611d95565b5050505b505050565b818103611dbc575050565b611dc68254611d28565b67ffffffffffffffff811115611dde57611dde611a83565b611df281611dec8454611d28565b84611d62565b6000601f821160018114611e265760008315611e0e5750848201545b600019600385901b1c1916600184901b178455611e8b565b600085815260209020601f19841690600086815260209020845b83811015611e605782860154825560019586019590910190602001611e40565b5085831015611e7e5781850154600019600388901b60f8161c191681555b50505060018360011b0184555b5050505050565b634e487b7160e01b600052603160045260246000fd5b815167ffffffffffffffff811115611ec257611ec2611a83565b611ed081611dec8454611d28565b602080601f831160018114611f055760008415611eed5750858301515b600019600386901b1c1916600185901b178555611da8565b600085815260208120601f198616915b82811015611f3457888601518255948401946001909101908401611f15565b5085821015611f525787850151600019600388901b60f8161c191681555b5050505050600190811b0190555056fea2646970667358221220a43f78d78ca781bf6f5e745fc676dbf4bbccaf35a57af1d0c580fa951b33bccb64736f6c63430008130033",
  "immutableReferences": {},
  "source": "// SPDX-License-Identifier: MIT\r\npragma solidity ^0.8.0;\r\n\r\nimport \"./RideContract.sol\";\r\n// import \"./CarbonOffsetCredit.sol\";\r\n\r\ncontract RideManagementContract is RideContract {\r\n    mapping (address => uint[])  driverToRides;\r\n    uint[] public completedRides;\r\n\r\n    function markRideAsComplete(uint _rideId) public returns(bool){\r\n        require(msg.sender == rides[_rideId - 1].driver, \"Unauthorized access\");\r\n\r\n        rides[_rideId - 1].status = RideStatus.Completed;\r\n        storedride.push(rides[_rideId - 1]);\r\n\r\n        uint[] storage ridesByDriver = driverToRides[msg.sender];\r\n\r\n        for (uint i = 0; i < ridesByDriver.length; i++) {\r\n            if (ridesByDriver[i] == _rideId) {\r\n                ridesByDriver[i] = ridesByDriver[ridesByDriver.length - 1];\r\n                ridesByDriver.pop();\r\n                break;\r\n            }\r\n        }\r\n\r\n        completedRides.push(_rideId);\r\n        return true;\r\n    }\r\n}\r\n",
  "sourcePath": "D:\\Yugo - Final project\\yugo\\src\\contracts\\RideManagementContract.sol",
  "compiler": {
    "name": "solc",
    "version": "0.8.19+commit.7dd6d404.Emscripten.clang"
  },
  "schemaVersion": "3.4.13",
  "updatedAt": "2023-05-03T05:14:51.973Z",
  "networkType": "ethereum",
  "devdoc": {
    "kind": "dev",
    "methods": {},
    "version": 1
  },
  "userdoc": {
    "kind": "user",
    "methods": {},
    "version": 1
  }
}