{
  "contractName": "RideContract",
  "abi": [
    {
      "anonymous": false,
      "inputs": [
        {
          "indexed": false,
          "internalType": "uint256",
          "name": "rideId",
          "type": "uint256"
        }
      ],
      "name": "NewRide",
      "type": "event"
    },
    {
      "inputs": [
        {
          "internalType": "address",
          "name": "",
          "type": "address"
        }
      ],
      "name": "currentRide",
      "outputs": [
        {
          "internalType": "uint256",
          "name": "id",
          "type": "uint256"
        },
        {
          "internalType": "address",
          "name": "driver",
          "type": "address"
        },
        {
          "internalType": "string",
          "name": "startLocation",
          "type": "string"
        },
        {
          "internalType": "string",
          "name": "endLocation",
          "type": "string"
        },
        {
          "internalType": "uint256",
          "name": "fare",
          "type": "uint256"
        },
        {
          "internalType": "uint256",
          "name": "date",
          "type": "uint256"
        },
        {
          "internalType": "uint256",
          "name": "time",
          "type": "uint256"
        },
        {
          "internalType": "bool",
          "name": "booked",
          "type": "bool"
        },
        {
          "internalType": "enum RideContract.RideStatus",
          "name": "status",
          "type": "uint8"
        }
      ],
      "stateMutability": "view",
      "type": "function",
      "constant": true
    },
    {
      "inputs": [
        {
          "internalType": "uint256",
          "name": "",
          "type": "uint256"
        }
      ],
      "name": "rides",
      "outputs": [
        {
          "internalType": "uint256",
          "name": "id",
          "type": "uint256"
        },
        {
          "internalType": "address",
          "name": "driver",
          "type": "address"
        },
        {
          "internalType": "string",
          "name": "startLocation",
          "type": "string"
        },
        {
          "internalType": "string",
          "name": "endLocation",
          "type": "string"
        },
        {
          "internalType": "uint256",
          "name": "fare",
          "type": "uint256"
        },
        {
          "internalType": "uint256",
          "name": "date",
          "type": "uint256"
        },
        {
          "internalType": "uint256",
          "name": "time",
          "type": "uint256"
        },
        {
          "internalType": "bool",
          "name": "booked",
          "type": "bool"
        },
        {
          "internalType": "enum RideContract.RideStatus",
          "name": "status",
          "type": "uint8"
        }
      ],
      "stateMutability": "view",
      "type": "function",
      "constant": true
    },
    {
      "inputs": [
        {
          "internalType": "uint256",
          "name": "",
          "type": "uint256"
        }
      ],
      "name": "storedride",
      "outputs": [
        {
          "internalType": "uint256",
          "name": "id",
          "type": "uint256"
        },
        {
          "internalType": "address",
          "name": "driver",
          "type": "address"
        },
        {
          "internalType": "string",
          "name": "startLocation",
          "type": "string"
        },
        {
          "internalType": "string",
          "name": "endLocation",
          "type": "string"
        },
        {
          "internalType": "uint256",
          "name": "fare",
          "type": "uint256"
        },
        {
          "internalType": "uint256",
          "name": "date",
          "type": "uint256"
        },
        {
          "internalType": "uint256",
          "name": "time",
          "type": "uint256"
        },
        {
          "internalType": "bool",
          "name": "booked",
          "type": "bool"
        },
        {
          "internalType": "enum RideContract.RideStatus",
          "name": "status",
          "type": "uint8"
        }
      ],
      "stateMutability": "view",
      "type": "function",
      "constant": true
    },
    {
      "inputs": [],
      "name": "totalRides",
      "outputs": [
        {
          "internalType": "uint256",
          "name": "",
          "type": "uint256"
        }
      ],
      "stateMutability": "view",
      "type": "function",
      "constant": true
    },
    {
      "inputs": [
        {
          "internalType": "string",
          "name": "_startLocation",
          "type": "string"
        },
        {
          "internalType": "string",
          "name": "_endLocation",
          "type": "string"
        },
        {
          "internalType": "uint256",
          "name": "_fare",
          "type": "uint256"
        },
        {
          "internalType": "uint256",
          "name": "_date",
          "type": "uint256"
        },
        {
          "internalType": "uint256",
          "name": "_time",
          "type": "uint256"
        }
      ],
      "name": "createRide",
      "outputs": [],
      "stateMutability": "nonpayable",
      "type": "function"
    },
    {
      "inputs": [
        {
          "internalType": "uint256",
          "name": "_id",
          "type": "uint256"
        }
      ],
      "name": "getDetails",
      "outputs": [
        {
          "internalType": "string",
          "name": "",
          "type": "string"
        },
        {
          "internalType": "string",
          "name": "",
          "type": "string"
        },
        {
          "internalType": "uint256",
          "name": "",
          "type": "uint256"
        },
        {
          "internalType": "uint256",
          "name": "",
          "type": "uint256"
        },
        {
          "internalType": "uint256",
          "name": "",
          "type": "uint256"
        }
      ],
      "stateMutability": "view",
      "type": "function",
      "constant": true
    },
    {
      "inputs": [
        {
          "internalType": "uint256",
          "name": "_rideId",
          "type": "uint256"
        }
      ],
      "name": "deleteRide",
      "outputs": [],
      "stateMutability": "nonpayable",
      "type": "function"
    }
  ],
  "bytecode": "0x6080604052600060035534801561001557600080fd5b50610e46806100256000396000f3fe608060405234801561001057600080fd5b506004361061007d5760003560e01c806387bb2f531161005b57806387bb2f53146100db578063b93a89f7146100ee578063be69d9c214610112578063e0b05ea61461012557600080fd5b80632c0dd4e5146100825780633c70c157146100975780635205f112146100aa575b600080fd5b610095610090366004610a79565b61013c565b005b6100956100a5366004610af8565b610528565b6100bd6100b8366004610af8565b6105a0565b6040516100d299989796959493929190610b6d565b60405180910390f35b6100bd6100e9366004610bfc565b61071c565b6101016100fc366004610af8565b61074f565b6040516100d2959493929190610c2c565b6100bd610120366004610af8565b610970565b61012e60035481565b6040519081526020016100d2565b6000805461014b906001610c85565b90506000604051806101200160405280838152602001336001600160a01b03168152602001888152602001878152602001868152602001858152602001848152602001600015158152602001600060028111156101aa576101aa610b57565b90526000805460018101825590805281517f290decd9548b62a8d60345a988386fc84ba6bc95484008f6362f93160ef3e563600890920291820190815560208301517f290decd9548b62a8d60345a988386fc84ba6bc95484008f6362f93160ef3e564830180546001600160a01b0319166001600160a01b039092169190911790556040830151929350839290917f290decd9548b62a8d60345a988386fc84ba6bc95484008f6362f93160ef3e56501906102659082610d27565b506060820151600382019061027a9082610d27565b506080820151600482015560a0820151600582015560c0820151600682015560e082015160078201805491151560ff19831681178255610100808601519361ff001990921661ffff1990921691909117908360028111156102dd576102dd610b57565b0217905550503360009081526002602081815260409283902085518155908501516001820180546001600160a01b0319166001600160a01b0390921691909117905591840151849350908201906103349082610d27565b50606082015160038201906103499082610d27565b506080820151600482015560a0820151600582015560c0820151600682015560e082015160078201805491151560ff19831681178255610100808601519361ff001990921661ffff1990921691909117908360028111156103ac576103ac610b57565b02179055505060018054808201825560009190915282517fb10e2d527612073b26eecdfd717e6a320cf44b4afac2b0732d9fcbe2b7fa0cf6600890920291820190815560208401517fb10e2d527612073b26eecdfd717e6a320cf44b4afac2b0732d9fcbe2b7fa0cf7830180546001600160a01b0319166001600160a01b03909216919091179055604084015184935090917fb10e2d527612073b26eecdfd717e6a320cf44b4afac2b0732d9fcbe2b7fa0cf8019061046b9082610d27565b50606082015160038201906104809082610d27565b506080820151600482015560a0820151600582015560c0820151600682015560e082015160078201805491151560ff19831681178255610100808601519361ff001990921661ffff1990921691909117908360028111156104e3576104e3610b57565b0217905550506040518381527f195c1bff7ad0c020d447b95b5458d5fef9c1c01f88f8682ee06bd178afa18538915060200160405180910390a1506003555050505050565b6000818154811061053b5761053b610de7565b6000918252602082206008909102018181556001810180546001600160a01b03191690559061056d6002830182610980565b61057b600383016000610980565b50600060048201819055600582018190556006820155600701805461ffff1916905550565b600081815481106105b057600080fd5b60009182526020909120600890910201805460018201546002830180549294506001600160a01b0390911692916105e690610c9e565b80601f016020809104026020016040519081016040528092919081815260200182805461061290610c9e565b801561065f5780601f106106345761010080835404028352916020019161065f565b820191906000526020600020905b81548152906001019060200180831161064257829003601f168201915b50505050509080600301805461067490610c9e565b80601f01602080910402602001604051908101604052809291908181526020018280546106a090610c9e565b80156106ed5780601f106106c2576101008083540402835291602001916106ed565b820191906000526020600020905b8154815290600101906020018083116106d057829003601f168201915b505050506004830154600584015460068501546007909501549394919390925060ff8082169161010090041689565b600260208190526000918252604090912080546001820154928201805491936001600160a01b031692916105e690610c9e565b6060806000808080610762600188610dfd565b8154811061077257610772610de7565b906000526020600020906008020160020160006001886107929190610dfd565b815481106107a2576107a2610de7565b906000526020600020906008020160030160006001896107c29190610dfd565b815481106107d2576107d2610de7565b906000526020600020906008020160040154600060018a6107f39190610dfd565b8154811061080357610803610de7565b906000526020600020906008020160050154600060018b6108249190610dfd565b8154811061083457610834610de7565b90600052602060002090600802016006015484805461085290610c9e565b80601f016020809104026020016040519081016040528092919081815260200182805461087e90610c9e565b80156108cb5780601f106108a0576101008083540402835291602001916108cb565b820191906000526020600020905b8154815290600101906020018083116108ae57829003601f168201915b505050505094508380546108de90610c9e565b80601f016020809104026020016040519081016040528092919081815260200182805461090a90610c9e565b80156109575780601f1061092c57610100808354040283529160200191610957565b820191906000526020600020905b81548152906001019060200180831161093a57829003601f168201915b50989f939e50959c50939a509198509650505050505050565b600181815481106105b057600080fd5b50805461098c90610c9e565b6000825580601f1061099c575050565b601f0160209004906000526020600020908101906109ba91906109bd565b50565b5b808211156109d257600081556001016109be565b5090565b634e487b7160e01b600052604160045260246000fd5b600082601f8301126109fd57600080fd5b813567ffffffffffffffff80821115610a1857610a186109d6565b604051601f8301601f19908116603f01168101908282118183101715610a4057610a406109d6565b81604052838152866020858801011115610a5957600080fd5b836020870160208301376000602085830101528094505050505092915050565b600080600080600060a08688031215610a9157600080fd5b853567ffffffffffffffff80821115610aa957600080fd5b610ab589838a016109ec565b96506020880135915080821115610acb57600080fd5b50610ad8888289016109ec565b959895975050505060408401359360608101359360809091013592509050565b600060208284031215610b0a57600080fd5b5035919050565b6000815180845260005b81811015610b3757602081850181015186830182015201610b1b565b506000602082860101526020601f19601f83011685010191505092915050565b634e487b7160e01b600052602160045260246000fd5b8981526001600160a01b038916602082015261012060408201819052600090610b988382018b610b11565b90508281036060840152610bac818a610b11565b9150508660808301528560a08301528460c083015283151560e083015260038310610be757634e487b7160e01b600052602160045260246000fd5b826101008301529a9950505050505050505050565b600060208284031215610c0e57600080fd5b81356001600160a01b0381168114610c2557600080fd5b9392505050565b60a081526000610c3f60a0830188610b11565b8281036020840152610c518188610b11565b60408401969096525050606081019290925260809091015292915050565b634e487b7160e01b600052601160045260246000fd5b80820180821115610c9857610c98610c6f565b92915050565b600181811c90821680610cb257607f821691505b602082108103610cd257634e487b7160e01b600052602260045260246000fd5b50919050565b601f821115610d2257600081815260208120601f850160051c81016020861015610cff5750805b601f850160051c820191505b81811015610d1e57828155600101610d0b565b5050505b505050565b815167ffffffffffffffff811115610d4157610d416109d6565b610d5581610d4f8454610c9e565b84610cd8565b602080601f831160018114610d8a5760008415610d725750858301515b600019600386901b1c1916600185901b178555610d1e565b600085815260208120601f198616915b82811015610db957888601518255948401946001909101908401610d9a565b5085821015610dd75787850151600019600388901b60f8161c191681555b5050505050600190811b01905550565b634e487b7160e01b600052603260045260246000fd5b81810381811115610c9857610c98610c6f56fea2646970667358221220fcaee886bbdc6cdc3b7ae278942296a35024f8a6574c1358ee90a1f8374b17e164736f6c63430008130033",
  "immutableReferences": {},
  "source": "// SPDX-License-Identifier: MIT\r\npragma solidity ^0.8.0;\r\n\r\ncontract RideContract {\r\n    enum RideStatus { Active, Completed, Canceled }\r\n\r\n    struct Ride {\r\n        uint id;\r\n        address driver;\r\n        string startLocation;\r\n        string endLocation;\r\n        uint256 fare;\r\n        uint256 date;\r\n        uint256 time;\r\n        bool booked;\r\n        RideStatus status;\r\n    }\r\n\r\n    Ride[] public rides;\r\n    Ride[] public storedride;\r\n    mapping(address=>Ride) public currentRide;\r\n\r\n    event NewRide(uint rideId);\r\n    uint256 public totalRides=0;\r\n    function createRide(string memory _startLocation, string memory _endLocation, uint256 _fare, uint256 _date, uint256 _time) public {\r\n        uint rideId = rides.length + 1;\r\n        Ride memory newRide = Ride({\r\n            id: rideId,\r\n            driver: msg.sender,\r\n            startLocation: _startLocation,\r\n            endLocation: _endLocation,\r\n            fare: _fare,\r\n            date: _date,\r\n            time: _time,\r\n            booked: false,\r\n            status: RideStatus.Active \r\n        });\r\n        rides.push(newRide);\r\n        currentRide[msg.sender]=newRide; \r\n        storedride.push(newRide);      \r\n        emit NewRide(rideId);\r\n        totalRides=rideId;\r\n    }\r\n    function getDetails(uint256 _id)public view returns(string memory,string memory,uint256,uint256,uint256){\r\n        return (rides[_id-1].startLocation,rides[_id-1].endLocation,rides[_id-1].fare,rides[_id-1].date,rides[_id-1].time);\r\n    }\r\n\r\n    function deleteRide(uint256 _rideId) public {\r\n        delete rides[_rideId];\r\n    }\r\n}\r\n",
  "sourcePath": "D:\\Yugo - Final project\\yugo\\src\\contracts\\RideContract.sol",
  "compiler": {
    "name": "solc",
    "version": "0.8.19+commit.7dd6d404.Emscripten.clang"
  },
  "schemaVersion": "3.4.13",
  "updatedAt": "2023-04-27T14:49:25.352Z",
  "networkType": "ethereum",
  "devdoc": {
    "kind": "dev",
    "methods": {},
    "version": 1
  },
  "userdoc": {
    "kind": "user",
    "methods": {},
    "version": 1
  }
}