{
  "contractName": "RideContract",
  "abi": [
    {
      "anonymous": false,
      "inputs": [
        {
          "indexed": false,
          "internalType": "uint256",
          "name": "rideId",
          "type": "uint256"
        }
      ],
      "name": "NewRide",
      "type": "event"
    },
    {
      "inputs": [
        {
          "internalType": "address",
          "name": "",
          "type": "address"
        }
      ],
      "name": "currentRide",
      "outputs": [
        {
          "internalType": "uint256",
          "name": "id",
          "type": "uint256"
        },
        {
          "internalType": "address",
          "name": "driver",
          "type": "address"
        },
        {
          "internalType": "string",
          "name": "startLocation",
          "type": "string"
        },
        {
          "internalType": "string",
          "name": "endLocation",
          "type": "string"
        },
        {
          "internalType": "uint256",
          "name": "fare",
          "type": "uint256"
        },
        {
          "internalType": "uint256",
          "name": "date",
          "type": "uint256"
        },
        {
          "internalType": "uint256",
          "name": "time",
          "type": "uint256"
        },
        {
          "internalType": "uint256",
          "name": "noofpass",
          "type": "uint256"
        },
        {
          "internalType": "bool",
          "name": "booked",
          "type": "bool"
        },
        {
          "internalType": "enum RideContract.RideStatus",
          "name": "status",
          "type": "uint8"
        }
      ],
      "stateMutability": "view",
      "type": "function",
      "constant": true
    },
    {
      "inputs": [
        {
          "internalType": "uint256",
          "name": "",
          "type": "uint256"
        }
      ],
      "name": "rides",
      "outputs": [
        {
          "internalType": "uint256",
          "name": "id",
          "type": "uint256"
        },
        {
          "internalType": "address",
          "name": "driver",
          "type": "address"
        },
        {
          "internalType": "string",
          "name": "startLocation",
          "type": "string"
        },
        {
          "internalType": "string",
          "name": "endLocation",
          "type": "string"
        },
        {
          "internalType": "uint256",
          "name": "fare",
          "type": "uint256"
        },
        {
          "internalType": "uint256",
          "name": "date",
          "type": "uint256"
        },
        {
          "internalType": "uint256",
          "name": "time",
          "type": "uint256"
        },
        {
          "internalType": "uint256",
          "name": "noofpass",
          "type": "uint256"
        },
        {
          "internalType": "bool",
          "name": "booked",
          "type": "bool"
        },
        {
          "internalType": "enum RideContract.RideStatus",
          "name": "status",
          "type": "uint8"
        }
      ],
      "stateMutability": "view",
      "type": "function",
      "constant": true
    },
    {
      "inputs": [
        {
          "internalType": "uint256",
          "name": "",
          "type": "uint256"
        }
      ],
      "name": "storedride",
      "outputs": [
        {
          "internalType": "uint256",
          "name": "id",
          "type": "uint256"
        },
        {
          "internalType": "address",
          "name": "driver",
          "type": "address"
        },
        {
          "internalType": "string",
          "name": "startLocation",
          "type": "string"
        },
        {
          "internalType": "string",
          "name": "endLocation",
          "type": "string"
        },
        {
          "internalType": "uint256",
          "name": "fare",
          "type": "uint256"
        },
        {
          "internalType": "uint256",
          "name": "date",
          "type": "uint256"
        },
        {
          "internalType": "uint256",
          "name": "time",
          "type": "uint256"
        },
        {
          "internalType": "uint256",
          "name": "noofpass",
          "type": "uint256"
        },
        {
          "internalType": "bool",
          "name": "booked",
          "type": "bool"
        },
        {
          "internalType": "enum RideContract.RideStatus",
          "name": "status",
          "type": "uint8"
        }
      ],
      "stateMutability": "view",
      "type": "function",
      "constant": true
    },
    {
      "inputs": [],
      "name": "totalRides",
      "outputs": [
        {
          "internalType": "uint256",
          "name": "",
          "type": "uint256"
        }
      ],
      "stateMutability": "view",
      "type": "function",
      "constant": true
    },
    {
      "inputs": [
        {
          "internalType": "string",
          "name": "_startLocation",
          "type": "string"
        },
        {
          "internalType": "string",
          "name": "_endLocation",
          "type": "string"
        },
        {
          "internalType": "uint256",
          "name": "_fare",
          "type": "uint256"
        },
        {
          "internalType": "uint256",
          "name": "_date",
          "type": "uint256"
        },
        {
          "internalType": "uint256",
          "name": "_time",
          "type": "uint256"
        },
        {
          "internalType": "uint256",
          "name": "_noofpass",
          "type": "uint256"
        }
      ],
      "name": "createRide",
      "outputs": [],
      "stateMutability": "nonpayable",
      "type": "function"
    },
    {
      "inputs": [
        {
          "internalType": "uint256",
          "name": "_id",
          "type": "uint256"
        }
      ],
      "name": "getDetails",
      "outputs": [
        {
          "internalType": "string",
          "name": "",
          "type": "string"
        },
        {
          "internalType": "string",
          "name": "",
          "type": "string"
        },
        {
          "internalType": "uint256",
          "name": "",
          "type": "uint256"
        },
        {
          "internalType": "uint256",
          "name": "",
          "type": "uint256"
        },
        {
          "internalType": "uint256",
          "name": "",
          "type": "uint256"
        },
        {
          "internalType": "uint256",
          "name": "",
          "type": "uint256"
        },
        {
          "internalType": "address",
          "name": "",
          "type": "address"
        }
      ],
      "stateMutability": "view",
      "type": "function",
      "constant": true
    },
    {
      "inputs": [
        {
          "internalType": "uint256",
          "name": "_rideId",
          "type": "uint256"
        }
      ],
      "name": "deleteRide",
      "outputs": [],
      "stateMutability": "nonpayable",
      "type": "function"
    }
  ],
  "bytecode": "0x6080604052600060035534801561001557600080fd5b50610f1f806100256000396000f3fe608060405234801561001057600080fd5b506004361061007d5760003560e01c8063b34cad211161005b578063b34cad21146100dc578063b93a89f7146100ef578063be69d9c214610115578063e0b05ea61461012857600080fd5b80633c70c157146100825780635205f1121461009757806387bb2f53146100c9575b600080fd5b610095610090366004610a89565b61013f565b005b6100aa6100a5366004610a89565b6101be565b6040516100c09a99989796959493929190610afe565b60405180910390f35b6100aa6100d7366004610b95565b610340565b6100956100ea366004610c68565b610373565b6101026100fd366004610a89565b610784565b6040516100c09796959493929190610cef565b6100aa610123366004610a89565b610a23565b61013160035481565b6040519081526020016100c0565b6000818154811061015257610152610d48565b6000918252602082206009909102018181556001810180546001600160a01b0319169055906101846002830182610a33565b610192600383016000610a33565b5060006004820181905560058201819055600682018190556007820155600801805461ffff1916905550565b600081815481106101ce57600080fd5b60009182526020909120600990910201805460018201546002830180549294506001600160a01b03909116929161020490610d5e565b80601f016020809104026020016040519081016040528092919081815260200182805461023090610d5e565b801561027d5780601f106102525761010080835404028352916020019161027d565b820191906000526020600020905b81548152906001019060200180831161026057829003601f168201915b50505050509080600301805461029290610d5e565b80601f01602080910402602001604051908101604052809291908181526020018280546102be90610d5e565b801561030b5780601f106102e05761010080835404028352916020019161030b565b820191906000526020600020905b8154815290600101906020018083116102ee57829003601f168201915b505050600484015460058501546006860154600787015460089097015495969295919450925060ff808216916101009004168a565b600260208190526000918252604090912080546001820154928201805491936001600160a01b0316929161020490610d5e565b60008054610382906001610dae565b90506000604051806101400160405280838152602001336001600160a01b03168152602001898152602001888152602001878152602001868152602001858152602001848152602001600015158152602001600060028111156103e7576103e7610ae8565b90526000805460018101825590805281517f290decd9548b62a8d60345a988386fc84ba6bc95484008f6362f93160ef3e563600990920291820190815560208301517f290decd9548b62a8d60345a988386fc84ba6bc95484008f6362f93160ef3e564830180546001600160a01b0319166001600160a01b039092169190911790556040830151929350839290917f290decd9548b62a8d60345a988386fc84ba6bc95484008f6362f93160ef3e56501906104a29082610e16565b50606082015160038201906104b79082610e16565b506080820151600482015560a0820151600582015560c0820151600682015560e082015160078201556101008083015160088301805491151560ff1983168117825561012086015193919261ff001990911661ffff19909116179083600281111561052457610524610ae8565b0217905550503360009081526002602081815260409283902085518155908501516001820180546001600160a01b0319166001600160a01b03909216919091179055918401518493509082019061057b9082610e16565b50606082015160038201906105909082610e16565b506080820151600482015560a0820151600582015560c0820151600682015560e082015160078201556101008083015160088301805491151560ff1983168117825561012086015193919261ff001990911661ffff1990911617908360028111156105fd576105fd610ae8565b02179055505060018054808201825560009190915282517fb10e2d527612073b26eecdfd717e6a320cf44b4afac2b0732d9fcbe2b7fa0cf6600990920291820190815560208401517fb10e2d527612073b26eecdfd717e6a320cf44b4afac2b0732d9fcbe2b7fa0cf7830180546001600160a01b0319166001600160a01b03909216919091179055604084015184935090917fb10e2d527612073b26eecdfd717e6a320cf44b4afac2b0732d9fcbe2b7fa0cf801906106bc9082610e16565b50606082015160038201906106d19082610e16565b506080820151600482015560a0820151600582015560c0820151600682015560e082015160078201556101008083015160088301805491151560ff1983168117825561012086015193919261ff001990911661ffff19909116179083600281111561073e5761073e610ae8565b0217905550506040518381527f195c1bff7ad0c020d447b95b5458d5fef9c1c01f88f8682ee06bd178afa18538915060200160405180910390a150600355505050505050565b6060806000808080808061079960018a610ed6565b815481106107a9576107a9610d48565b9060005260206000209060090201600201600060018a6107c99190610ed6565b815481106107d9576107d9610d48565b9060005260206000209060090201600301600060018b6107f99190610ed6565b8154811061080957610809610d48565b906000526020600020906009020160040154600060018c61082a9190610ed6565b8154811061083a5761083a610d48565b906000526020600020906009020160050154600060018d61085b9190610ed6565b8154811061086b5761086b610d48565b906000526020600020906009020160060154600060018e61088c9190610ed6565b8154811061089c5761089c610d48565b906000526020600020906009020160070154600060018f6108bd9190610ed6565b815481106108cd576108cd610d48565b906000526020600020906009020160010160009054906101000a90046001600160a01b03168680546108fe90610d5e565b80601f016020809104026020016040519081016040528092919081815260200182805461092a90610d5e565b80156109775780601f1061094c57610100808354040283529160200191610977565b820191906000526020600020905b81548152906001019060200180831161095a57829003601f168201915b5050505050965085805461098a90610d5e565b80601f01602080910402602001604051908101604052809291908181526020018280546109b690610d5e565b8015610a035780601f106109d857610100808354040283529160200191610a03565b820191906000526020600020905b8154815290600101906020018083116109e657829003601f168201915b505050505095509650965096509650965096509650919395979092949650565b600181815481106101ce57600080fd5b508054610a3f90610d5e565b6000825580601f10610a4f575050565b601f016020900490600052602060002090810190610a6d9190610a70565b50565b5b80821115610a855760008155600101610a71565b5090565b600060208284031215610a9b57600080fd5b5035919050565b6000815180845260005b81811015610ac857602081850181015186830182015201610aac565b506000602082860101526020601f19601f83011685010191505092915050565b634e487b7160e01b600052602160045260246000fd5b8a81526001600160a01b038a16602082015261014060408201819052600090610b298382018c610aa2565b90508281036060840152610b3d818b610aa2565b9150508760808301528660a08301528560c08301528460e083015283151561010083015260038310610b7f57634e487b7160e01b600052602160045260246000fd5b826101208301529b9a5050505050505050505050565b600060208284031215610ba757600080fd5b81356001600160a01b0381168114610bbe57600080fd5b9392505050565b634e487b7160e01b600052604160045260246000fd5b600082601f830112610bec57600080fd5b813567ffffffffffffffff80821115610c0757610c07610bc5565b604051601f8301601f19908116603f01168101908282118183101715610c2f57610c2f610bc5565b81604052838152866020858801011115610c4857600080fd5b836020870160208301376000602085830101528094505050505092915050565b60008060008060008060c08789031215610c8157600080fd5b863567ffffffffffffffff80821115610c9957600080fd5b610ca58a838b01610bdb565b97506020890135915080821115610cbb57600080fd5b50610cc889828a01610bdb565b96999698505050506040850135946060810135946080820135945060a09091013592509050565b60e081526000610d0260e083018a610aa2565b8281036020840152610d14818a610aa2565b604084019890985250506060810194909452608084019290925260a08301526001600160a01b031660c09091015292915050565b634e487b7160e01b600052603260045260246000fd5b600181811c90821680610d7257607f821691505b602082108103610d9257634e487b7160e01b600052602260045260246000fd5b50919050565b634e487b7160e01b600052601160045260246000fd5b80820180821115610dc157610dc1610d98565b92915050565b601f821115610e1157600081815260208120601f850160051c81016020861015610dee5750805b601f850160051c820191505b81811015610e0d57828155600101610dfa565b5050505b505050565b815167ffffffffffffffff811115610e3057610e30610bc5565b610e4481610e3e8454610d5e565b84610dc7565b602080601f831160018114610e795760008415610e615750858301515b600019600386901b1c1916600185901b178555610e0d565b600085815260208120601f198616915b82811015610ea857888601518255948401946001909101908401610e89565b5085821015610ec65787850151600019600388901b60f8161c191681555b5050505050600190811b01905550565b81810381811115610dc157610dc1610d9856fea264697066735822122073b1399be0abd273d82efb03a58ba3e013c84960608d0848ecd3689d55183ba764736f6c63430008130033",
  "immutableReferences": {},
  "source": "// SPDX-License-Identifier: MIT\r\npragma solidity ^0.8.0;\r\n\r\ncontract RideContract {\r\n    enum RideStatus { Active, Completed, Canceled }\r\n\r\n    struct Ride {\r\n        uint id;\r\n        address driver;\r\n        string startLocation;\r\n        string endLocation;\r\n        uint256 fare;\r\n        uint256 date;\r\n        uint256 time;\r\n        uint256 noofpass;\r\n        bool booked;\r\n        RideStatus status;\r\n    }\r\n\r\n    Ride[] public rides;\r\n    Ride[] public storedride;\r\n    mapping(address=>Ride) public currentRide;\r\n\r\n    event NewRide(uint rideId);\r\n    uint256 public totalRides=0;\r\n    function createRide(string memory _startLocation, string memory _endLocation, uint256 _fare, uint256 _date, uint256 _time, uint256 _noofpass) public {\r\n        uint rideId = rides.length + 1;\r\n        Ride memory newRide = Ride({\r\n            id: rideId,\r\n            driver: msg.sender,\r\n            startLocation: _startLocation,\r\n            endLocation: _endLocation,\r\n            fare: _fare,\r\n            date: _date,\r\n            time: _time,\r\n            booked: false,\r\n            status: RideStatus.Active, \r\n            noofpass: _noofpass\r\n        });\r\n        rides.push(newRide);\r\n        currentRide[msg.sender]=newRide; \r\n        storedride.push(newRide);      \r\n        emit NewRide(rideId);\r\n        totalRides=rideId;\r\n    }\r\n    function getDetails(uint256 _id)public view returns(string memory,string memory,uint256,uint256,uint256,uint256,address){\r\n        return (rides[_id-1].startLocation,rides[_id-1].endLocation,rides[_id-1].fare,rides[_id-1].date,rides[_id-1].time,rides[_id-1].noofpass,rides[_id-1].driver);\r\n    }\r\n\r\n    function deleteRide(uint256 _rideId) public {\r\n        delete rides[_rideId];\r\n    }\r\n}\r\n",
  "sourcePath": "D:\\Yugo - Final project\\yugo\\src\\contracts\\RideContract.sol",
  "compiler": {
    "name": "solc",
    "version": "0.8.19+commit.7dd6d404.Emscripten.clang"
  },
  "schemaVersion": "3.4.13",
  "updatedAt": "2023-04-28T09:59:10.078Z",
  "networkType": "ethereum",
  "devdoc": {
    "kind": "dev",
    "methods": {},
    "version": 1
  },
  "userdoc": {
    "kind": "user",
    "methods": {},
    "version": 1
  }
}