{
  "contractName": "RideManagementContract",
  "abi": [
    {
      "anonymous": false,
      "inputs": [
        {
          "indexed": false,
          "internalType": "uint256",
          "name": "rideId",
          "type": "uint256"
        }
      ],
      "name": "NewRide",
      "type": "event"
    },
    {
      "inputs": [
        {
          "internalType": "uint256",
          "name": "",
          "type": "uint256"
        }
      ],
      "name": "completedRides",
      "outputs": [
        {
          "internalType": "uint256",
          "name": "",
          "type": "uint256"
        }
      ],
      "stateMutability": "view",
      "type": "function"
    },
    {
      "inputs": [
        {
          "internalType": "string",
          "name": "_startLocation",
          "type": "string"
        },
        {
          "internalType": "string",
          "name": "_endLocation",
          "type": "string"
        },
        {
          "internalType": "uint256",
          "name": "_fare",
          "type": "uint256"
        }
      ],
      "name": "createRide",
      "outputs": [],
      "stateMutability": "nonpayable",
      "type": "function"
    },
    {
      "inputs": [
        {
          "internalType": "address",
          "name": "",
          "type": "address"
        }
      ],
      "name": "currentRide",
      "outputs": [
        {
          "internalType": "uint256",
          "name": "id",
          "type": "uint256"
        },
        {
          "internalType": "address",
          "name": "driver",
          "type": "address"
        },
        {
          "internalType": "string",
          "name": "startLocation",
          "type": "string"
        },
        {
          "internalType": "string",
          "name": "endLocation",
          "type": "string"
        },
        {
          "internalType": "uint256",
          "name": "fare",
          "type": "uint256"
        },
        {
          "internalType": "bool",
          "name": "booked",
          "type": "bool"
        },
        {
          "internalType": "enum RideContract.RideStatus",
          "name": "status",
          "type": "uint8"
        }
      ],
      "stateMutability": "view",
      "type": "function"
    },
    {
      "inputs": [
        {
          "internalType": "uint256",
          "name": "_rideId",
          "type": "uint256"
        }
      ],
      "name": "deleteRide",
      "outputs": [],
      "stateMutability": "nonpayable",
      "type": "function"
    },
    {
      "inputs": [
        {
          "internalType": "uint256",
          "name": "_id",
          "type": "uint256"
        }
      ],
      "name": "getDetails",
      "outputs": [
        {
          "internalType": "string",
          "name": "",
          "type": "string"
        },
        {
          "internalType": "string",
          "name": "",
          "type": "string"
        },
        {
          "internalType": "uint256",
          "name": "",
          "type": "uint256"
        }
      ],
      "stateMutability": "view",
      "type": "function"
    },
    {
      "inputs": [
        {
          "internalType": "uint256",
          "name": "",
          "type": "uint256"
        }
      ],
      "name": "rides",
      "outputs": [
        {
          "internalType": "uint256",
          "name": "id",
          "type": "uint256"
        },
        {
          "internalType": "address",
          "name": "driver",
          "type": "address"
        },
        {
          "internalType": "string",
          "name": "startLocation",
          "type": "string"
        },
        {
          "internalType": "string",
          "name": "endLocation",
          "type": "string"
        },
        {
          "internalType": "uint256",
          "name": "fare",
          "type": "uint256"
        },
        {
          "internalType": "bool",
          "name": "booked",
          "type": "bool"
        },
        {
          "internalType": "enum RideContract.RideStatus",
          "name": "status",
          "type": "uint8"
        }
      ],
      "stateMutability": "view",
      "type": "function"
    },
    {
      "inputs": [
        {
          "internalType": "uint256",
          "name": "",
          "type": "uint256"
        }
      ],
      "name": "storedride",
      "outputs": [
        {
          "internalType": "uint256",
          "name": "id",
          "type": "uint256"
        },
        {
          "internalType": "address",
          "name": "driver",
          "type": "address"
        },
        {
          "internalType": "string",
          "name": "startLocation",
          "type": "string"
        },
        {
          "internalType": "string",
          "name": "endLocation",
          "type": "string"
        },
        {
          "internalType": "uint256",
          "name": "fare",
          "type": "uint256"
        },
        {
          "internalType": "bool",
          "name": "booked",
          "type": "bool"
        },
        {
          "internalType": "enum RideContract.RideStatus",
          "name": "status",
          "type": "uint8"
        }
      ],
      "stateMutability": "view",
      "type": "function"
    },
    {
      "inputs": [],
      "name": "totalRides",
      "outputs": [
        {
          "internalType": "uint256",
          "name": "",
          "type": "uint256"
        }
      ],
      "stateMutability": "view",
      "type": "function"
    },
    {
      "inputs": [
        {
          "internalType": "uint256",
          "name": "_rideId",
          "type": "uint256"
        }
      ],
      "name": "markRideAsComplete",
      "outputs": [
        {
          "internalType": "bool",
          "name": "",
          "type": "bool"
        }
      ],
      "stateMutability": "nonpayable",
      "type": "function"
    }
  ],
  "bytecode": "0x6080604052600060035534801561001557600080fd5b50611155806100256000396000f3fe608060405234801561001057600080fd5b50600436106100935760003560e01c8063880ed4ca11610066578063880ed4ca1461010c5780638da547ee1461012f578063b93a89f714610142578063be69d9c214610164578063e0b05ea61461017757600080fd5b80633c70c15714610098578063416824ea146100ad5780635205f112146100d357806387bb2f53146100f9575b600080fd5b6100ab6100a6366004610c0c565b610180565b005b6100c06100bb366004610c0c565b6101ea565b6040519081526020015b60405180910390f35b6100e66100e1366004610c0c565b61020b565b6040516100ca9796959493929190610c81565b6100e6610107366004610cfe565b61037b565b61011f61011a366004610c0c565b6103ae565b60405190151581526020016100ca565b6100ab61013d366004610dd1565b610678565b610155610150366004610c0c565b6109ee565b6040516100ca93929190610e3e565b6100e6610172366004610c0c565b610ba6565b6100c060035481565b6000818154811061019357610193610e74565b6000918252602082206006909102018181556001810180546001600160a01b0319169055906101c56002830182610bb6565b6101d3600383016000610bb6565b5060006004820155600501805461ffff1916905550565b600581815481106101fa57600080fd5b600091825260209091200154905081565b6000818154811061021b57600080fd5b60009182526020909120600690910201805460018201546002830180549294506001600160a01b03909116929161025190610e8a565b80601f016020809104026020016040519081016040528092919081815260200182805461027d90610e8a565b80156102ca5780601f1061029f576101008083540402835291602001916102ca565b820191906000526020600020905b8154815290600101906020018083116102ad57829003601f168201915b5050505050908060030180546102df90610e8a565b80601f016020809104026020016040519081016040528092919081815260200182805461030b90610e8a565b80156103585780601f1061032d57610100808354040283529160200191610358565b820191906000526020600020905b81548152906001019060200180831161033b57829003601f168201915b50505050600483015460059093015491929160ff80821692506101009091041687565b600260208190526000918252604090912080546001820154928201805491936001600160a01b0316929161025190610e8a565b6000806103bc600184610eda565b815481106103cc576103cc610e74565b60009182526020909120600690910201600101546001600160a01b031633146104315760405162461bcd60e51b8152602060048201526013602482015272556e617574686f72697a65642061636365737360681b604482015260640160405180910390fd5b6001600061043f8285610eda565b8154811061044f5761044f610e74565b60009182526020909120600560069092020101805461ff00191661010083600281111561047e5761047e610c6b565b0217905550600160006104918285610eda565b815481106104a1576104a1610e74565b600091825260208083208454600181810187559585529190932060069283029093018054919092029092019182558281015492820180546001600160a01b0319166001600160a01b039094169390931790925560028082019061050690840182610f42565b5060038181019061051990840182610f42565b506004828101549082015560058083018054918301805460ff938416151560ff1982168117835592546101009081900490941693919261ff00191661ffff19909116179083600281111561056f5761056f610c6b565b02179055505033600090815260046020526040812091505b815481101561063b57838282815481106105a3576105a3610e74565b90600052602060002001540361062957815482906105c390600190610eda565b815481106105d3576105d3610e74565b90600052602060002001548282815481106105f0576105f0610e74565b90600052602060002001819055508180548061060e5761060e611023565b6001900381819060005260206000200160009055905561063b565b8061063381611039565b915050610587565b505060058054600181810183556000929092527f036b6384b5eca791c62761152d0c79bb0604c104a5fb6f4eb0703f3154bb3db001929092555090565b60008054610687906001611052565b6040805160e08101825282815233602082019081529181018781526060820187905260808201869052600060a0830181905260c083018190528054600181018255908052825160069091027f290decd9548b62a8d60345a988386fc84ba6bc95484008f6362f93160ef3e563810191825593517f290decd9548b62a8d60345a988386fc84ba6bc95484008f6362f93160ef3e564850180546001600160a01b039092166001600160a01b03199092169190911790559051939450909283927f290decd9548b62a8d60345a988386fc84ba6bc95484008f6362f93160ef3e56501906107729082611065565b50606082015160038201906107879082611065565b506080820151600482015560a082015160058201805491151560ff1983168117825560c08501519261ff001990911661ffff19909116176101008360028111156107d3576107d3610c6b565b0217905550503360009081526002602081815260409283902085518155908501516001820180546001600160a01b0319166001600160a01b03909216919091179055918401518493509082019061082a9082611065565b506060820151600382019061083f9082611065565b506080820151600482015560a082015160058201805491151560ff1983168117825560c08501519261ff001990911661ffff199091161761010083600281111561088b5761088b610c6b565b02179055505060018054808201825560009190915282517fb10e2d527612073b26eecdfd717e6a320cf44b4afac2b0732d9fcbe2b7fa0cf6600690920291820190815560208401517fb10e2d527612073b26eecdfd717e6a320cf44b4afac2b0732d9fcbe2b7fa0cf7830180546001600160a01b0319166001600160a01b03909216919091179055604084015184935090917fb10e2d527612073b26eecdfd717e6a320cf44b4afac2b0732d9fcbe2b7fa0cf8019061094a9082611065565b506060820151600382019061095f9082611065565b506080820151600482015560a082015160058201805491151560ff1983168117825560c08501519261ff001990911661ffff19909116176101008360028111156109ab576109ab610c6b565b0217905550506040518381527f195c1bff7ad0c020d447b95b5458d5fef9c1c01f88f8682ee06bd178afa18538915060200160405180910390a150600355505050565b6060806000806109ff600186610eda565b81548110610a0f57610a0f610e74565b90600052602060002090600602016002016000600186610a2f9190610eda565b81548110610a3f57610a3f610e74565b90600052602060002090600602016003016000600187610a5f9190610eda565b81548110610a6f57610a6f610e74565b906000526020600020906006020160040154828054610a8d90610e8a565b80601f0160208091040260200160405190810160405280929190818152602001828054610ab990610e8a565b8015610b065780601f10610adb57610100808354040283529160200191610b06565b820191906000526020600020905b815481529060010190602001808311610ae957829003601f168201915b50505050509250818054610b1990610e8a565b80601f0160208091040260200160405190810160405280929190818152602001828054610b4590610e8a565b8015610b925780601f10610b6757610100808354040283529160200191610b92565b820191906000526020600020905b815481529060010190602001808311610b7557829003601f168201915b505050505091509250925092509193909250565b6001818154811061021b57600080fd5b508054610bc290610e8a565b6000825580601f10610bd2575050565b601f016020900490600052602060002090810190610bf09190610bf3565b50565b5b80821115610c085760008155600101610bf4565b5090565b600060208284031215610c1e57600080fd5b5035919050565b6000815180845260005b81811015610c4b57602081850181015186830182015201610c2f565b506000602082860101526020601f19601f83011685010191505092915050565b634e487b7160e01b600052602160045260246000fd5b8781526001600160a01b038716602082015260e060408201819052600090610cab90830188610c25565b8281036060840152610cbd8188610c25565b91505084608083015283151560a083015260038310610cec57634e487b7160e01b600052602160045260246000fd5b8260c083015298975050505050505050565b600060208284031215610d1057600080fd5b81356001600160a01b0381168114610d2757600080fd5b9392505050565b634e487b7160e01b600052604160045260246000fd5b600082601f830112610d5557600080fd5b813567ffffffffffffffff80821115610d7057610d70610d2e565b604051601f8301601f19908116603f01168101908282118183101715610d9857610d98610d2e565b81604052838152866020858801011115610db157600080fd5b836020870160208301376000602085830101528094505050505092915050565b600080600060608486031215610de657600080fd5b833567ffffffffffffffff80821115610dfe57600080fd5b610e0a87838801610d44565b94506020860135915080821115610e2057600080fd5b50610e2d86828701610d44565b925050604084013590509250925092565b606081526000610e516060830186610c25565b8281036020840152610e638186610c25565b915050826040830152949350505050565b634e487b7160e01b600052603260045260246000fd5b600181811c90821680610e9e57607f821691505b602082108103610ebe57634e487b7160e01b600052602260045260246000fd5b50919050565b634e487b7160e01b600052601160045260246000fd5b81810381811115610eed57610eed610ec4565b92915050565b601f821115610f3d57600081815260208120601f850160051c81016020861015610f1a5750805b601f850160051c820191505b81811015610f3957828155600101610f26565b5050505b505050565b818103610f4d575050565b610f578254610e8a565b67ffffffffffffffff811115610f6f57610f6f610d2e565b610f8381610f7d8454610e8a565b84610ef3565b6000601f821160018114610fb75760008315610f9f5750848201545b600019600385901b1c1916600184901b17845561101c565b600085815260209020601f19841690600086815260209020845b83811015610ff15782860154825560019586019590910190602001610fd1565b508583101561100f5781850154600019600388901b60f8161c191681555b50505060018360011b0184555b5050505050565b634e487b7160e01b600052603160045260246000fd5b60006001820161104b5761104b610ec4565b5060010190565b80820180821115610eed57610eed610ec4565b815167ffffffffffffffff81111561107f5761107f610d2e565b61108d81610f7d8454610e8a565b602080601f8311600181146110c257600084156110aa5750858301515b600019600386901b1c1916600185901b178555610f39565b600085815260208120601f198616915b828110156110f1578886015182559484019460019091019084016110d2565b508582101561110f5787850151600019600388901b60f8161c191681555b5050505050600190811b0190555056fea264697066735822122084f88faf563b0220ab431065854fcd6882453c9777a1d7a2074e19525680f35d64736f6c63430008130033",
  "immutableReferences": {},
  "source": "// SPDX-License-Identifier: MIT\r\npragma solidity ^0.8.0;\r\n\r\nimport \"./RideContract.sol\";\r\n// import \"./CarbonOffsetCredit.sol\";\r\n\r\ncontract RideManagementContract is RideContract {\r\n    mapping (address => uint[])  driverToRides;\r\n    uint[] public completedRides;\r\n\r\n    function markRideAsComplete(uint _rideId) public returns(bool){\r\n        require(msg.sender == rides[_rideId - 1].driver, \"Unauthorized access\");\r\n\r\n        rides[_rideId - 1].status = RideStatus.Completed;\r\n        storedride.push(rides[_rideId - 1]);\r\n\r\n        uint[] storage ridesByDriver = driverToRides[msg.sender];\r\n\r\n        for (uint i = 0; i < ridesByDriver.length; i++) {\r\n            if (ridesByDriver[i] == _rideId) {\r\n                ridesByDriver[i] = ridesByDriver[ridesByDriver.length - 1];\r\n                ridesByDriver.pop();\r\n                break;\r\n            }\r\n        }\r\n\r\n        completedRides.push(_rideId);\r\n        return true;\r\n    }\r\n}\r\n",
  "sourcePath": "D:\\Yugo - Final project\\yugo\\src\\contracts\\RideManagementContract.sol",
  "compiler": {
    "name": "solc",
    "version": "0.8.19+commit.7dd6d404.Emscripten.clang"
  },
  "schemaVersion": "3.4.13",
  "updatedAt": "2023-04-26T11:04:03.232Z",
  "devdoc": {
    "kind": "dev",
    "methods": {},
    "version": 1
  },
  "userdoc": {
    "kind": "user",
    "methods": {},
    "version": 1
  }
}