{
  "contractName": "RideManagementContract",
  "abi": [
    {
      "anonymous": false,
      "inputs": [
        {
          "indexed": false,
          "internalType": "uint256",
          "name": "rideId",
          "type": "uint256"
        }
      ],
      "name": "NewRide",
      "type": "event"
    },
    {
      "inputs": [
        {
          "internalType": "uint256",
          "name": "",
          "type": "uint256"
        }
      ],
      "name": "completedRides",
      "outputs": [
        {
          "internalType": "uint256",
          "name": "",
          "type": "uint256"
        }
      ],
      "stateMutability": "view",
      "type": "function"
    },
    {
      "inputs": [
        {
          "internalType": "string",
          "name": "_startLocation",
          "type": "string"
        },
        {
          "internalType": "string",
          "name": "_endLocation",
          "type": "string"
        },
        {
          "internalType": "uint256",
          "name": "_fare",
          "type": "uint256"
        },
        {
          "internalType": "uint256",
          "name": "_date",
          "type": "uint256"
        },
        {
          "internalType": "uint256",
          "name": "_time",
          "type": "uint256"
        },
        {
          "internalType": "uint256",
          "name": "_noofpass",
          "type": "uint256"
        }
      ],
      "name": "createRide",
      "outputs": [],
      "stateMutability": "nonpayable",
      "type": "function"
    },
    {
      "inputs": [
        {
          "internalType": "address",
          "name": "",
          "type": "address"
        }
      ],
      "name": "currentRide",
      "outputs": [
        {
          "internalType": "uint256",
          "name": "id",
          "type": "uint256"
        },
        {
          "internalType": "address",
          "name": "driver",
          "type": "address"
        },
        {
          "internalType": "string",
          "name": "startLocation",
          "type": "string"
        },
        {
          "internalType": "string",
          "name": "endLocation",
          "type": "string"
        },
        {
          "internalType": "uint256",
          "name": "fare",
          "type": "uint256"
        },
        {
          "internalType": "uint256",
          "name": "date",
          "type": "uint256"
        },
        {
          "internalType": "uint256",
          "name": "time",
          "type": "uint256"
        },
        {
          "internalType": "uint256",
          "name": "noofpass",
          "type": "uint256"
        },
        {
          "internalType": "bool",
          "name": "booked",
          "type": "bool"
        },
        {
          "internalType": "enum RideContract.RideStatus",
          "name": "status",
          "type": "uint8"
        }
      ],
      "stateMutability": "view",
      "type": "function"
    },
    {
      "inputs": [
        {
          "internalType": "uint256",
          "name": "_rideId",
          "type": "uint256"
        }
      ],
      "name": "decrementSeats",
      "outputs": [
        {
          "internalType": "uint256",
          "name": "",
          "type": "uint256"
        }
      ],
      "stateMutability": "nonpayable",
      "type": "function"
    },
    {
      "inputs": [
        {
          "internalType": "uint256",
          "name": "_rideId",
          "type": "uint256"
        }
      ],
      "name": "deleteRide",
      "outputs": [],
      "stateMutability": "nonpayable",
      "type": "function"
    },
    {
      "inputs": [
        {
          "internalType": "uint256",
          "name": "_id",
          "type": "uint256"
        }
      ],
      "name": "getDetails",
      "outputs": [
        {
          "internalType": "string",
          "name": "",
          "type": "string"
        },
        {
          "internalType": "string",
          "name": "",
          "type": "string"
        },
        {
          "internalType": "uint256",
          "name": "",
          "type": "uint256"
        },
        {
          "internalType": "uint256",
          "name": "",
          "type": "uint256"
        },
        {
          "internalType": "uint256",
          "name": "",
          "type": "uint256"
        },
        {
          "internalType": "uint256",
          "name": "",
          "type": "uint256"
        },
        {
          "internalType": "address",
          "name": "",
          "type": "address"
        }
      ],
      "stateMutability": "view",
      "type": "function"
    },
    {
      "inputs": [
        {
          "internalType": "uint256",
          "name": "",
          "type": "uint256"
        }
      ],
      "name": "rides",
      "outputs": [
        {
          "internalType": "uint256",
          "name": "id",
          "type": "uint256"
        },
        {
          "internalType": "address",
          "name": "driver",
          "type": "address"
        },
        {
          "internalType": "string",
          "name": "startLocation",
          "type": "string"
        },
        {
          "internalType": "string",
          "name": "endLocation",
          "type": "string"
        },
        {
          "internalType": "uint256",
          "name": "fare",
          "type": "uint256"
        },
        {
          "internalType": "uint256",
          "name": "date",
          "type": "uint256"
        },
        {
          "internalType": "uint256",
          "name": "time",
          "type": "uint256"
        },
        {
          "internalType": "uint256",
          "name": "noofpass",
          "type": "uint256"
        },
        {
          "internalType": "bool",
          "name": "booked",
          "type": "bool"
        },
        {
          "internalType": "enum RideContract.RideStatus",
          "name": "status",
          "type": "uint8"
        }
      ],
      "stateMutability": "view",
      "type": "function"
    },
    {
      "inputs": [
        {
          "internalType": "uint256",
          "name": "",
          "type": "uint256"
        }
      ],
      "name": "storedride",
      "outputs": [
        {
          "internalType": "uint256",
          "name": "id",
          "type": "uint256"
        },
        {
          "internalType": "address",
          "name": "driver",
          "type": "address"
        },
        {
          "internalType": "string",
          "name": "startLocation",
          "type": "string"
        },
        {
          "internalType": "string",
          "name": "endLocation",
          "type": "string"
        },
        {
          "internalType": "uint256",
          "name": "fare",
          "type": "uint256"
        },
        {
          "internalType": "uint256",
          "name": "date",
          "type": "uint256"
        },
        {
          "internalType": "uint256",
          "name": "time",
          "type": "uint256"
        },
        {
          "internalType": "uint256",
          "name": "noofpass",
          "type": "uint256"
        },
        {
          "internalType": "bool",
          "name": "booked",
          "type": "bool"
        },
        {
          "internalType": "enum RideContract.RideStatus",
          "name": "status",
          "type": "uint8"
        }
      ],
      "stateMutability": "view",
      "type": "function"
    },
    {
      "inputs": [],
      "name": "totalRides",
      "outputs": [
        {
          "internalType": "uint256",
          "name": "",
          "type": "uint256"
        }
      ],
      "stateMutability": "view",
      "type": "function"
    },
    {
      "inputs": [
        {
          "internalType": "uint256",
          "name": "_rideId",
          "type": "uint256"
        }
      ],
      "name": "markRideAsComplete",
      "outputs": [
        {
          "internalType": "bool",
          "name": "",
          "type": "bool"
        }
      ],
      "stateMutability": "nonpayable",
      "type": "function"
    }
  ],
  "bytecode": "0x6080604052600060035534801561001557600080fd5b506114d2806100256000396000f3fe608060405234801561001057600080fd5b506004361061009e5760003560e01c8063880ed4ca11610066578063880ed4ca1461012d578063b34cad2114610150578063b93a89f714610163578063be69d9c214610189578063e0b05ea61461019c57600080fd5b80633c70c157146100a3578063416824ea146100b857806346afbcfc146100de5780635205f112146100f157806387bb2f531461011a575b600080fd5b6100b66100b1366004610f1b565b6101a5565b005b6100cb6100c6366004610f1b565b610224565b6040519081526020015b60405180910390f35b6100cb6100ec366004610f1b565b610245565b6101046100ff366004610f1b565b61036c565b6040516100d59a99989796959493929190610f90565b610104610128366004611027565b6104ee565b61014061013b366004610f1b565b610521565b60405190151581526020016100d5565b6100b661015e3660046110fa565b610805565b610176610171366004610f1b565b610c16565b6040516100d59796959493929190611181565b610104610197366004610f1b565b610eb5565b6100cb60035481565b600081815481106101b8576101b86111da565b6000918252602082206009909102018181556001810180546001600160a01b0319169055906101ea6002830182610ec5565b6101f8600383016000610ec5565b5060006004820181905560058201819055600682018190556007820155600801805461ffff1916905550565b6005818154811061023457600080fd5b600091825260209091200154905081565b6000808211801561025857506000548211155b61029b5760405162461bcd60e51b815260206004820152600f60248201526e125b9d985b1a59081c9a5919481251608a1b60448201526064015b60405180910390fd5b6000806102a9600185611206565b815481106102b9576102b96111da565b90600052602060002090600902019050600081600701541161031d5760405162461bcd60e51b815260206004820152601a60248201527f4e6f20617661696c61626c6520736561747320696e20726964650000000000006044820152606401610292565b60078101805490600061032f8361121f565b9091555060009050610342600185611206565b81548110610352576103526111da565b906000526020600020906009020160070154915050919050565b6000818154811061037c57600080fd5b60009182526020909120600990910201805460018201546002830180549294506001600160a01b0390911692916103b290611236565b80601f01602080910402602001604051908101604052809291908181526020018280546103de90611236565b801561042b5780601f106104005761010080835404028352916020019161042b565b820191906000526020600020905b81548152906001019060200180831161040e57829003601f168201915b50505050509080600301805461044090611236565b80601f016020809104026020016040519081016040528092919081815260200182805461046c90611236565b80156104b95780601f1061048e576101008083540402835291602001916104b9565b820191906000526020600020905b81548152906001019060200180831161049c57829003601f168201915b505050600484015460058501546006860154600787015460089097015495969295919450925060ff808216916101009004168a565b600260208190526000918252604090912080546001820154928201805491936001600160a01b031692916103b290611236565b60008061052f600184611206565b8154811061053f5761053f6111da565b60009182526020909120600990910201600101546001600160a01b031633146105a05760405162461bcd60e51b8152602060048201526013602482015272556e617574686f72697a65642061636365737360681b6044820152606401610292565b600160006105ae8285611206565b815481106105be576105be6111da565b60009182526020909120600860099092020101805461ff0019166101008360028111156105ed576105ed610f7a565b0217905550600160006106008285611206565b81548110610610576106106111da565b600091825260208083208454600181810187559585529190932060099283029093018054919092029092019182558281015492820180546001600160a01b0319166001600160a01b0390941693909317909255600280820190610675908401826112bf565b50600381810190610688908401826112bf565b506004828101549082015560058083015490820155600680830154908201556007808301549082015560088083018054918301805460ff938416151560ff1982168117835592546101009081900490941693919261ff00191661ffff1990911617908360028111156106fc576106fc610f7a565b02179055505033600090815260046020526040812091505b81548110156107c85783828281548110610730576107306111da565b9060005260206000200154036107b6578154829061075090600190611206565b81548110610760576107606111da565b906000526020600020015482828154811061077d5761077d6111da565b90600052602060002001819055508180548061079b5761079b6113a0565b600190038181906000526020600020016000905590556107c8565b806107c0816113b6565b915050610714565b505060058054600181810183556000929092527f036b6384b5eca791c62761152d0c79bb0604c104a5fb6f4eb0703f3154bb3db001929092555090565b600080546108149060016113cf565b90506000604051806101400160405280838152602001336001600160a01b031681526020018981526020018881526020018781526020018681526020018581526020018481526020016000151581526020016000600281111561087957610879610f7a565b90526000805460018101825590805281517f290decd9548b62a8d60345a988386fc84ba6bc95484008f6362f93160ef3e563600990920291820190815560208301517f290decd9548b62a8d60345a988386fc84ba6bc95484008f6362f93160ef3e564830180546001600160a01b0319166001600160a01b039092169190911790556040830151929350839290917f290decd9548b62a8d60345a988386fc84ba6bc95484008f6362f93160ef3e565019061093490826113e2565b506060820151600382019061094990826113e2565b506080820151600482015560a0820151600582015560c0820151600682015560e082015160078201556101008083015160088301805491151560ff1983168117825561012086015193919261ff001990911661ffff1990911617908360028111156109b6576109b6610f7a565b0217905550503360009081526002602081815260409283902085518155908501516001820180546001600160a01b0319166001600160a01b039092169190911790559184015184935090820190610a0d90826113e2565b5060608201516003820190610a2290826113e2565b506080820151600482015560a0820151600582015560c0820151600682015560e082015160078201556101008083015160088301805491151560ff1983168117825561012086015193919261ff001990911661ffff199091161790836002811115610a8f57610a8f610f7a565b02179055505060018054808201825560009190915282517fb10e2d527612073b26eecdfd717e6a320cf44b4afac2b0732d9fcbe2b7fa0cf6600990920291820190815560208401517fb10e2d527612073b26eecdfd717e6a320cf44b4afac2b0732d9fcbe2b7fa0cf7830180546001600160a01b0319166001600160a01b03909216919091179055604084015184935090917fb10e2d527612073b26eecdfd717e6a320cf44b4afac2b0732d9fcbe2b7fa0cf80190610b4e90826113e2565b5060608201516003820190610b6390826113e2565b506080820151600482015560a0820151600582015560c0820151600682015560e082015160078201556101008083015160088301805491151560ff1983168117825561012086015193919261ff001990911661ffff199091161790836002811115610bd057610bd0610f7a565b0217905550506040518381527f195c1bff7ad0c020d447b95b5458d5fef9c1c01f88f8682ee06bd178afa18538915060200160405180910390a150600355505050505050565b60608060008080808080610c2b60018a611206565b81548110610c3b57610c3b6111da565b9060005260206000209060090201600201600060018a610c5b9190611206565b81548110610c6b57610c6b6111da565b9060005260206000209060090201600301600060018b610c8b9190611206565b81548110610c9b57610c9b6111da565b906000526020600020906009020160040154600060018c610cbc9190611206565b81548110610ccc57610ccc6111da565b906000526020600020906009020160050154600060018d610ced9190611206565b81548110610cfd57610cfd6111da565b906000526020600020906009020160060154600060018e610d1e9190611206565b81548110610d2e57610d2e6111da565b906000526020600020906009020160070154600060018f610d4f9190611206565b81548110610d5f57610d5f6111da565b906000526020600020906009020160010160009054906101000a90046001600160a01b0316868054610d9090611236565b80601f0160208091040260200160405190810160405280929190818152602001828054610dbc90611236565b8015610e095780601f10610dde57610100808354040283529160200191610e09565b820191906000526020600020905b815481529060010190602001808311610dec57829003601f168201915b50505050509650858054610e1c90611236565b80601f0160208091040260200160405190810160405280929190818152602001828054610e4890611236565b8015610e955780601f10610e6a57610100808354040283529160200191610e95565b820191906000526020600020905b815481529060010190602001808311610e7857829003601f168201915b505050505095509650965096509650965096509650919395979092949650565b6001818154811061037c57600080fd5b508054610ed190611236565b6000825580601f10610ee1575050565b601f016020900490600052602060002090810190610eff9190610f02565b50565b5b80821115610f175760008155600101610f03565b5090565b600060208284031215610f2d57600080fd5b5035919050565b6000815180845260005b81811015610f5a57602081850181015186830182015201610f3e565b506000602082860101526020601f19601f83011685010191505092915050565b634e487b7160e01b600052602160045260246000fd5b8a81526001600160a01b038a16602082015261014060408201819052600090610fbb8382018c610f34565b90508281036060840152610fcf818b610f34565b9150508760808301528660a08301528560c08301528460e08301528315156101008301526003831061101157634e487b7160e01b600052602160045260246000fd5b826101208301529b9a5050505050505050505050565b60006020828403121561103957600080fd5b81356001600160a01b038116811461105057600080fd5b9392505050565b634e487b7160e01b600052604160045260246000fd5b600082601f83011261107e57600080fd5b813567ffffffffffffffff8082111561109957611099611057565b604051601f8301601f19908116603f011681019082821181831017156110c1576110c1611057565b816040528381528660208588010111156110da57600080fd5b836020870160208301376000602085830101528094505050505092915050565b60008060008060008060c0878903121561111357600080fd5b863567ffffffffffffffff8082111561112b57600080fd5b6111378a838b0161106d565b9750602089013591508082111561114d57600080fd5b5061115a89828a0161106d565b96999698505050506040850135946060810135946080820135945060a09091013592509050565b60e08152600061119460e083018a610f34565b82810360208401526111a6818a610f34565b604084019890985250506060810194909452608084019290925260a08301526001600160a01b031660c09091015292915050565b634e487b7160e01b600052603260045260246000fd5b634e487b7160e01b600052601160045260246000fd5b81810381811115611219576112196111f0565b92915050565b60008161122e5761122e6111f0565b506000190190565b600181811c9082168061124a57607f821691505b60208210810361126a57634e487b7160e01b600052602260045260246000fd5b50919050565b601f8211156112ba57600081815260208120601f850160051c810160208610156112975750805b601f850160051c820191505b818110156112b6578281556001016112a3565b5050505b505050565b8181036112ca575050565b6112d48254611236565b67ffffffffffffffff8111156112ec576112ec611057565b611300816112fa8454611236565b84611270565b6000601f821160018114611334576000831561131c5750848201545b600019600385901b1c1916600184901b178455611399565b600085815260209020601f19841690600086815260209020845b8381101561136e578286015482556001958601959091019060200161134e565b508583101561138c5781850154600019600388901b60f8161c191681555b50505060018360011b0184555b5050505050565b634e487b7160e01b600052603160045260246000fd5b6000600182016113c8576113c86111f0565b5060010190565b80820180821115611219576112196111f0565b815167ffffffffffffffff8111156113fc576113fc611057565b61140a816112fa8454611236565b602080601f83116001811461143f57600084156114275750858301515b600019600386901b1c1916600185901b1785556112b6565b600085815260208120601f198616915b8281101561146e5788860151825594840194600190910190840161144f565b508582101561148c5787850151600019600388901b60f8161c191681555b5050505050600190811b0190555056fea26469706673582212209b9353be1aec076774158b6471bbce55c899a890cc2e47edd450278cec67bc5d64736f6c63430008130033",
  "immutableReferences": {},
  "source": "// SPDX-License-Identifier: MIT\r\npragma solidity ^0.8.0;\r\n\r\nimport \"./RideContract.sol\";\r\n// import \"./CarbonOffsetCredit.sol\";\r\n\r\ncontract RideManagementContract is RideContract {\r\n    mapping (address => uint[])  driverToRides;\r\n    uint[] public completedRides;\r\n\r\n    function markRideAsComplete(uint _rideId) public returns(bool){\r\n        require(msg.sender == rides[_rideId - 1].driver, \"Unauthorized access\");\r\n\r\n        rides[_rideId - 1].status = RideStatus.Completed;\r\n        storedride.push(rides[_rideId - 1]);\r\n\r\n        uint[] storage ridesByDriver = driverToRides[msg.sender];\r\n\r\n        for (uint i = 0; i < ridesByDriver.length; i++) {\r\n            if (ridesByDriver[i] == _rideId) {\r\n                ridesByDriver[i] = ridesByDriver[ridesByDriver.length - 1];\r\n                ridesByDriver.pop();\r\n                break;\r\n            }\r\n        }\r\n\r\n        completedRides.push(_rideId);\r\n        return true;\r\n    }\r\n}\r\n",
  "sourcePath": "D:\\Yugo_Blockchain\\src\\contracts\\RideManagementContract.sol",
  "compiler": {
    "name": "solc",
    "version": "0.8.19+commit.7dd6d404.Emscripten.clang"
  },
  "schemaVersion": "3.4.12",
  "updatedAt": "2023-04-30T14:16:01.211Z",
  "devdoc": {
    "kind": "dev",
    "methods": {},
    "version": 1
  },
  "userdoc": {
    "kind": "user",
    "methods": {},
    "version": 1
  }
}