{
  "contractName": "RideContract",
  "abi": [
    {
      "anonymous": false,
      "inputs": [
        {
          "indexed": false,
          "internalType": "uint256",
          "name": "rideId",
          "type": "uint256"
        }
      ],
      "name": "NewRide",
      "type": "event"
    },
    {
      "inputs": [],
      "name": "CarbonCredits",
      "outputs": [
        {
          "internalType": "uint256",
          "name": "",
          "type": "uint256"
        }
      ],
      "stateMutability": "view",
      "type": "function",
      "constant": true
    },
    {
      "inputs": [],
      "name": "amountPaid",
      "outputs": [
        {
          "internalType": "uint256",
          "name": "",
          "type": "uint256"
        }
      ],
      "stateMutability": "view",
      "type": "function",
      "constant": true
    },
    {
      "inputs": [
        {
          "internalType": "address",
          "name": "",
          "type": "address"
        }
      ],
      "name": "currentRide",
      "outputs": [
        {
          "internalType": "uint256",
          "name": "id",
          "type": "uint256"
        },
        {
          "internalType": "address",
          "name": "driver",
          "type": "address"
        },
        {
          "internalType": "string",
          "name": "startLocation",
          "type": "string"
        },
        {
          "internalType": "string",
          "name": "endLocation",
          "type": "string"
        },
        {
          "internalType": "uint256",
          "name": "fare",
          "type": "uint256"
        },
        {
          "internalType": "uint256",
          "name": "date",
          "type": "uint256"
        },
        {
          "internalType": "uint256",
          "name": "time",
          "type": "uint256"
        },
        {
          "internalType": "uint256",
          "name": "noofpass",
          "type": "uint256"
        },
        {
          "internalType": "bool",
          "name": "booked",
          "type": "bool"
        },
        {
          "internalType": "enum RideContract.RideStatus",
          "name": "status",
          "type": "uint8"
        }
      ],
      "stateMutability": "view",
      "type": "function",
      "constant": true
    },
    {
      "inputs": [],
      "name": "numBookedRides",
      "outputs": [
        {
          "internalType": "uint256",
          "name": "",
          "type": "uint256"
        }
      ],
      "stateMutability": "view",
      "type": "function",
      "constant": true
    },
    {
      "inputs": [],
      "name": "numCreatedRides",
      "outputs": [
        {
          "internalType": "uint256",
          "name": "",
          "type": "uint256"
        }
      ],
      "stateMutability": "view",
      "type": "function",
      "constant": true
    },
    {
      "inputs": [],
      "name": "rideDate",
      "outputs": [
        {
          "internalType": "string",
          "name": "",
          "type": "string"
        }
      ],
      "stateMutability": "view",
      "type": "function",
      "constant": true
    },
    {
      "inputs": [
        {
          "internalType": "uint256",
          "name": "",
          "type": "uint256"
        }
      ],
      "name": "rideDetails",
      "outputs": [
        {
          "internalType": "string",
          "name": "rideFrom",
          "type": "string"
        },
        {
          "internalType": "string",
          "name": "rideTo",
          "type": "string"
        },
        {
          "internalType": "string",
          "name": "rideDate",
          "type": "string"
        },
        {
          "internalType": "uint256",
          "name": "rideTime",
          "type": "uint256"
        },
        {
          "internalType": "uint256",
          "name": "amountPaid",
          "type": "uint256"
        }
      ],
      "stateMutability": "view",
      "type": "function",
      "constant": true
    },
    {
      "inputs": [],
      "name": "rideFrom",
      "outputs": [
        {
          "internalType": "string",
          "name": "",
          "type": "string"
        }
      ],
      "stateMutability": "view",
      "type": "function",
      "constant": true
    },
    {
      "inputs": [],
      "name": "rideTime",
      "outputs": [
        {
          "internalType": "string",
          "name": "",
          "type": "string"
        }
      ],
      "stateMutability": "view",
      "type": "function",
      "constant": true
    },
    {
      "inputs": [],
      "name": "rideTo",
      "outputs": [
        {
          "internalType": "string",
          "name": "",
          "type": "string"
        }
      ],
      "stateMutability": "view",
      "type": "function",
      "constant": true
    },
    {
      "inputs": [
        {
          "internalType": "uint256",
          "name": "",
          "type": "uint256"
        }
      ],
      "name": "rides",
      "outputs": [
        {
          "internalType": "uint256",
          "name": "id",
          "type": "uint256"
        },
        {
          "internalType": "address",
          "name": "driver",
          "type": "address"
        },
        {
          "internalType": "string",
          "name": "startLocation",
          "type": "string"
        },
        {
          "internalType": "string",
          "name": "endLocation",
          "type": "string"
        },
        {
          "internalType": "uint256",
          "name": "fare",
          "type": "uint256"
        },
        {
          "internalType": "uint256",
          "name": "date",
          "type": "uint256"
        },
        {
          "internalType": "uint256",
          "name": "time",
          "type": "uint256"
        },
        {
          "internalType": "uint256",
          "name": "noofpass",
          "type": "uint256"
        },
        {
          "internalType": "bool",
          "name": "booked",
          "type": "bool"
        },
        {
          "internalType": "enum RideContract.RideStatus",
          "name": "status",
          "type": "uint8"
        }
      ],
      "stateMutability": "view",
      "type": "function",
      "constant": true
    },
    {
      "inputs": [
        {
          "internalType": "uint256",
          "name": "",
          "type": "uint256"
        }
      ],
      "name": "storedride",
      "outputs": [
        {
          "internalType": "uint256",
          "name": "id",
          "type": "uint256"
        },
        {
          "internalType": "address",
          "name": "driver",
          "type": "address"
        },
        {
          "internalType": "string",
          "name": "startLocation",
          "type": "string"
        },
        {
          "internalType": "string",
          "name": "endLocation",
          "type": "string"
        },
        {
          "internalType": "uint256",
          "name": "fare",
          "type": "uint256"
        },
        {
          "internalType": "uint256",
          "name": "date",
          "type": "uint256"
        },
        {
          "internalType": "uint256",
          "name": "time",
          "type": "uint256"
        },
        {
          "internalType": "uint256",
          "name": "noofpass",
          "type": "uint256"
        },
        {
          "internalType": "bool",
          "name": "booked",
          "type": "bool"
        },
        {
          "internalType": "enum RideContract.RideStatus",
          "name": "status",
          "type": "uint8"
        }
      ],
      "stateMutability": "view",
      "type": "function",
      "constant": true
    },
    {
      "inputs": [],
      "name": "totalRides",
      "outputs": [
        {
          "internalType": "uint256",
          "name": "",
          "type": "uint256"
        }
      ],
      "stateMutability": "view",
      "type": "function",
      "constant": true
    },
    {
      "inputs": [
        {
          "internalType": "string",
          "name": "_startLocation",
          "type": "string"
        },
        {
          "internalType": "string",
          "name": "_endLocation",
          "type": "string"
        },
        {
          "internalType": "uint256",
          "name": "_fare",
          "type": "uint256"
        },
        {
          "internalType": "uint256",
          "name": "_date",
          "type": "uint256"
        },
        {
          "internalType": "uint256",
          "name": "_time",
          "type": "uint256"
        },
        {
          "internalType": "uint256",
          "name": "_noofpass",
          "type": "uint256"
        }
      ],
      "name": "createRide",
      "outputs": [],
      "stateMutability": "nonpayable",
      "type": "function"
    },
    {
      "inputs": [
        {
          "internalType": "uint256",
          "name": "_rideId",
          "type": "uint256"
        }
      ],
      "name": "decrementSeats",
      "outputs": [
        {
          "internalType": "string",
          "name": "",
          "type": "string"
        },
        {
          "internalType": "string",
          "name": "",
          "type": "string"
        },
        {
          "internalType": "uint256",
          "name": "",
          "type": "uint256"
        },
        {
          "internalType": "uint256",
          "name": "",
          "type": "uint256"
        },
        {
          "internalType": "uint256",
          "name": "",
          "type": "uint256"
        },
        {
          "internalType": "uint256",
          "name": "",
          "type": "uint256"
        },
        {
          "internalType": "uint256",
          "name": "",
          "type": "uint256"
        }
      ],
      "stateMutability": "nonpayable",
      "type": "function"
    },
    {
      "inputs": [
        {
          "internalType": "uint256",
          "name": "_id",
          "type": "uint256"
        }
      ],
      "name": "getDetails",
      "outputs": [
        {
          "internalType": "string",
          "name": "",
          "type": "string"
        },
        {
          "internalType": "string",
          "name": "",
          "type": "string"
        },
        {
          "internalType": "uint256",
          "name": "",
          "type": "uint256"
        },
        {
          "internalType": "uint256",
          "name": "",
          "type": "uint256"
        },
        {
          "internalType": "uint256",
          "name": "",
          "type": "uint256"
        },
        {
          "internalType": "uint256",
          "name": "",
          "type": "uint256"
        },
        {
          "internalType": "address",
          "name": "",
          "type": "address"
        }
      ],
      "stateMutability": "view",
      "type": "function",
      "constant": true
    },
    {
      "inputs": [
        {
          "internalType": "uint256",
          "name": "_rideId",
          "type": "uint256"
        }
      ],
      "name": "deleteRide",
      "outputs": [],
      "stateMutability": "nonpayable",
      "type": "function"
    },
    {
      "inputs": [
        {
          "internalType": "string",
          "name": "_rideFrom",
          "type": "string"
        },
        {
          "internalType": "string",
          "name": "_rideTo",
          "type": "string"
        },
        {
          "internalType": "string",
          "name": "_rideDate",
          "type": "string"
        },
        {
          "internalType": "uint256",
          "name": "_rideTime",
          "type": "uint256"
        },
        {
          "internalType": "uint256",
          "name": "_amountPaid",
          "type": "uint256"
        }
      ],
      "name": "storeRideDetails",
      "outputs": [],
      "stateMutability": "nonpayable",
      "type": "function"
    },
    {
      "inputs": [
        {
          "internalType": "uint256",
          "name": "_id",
          "type": "uint256"
        }
      ],
      "name": "getStoredDetails",
      "outputs": [
        {
          "internalType": "string",
          "name": "",
          "type": "string"
        },
        {
          "internalType": "string",
          "name": "",
          "type": "string"
        },
        {
          "internalType": "string",
          "name": "",
          "type": "string"
        },
        {
          "internalType": "uint256",
          "name": "",
          "type": "uint256"
        },
        {
          "internalType": "uint256",
          "name": "",
          "type": "uint256"
        }
      ],
      "stateMutability": "view",
      "type": "function",
      "constant": true
    },
    {
      "inputs": [],
      "name": "getLength",
      "outputs": [
        {
          "internalType": "uint256",
          "name": "",
          "type": "uint256"
        }
      ],
      "stateMutability": "view",
      "type": "function",
      "constant": true
    }
  ],
  "bytecode": "0x60806040526000600b5534801561001557600080fd5b50611b54806100256000396000f3fe608060405234801561001057600080fd5b506004361061012c5760003560e01c8063a6ceb426116100ad578063ddfc6d2711610071578063ddfc6d271461027e578063e0b05ea614610286578063f333a6881461028f578063f70b97a114610298578063f9d88659146102ab57600080fd5b8063a6ceb42614610222578063b34cad211461022a578063b93a89f71461023d578063be1c766b14610263578063be69d9c21461026b57600080fd5b80635205f112116100f45780635205f112146101b557806359994dcc146101de5780635bbef3e0146101f357806366a759c21461020657806387bb2f531461020f57600080fd5b806321583ae014610131578063216340c31461014d5780633c70c1571461015657806346afbcfc1461016b5780634826bad614610191575b600080fd5b61013a60095481565b6040519081526020015b60405180910390f35b61013a60045481565b610169610164366004611543565b6102b3565b005b61017e610179366004611543565b610332565b60405161014497969594939291906115a2565b6101a461019f366004611543565b610682565b6040516101449594939291906115f2565b6101c86101c3366004611543565b610860565b6040516101449a99989796959493929190611656565b6101e66109e2565b60405161014491906116ed565b6101a4610201366004611543565b610a70565b61013a600a5481565b6101c861021d366004611707565b610ce5565b6101e6610d17565b6101696102383660046117d3565b610d24565b61025061024b366004611543565b61116c565b604051610144979695949392919061185a565b600c5461013a565b6101c8610279366004611543565b61140c565b6101e661141c565b61013a600b5481565b61013a60085481565b6101696102a63660046118b3565b611429565b6101e66114e0565b600581815481106102c6576102c661194d565b6000918252602082206009909102018181556001810180546001600160a01b0319169055906102f860028301826114ed565b6103066003830160006114ed565b5060006004820181905560058201819055600682018190556007820155600801805461ffff1916905550565b6060806000806000806000808811801561034e57506005548811155b6103915760405162461bcd60e51b815260206004820152600f60248201526e125b9d985b1a59081c9a5919481251608a1b60448201526064015b60405180910390fd5b600060056103a060018b611979565b815481106103b0576103b061194d565b9060005260206000209060090201905060008160070154116104145760405162461bcd60e51b815260206004820152601a60248201527f4e6f20617661696c61626c6520736561747320696e20726964650000000000006044820152606401610388565b60078101805490600061042683611992565b9091555050600a805490600061043b836119a9565b919050555060056009600082825461045391906119c2565b909155506005905061046660018b611979565b815481106104765761047661194d565b9060005260206000209060090201600201600560018b6104969190611979565b815481106104a6576104a661194d565b9060005260206000209060090201600301600560018c6104c69190611979565b815481106104d6576104d661194d565b906000526020600020906009020160050154600560018d6104f79190611979565b815481106105075761050761194d565b906000526020600020906009020160060154600560018e6105289190611979565b815481106105385761053861194d565b906000526020600020906009020160070154600a5460095486805461055c906119d5565b80601f0160208091040260200160405190810160405280929190818152602001828054610588906119d5565b80156105d55780601f106105aa576101008083540402835291602001916105d5565b820191906000526020600020905b8154815290600101906020018083116105b857829003601f168201915b505050505096508580546105e8906119d5565b80601f0160208091040260200160405190810160405280929190818152602001828054610614906119d5565b80156106615780601f1061063657610100808354040283529160200191610661565b820191906000526020600020905b81548152906001019060200180831161064457829003601f168201915b50505050509550975097509750975097509750975050919395979092949650565b600c818154811061069257600080fd5b90600052602060002090600502016000915090508060000180546106b5906119d5565b80601f01602080910402602001604051908101604052809291908181526020018280546106e1906119d5565b801561072e5780601f106107035761010080835404028352916020019161072e565b820191906000526020600020905b81548152906001019060200180831161071157829003601f168201915b505050505090806001018054610743906119d5565b80601f016020809104026020016040519081016040528092919081815260200182805461076f906119d5565b80156107bc5780601f10610791576101008083540402835291602001916107bc565b820191906000526020600020905b81548152906001019060200180831161079f57829003601f168201915b5050505050908060020180546107d1906119d5565b80601f01602080910402602001604051908101604052809291908181526020018280546107fd906119d5565b801561084a5780601f1061081f5761010080835404028352916020019161084a565b820191906000526020600020905b81548152906001019060200180831161082d57829003601f168201915b5050505050908060030154908060040154905085565b6005818154811061087057600080fd5b60009182526020909120600990910201805460018201546002830180549294506001600160a01b0390911692916108a6906119d5565b80601f01602080910402602001604051908101604052809291908181526020018280546108d2906119d5565b801561091f5780601f106108f45761010080835404028352916020019161091f565b820191906000526020600020905b81548152906001019060200180831161090257829003601f168201915b505050505090806003018054610934906119d5565b80601f0160208091040260200160405190810160405280929190818152602001828054610960906119d5565b80156109ad5780601f10610982576101008083540402835291602001916109ad565b820191906000526020600020905b81548152906001019060200180831161099057829003601f168201915b505050600484015460058501546006860154600787015460089097015495969295919450925060ff808216916101009004168a565b600180546109ef906119d5565b80601f0160208091040260200160405190810160405280929190818152602001828054610a1b906119d5565b8015610a685780601f10610a3d57610100808354040283529160200191610a68565b820191906000526020600020905b815481529060010190602001808311610a4b57829003601f168201915b505050505081565b6060806060600080600c8681548110610a8b57610a8b61194d565b9060005260206000209060050201600001600c8781548110610aaf57610aaf61194d565b9060005260206000209060050201600101600c8881548110610ad357610ad361194d565b9060005260206000209060050201600201600c8981548110610af757610af761194d565b906000526020600020906005020160030154600c8a81548110610b1c57610b1c61194d565b906000526020600020906005020160040154848054610b3a906119d5565b80601f0160208091040260200160405190810160405280929190818152602001828054610b66906119d5565b8015610bb35780601f10610b8857610100808354040283529160200191610bb3565b820191906000526020600020905b815481529060010190602001808311610b9657829003601f168201915b50505050509450838054610bc6906119d5565b80601f0160208091040260200160405190810160405280929190818152602001828054610bf2906119d5565b8015610c3f5780601f10610c1457610100808354040283529160200191610c3f565b820191906000526020600020905b815481529060010190602001808311610c2257829003601f168201915b50505050509350828054610c52906119d5565b80601f0160208091040260200160405190810160405280929190818152602001828054610c7e906119d5565b8015610ccb5780601f10610ca057610100808354040283529160200191610ccb565b820191906000526020600020905b815481529060010190602001808311610cae57829003601f168201915b505050505092509450945094509450945091939590929450565b60076020526000908152604090208054600182015460028301805492936001600160a01b03909216926108a6906119d5565b600280546109ef906119d5565b600554600090610d359060016119c2565b90506000604051806101400160405280838152602001336001600160a01b0316815260200189815260200188815260200187815260200186815260200185815260200184815260200160001515815260200160006002811115610d9a57610d9a611640565b90526005805460018101825560009190915281517f036b6384b5eca791c62761152d0c79bb0604c104a5fb6f4eb0703f3154bb3db0600990920291820190815560208301517f036b6384b5eca791c62761152d0c79bb0604c104a5fb6f4eb0703f3154bb3db1830180546001600160a01b0319166001600160a01b039092169190911790556040830151929350839290917f036b6384b5eca791c62761152d0c79bb0604c104a5fb6f4eb0703f3154bb3db20190610e589082611a5e565b5060608201516003820190610e6d9082611a5e565b506080820151600482015560a0820151600582015560c0820151600682015560e082015160078201556101008083015160088301805491151560ff1983168117825561012086015193919261ff001990911661ffff199091161790836002811115610eda57610eda611640565b0217905550503360009081526007602090815260409182902084518155908401516001820180546001600160a01b0319166001600160a01b03909216919091179055908301518392506002820190610f329082611a5e565b5060608201516003820190610f479082611a5e565b506080820151600482015560a0820151600582015560c0820151600682015560e082015160078201556101008083015160088301805491151560ff1983168117825561012086015193919261ff001990911661ffff199091161790836002811115610fb457610fb4611640565b0217905550506006805460018101825560009190915282517ff652222313e28459528d920b65115c16c04f3efc82aaedc97be59f3f377c0d3f600990920291820190815560208401517ff652222313e28459528d920b65115c16c04f3efc82aaedc97be59f3f377c0d40830180546001600160a01b0319166001600160a01b03909216919091179055604084015184935090917ff652222313e28459528d920b65115c16c04f3efc82aaedc97be59f3f377c0d4101906110749082611a5e565b50606082015160038201906110899082611a5e565b506080820151600482015560a0820151600582015560c0820151600682015560e082015160078201556101008083015160088301805491151560ff1983168117825561012086015193919261ff001990911661ffff1990911617908360028111156110f6576110f6611640565b0217905550506040518381527f195c1bff7ad0c020d447b95b5458d5fef9c1c01f88f8682ee06bd178afa18538915060200160405180910390a1600b82905560088054906000611145836119a9565b9190505550600a6009600082825461115d91906119c2565b90915550505050505050505050565b606080600080808080600561118260018a611979565b815481106111925761119261194d565b9060005260206000209060090201600201600560018a6111b29190611979565b815481106111c2576111c261194d565b9060005260206000209060090201600301600560018b6111e29190611979565b815481106111f2576111f261194d565b906000526020600020906009020160040154600560018c6112139190611979565b815481106112235761122361194d565b906000526020600020906009020160050154600560018d6112449190611979565b815481106112545761125461194d565b906000526020600020906009020160060154600560018e6112759190611979565b815481106112855761128561194d565b906000526020600020906009020160070154600560018f6112a69190611979565b815481106112b6576112b661194d565b906000526020600020906009020160010160009054906101000a90046001600160a01b03168680546112e7906119d5565b80601f0160208091040260200160405190810160405280929190818152602001828054611313906119d5565b80156113605780601f1061133557610100808354040283529160200191611360565b820191906000526020600020905b81548152906001019060200180831161134357829003601f168201915b50505050509650858054611373906119d5565b80601f016020809104026020016040519081016040528092919081815260200182805461139f906119d5565b80156113ec5780601f106113c1576101008083540402835291602001916113ec565b820191906000526020600020905b8154815290600101906020018083116113cf57829003601f168201915b505050505095509650965096509650965096509650919395979092949650565b6006818154811061087057600080fd5b600380546109ef906119d5565b6040805160a081018252868152602081018690529081018490526060810183905260808101829052600c8054600181018255600091909152815182916005027fdf6966c971051c3d54ec59162606531493a51404a002842f56009d7e5cf4a8c7019081906114979082611a5e565b50602082015160018201906114ac9082611a5e565b50604082015160028201906114c19082611a5e565b5060608201518160030155608082015181600401555050505050505050565b600080546109ef906119d5565b5080546114f9906119d5565b6000825580601f10611509575050565b601f016020900490600052602060002090810190611527919061152a565b50565b5b8082111561153f576000815560010161152b565b5090565b60006020828403121561155557600080fd5b5035919050565b6000815180845260005b8181101561158257602081850181015186830182015201611566565b506000602082860101526020601f19601f83011685010191505092915050565b60e0815260006115b560e083018a61155c565b82810360208401526115c7818a61155c565b604084019890985250506060810194909452608084019290925260a083015260c09091015292915050565b60a08152600061160560a083018861155c565b8281036020840152611617818861155c565b9050828103604084015261162b818761155c565b60608401959095525050608001529392505050565b634e487b7160e01b600052602160045260246000fd5b8a81526001600160a01b038a166020820152610140604082018190526000906116818382018c61155c565b90508281036060840152611695818b61155c565b9150508760808301528660a08301528560c08301528460e0830152831515610100830152600383106116d757634e487b7160e01b600052602160045260246000fd5b826101208301529b9a5050505050505050505050565b602081526000611700602083018461155c565b9392505050565b60006020828403121561171957600080fd5b81356001600160a01b038116811461170057600080fd5b634e487b7160e01b600052604160045260246000fd5b600082601f83011261175757600080fd5b813567ffffffffffffffff8082111561177257611772611730565b604051601f8301601f19908116603f0116810190828211818310171561179a5761179a611730565b816040528381528660208588010111156117b357600080fd5b836020870160208301376000602085830101528094505050505092915050565b60008060008060008060c087890312156117ec57600080fd5b863567ffffffffffffffff8082111561180457600080fd5b6118108a838b01611746565b9750602089013591508082111561182657600080fd5b5061183389828a01611746565b96999698505050506040850135946060810135946080820135945060a09091013592509050565b60e08152600061186d60e083018a61155c565b828103602084015261187f818a61155c565b604084019890985250506060810194909452608084019290925260a08301526001600160a01b031660c09091015292915050565b600080600080600060a086880312156118cb57600080fd5b853567ffffffffffffffff808211156118e357600080fd5b6118ef89838a01611746565b9650602088013591508082111561190557600080fd5b61191189838a01611746565b9550604088013591508082111561192757600080fd5b5061193488828901611746565b9598949750949560608101359550608001359392505050565b634e487b7160e01b600052603260045260246000fd5b634e487b7160e01b600052601160045260246000fd5b8181038181111561198c5761198c611963565b92915050565b6000816119a1576119a1611963565b506000190190565b6000600182016119bb576119bb611963565b5060010190565b8082018082111561198c5761198c611963565b600181811c908216806119e957607f821691505b602082108103611a0957634e487b7160e01b600052602260045260246000fd5b50919050565b601f821115611a5957600081815260208120601f850160051c81016020861015611a365750805b601f850160051c820191505b81811015611a5557828155600101611a42565b5050505b505050565b815167ffffffffffffffff811115611a7857611a78611730565b611a8c81611a8684546119d5565b84611a0f565b602080601f831160018114611ac15760008415611aa95750858301515b600019600386901b1c1916600185901b178555611a55565b600085815260208120601f198616915b82811015611af057888601518255948401946001909101908401611ad1565b5085821015611b0e5787850151600019600388901b60f8161c191681555b5050505050600190811b0190555056fea26469706673582212208e7db9a4f73b7c6f8cf232c5f187d956924d33df2a6de768153852aabefb569064736f6c63430008130033",
  "immutableReferences": {},
  "source": "// SPDX-License-Identifier: MIT\r\npragma solidity ^0.8.0;\r\n\r\ncontract RideContract {\r\n    enum RideStatus { Active, Completed, Canceled }\r\n    string public rideFrom;\r\n    string public rideTo;\r\n    string public rideDate;\r\n    string public rideTime;\r\n    uint256 public amountPaid;\r\n    // address public to_add;\r\n    \r\n    struct Ride {\r\n        uint id;\r\n        address driver;\r\n        string startLocation;\r\n        string endLocation;\r\n        uint256 fare;\r\n        uint256 date;\r\n        uint256 time;\r\n        uint256 noofpass;\r\n        // uint256 availableSeats;\r\n        bool booked;\r\n        RideStatus status;\r\n    }\r\n\r\n    struct RideDetails{\r\n        string rideFrom;\r\n    string rideTo;\r\n    string rideDate;\r\n    uint256 rideTime;\r\n    uint256 amountPaid;\r\n    }\r\n\r\n    Ride[] public rides;\r\n    Ride[] public storedride;\r\n// struct Payment {\r\n//     string startLocation;\r\n//         string endLocation;\r\n//         address to_add;\r\n//         uint fare;\r\n//     }\r\n//     Payment[] public payments;\r\n\r\n   \r\n    mapping(address=>Ride) public currentRide;\r\n\r\n    uint public numCreatedRides;\r\n    uint public CarbonCredits;\r\n    uint public numBookedRides;\r\n    event NewRide(uint rideId);\r\n    uint256 public totalRides=0;\r\n    function createRide(string memory _startLocation, string memory _endLocation, uint256 _fare, uint256 _date, uint256 _time, uint256 _noofpass) public {\r\n        uint rideId = rides.length + 1;\r\n        \r\n        Ride memory newRide = Ride({\r\n            id: rideId,\r\n            driver: msg.sender,\r\n            startLocation: _startLocation,\r\n            endLocation: _endLocation,\r\n            fare: _fare,\r\n            date: _date,\r\n            time: _time,\r\n            booked: false,\r\n            status: RideStatus.Active, \r\n            noofpass: _noofpass\r\n            // availableSeats: _noofpass\r\n        });\r\n        rides.push(newRide);\r\n        currentRide[msg.sender]=newRide; \r\n        storedride.push(newRide);      \r\n        emit NewRide(rideId);\r\n        totalRides=rideId;\r\n        numCreatedRides++;\r\n        CarbonCredits += 10;\r\n    }\r\n    function decrementSeats(uint256 _rideId) public returns (string memory,string memory,uint256,uint256,uint256,uint256,uint256) {\r\n        require(_rideId > 0 && _rideId <= rides.length, \"Invalid ride ID\");\r\n        Ride storage ride = rides[_rideId-1];\r\n        require(ride.noofpass > 0, \"No available seats in ride\");\r\n        ride.noofpass--;\r\n        numBookedRides++;\r\n        CarbonCredits += 5;\r\n        return(rides[_rideId-1].startLocation,rides[_rideId-1].endLocation,rides[_rideId-1].date,rides[_rideId-1].time,rides[_rideId-1].noofpass,numBookedRides,CarbonCredits);\r\n    }\r\n    function getDetails(uint256 _id)public view returns(string memory,string memory,uint256,uint256,uint256,uint256,address){\r\n        return (rides[_id-1].startLocation,rides[_id-1].endLocation,rides[_id-1].fare,rides[_id-1].date,rides[_id-1].time,rides[_id-1].noofpass,rides[_id-1].driver);\r\n    }\r\n    \r\n\r\n    function deleteRide(uint256 _rideId) public {\r\n        delete rides[_rideId];\r\n    }\r\n    RideDetails[] public rideDetails;\r\n  function storeRideDetails(string memory _rideFrom, string memory _rideTo, string memory _rideDate, uint256 _rideTime, uint256 _amountPaid) public {\r\n\r\n    RideDetails memory ride=RideDetails(_rideFrom,_rideTo,_rideDate,_rideTime,_amountPaid);\r\n    rideDetails.push(ride);    \r\n  }\r\n  function getStoredDetails(uint256 _id)public view returns(string memory,string memory,string memory,uint256,uint256){\r\n    return (rideDetails[_id].rideFrom,rideDetails[_id].rideTo,rideDetails[_id].rideDate,rideDetails[_id].rideTime,rideDetails[_id].amountPaid);\r\n  }\r\n  function getLength()public view returns(uint256){\r\n    return rideDetails.length;\r\n  }\r\n}\r\n    \r\n",
  "sourcePath": "D:\\Yugo - Final project\\yugo\\src\\contracts\\RideContract.sol",
  "compiler": {
    "name": "solc",
    "version": "0.8.19+commit.7dd6d404.Emscripten.clang"
  },
  "schemaVersion": "3.4.13",
  "updatedAt": "2023-05-03T05:14:51.946Z",
  "networkType": "ethereum",
  "devdoc": {
    "kind": "dev",
    "methods": {},
    "version": 1
  },
  "userdoc": {
    "kind": "user",
    "methods": {},
    "version": 1
  }
}